{
	"twitter project/twitter.sol": {
		"Demo": {
			"abi": [
				{
					"anonymous": false,
					"inputs": [
						{
							"indexed": true,
							"internalType": "address",
							"name": "follower",
							"type": "address"
						},
						{
							"indexed": true,
							"internalType": "address",
							"name": "followed",
							"type": "address"
						}
					],
					"name": "Followed",
					"type": "event"
				},
				{
					"anonymous": false,
					"inputs": [
						{
							"indexed": true,
							"internalType": "uint256",
							"name": "messageId",
							"type": "uint256"
						},
						{
							"indexed": true,
							"internalType": "address",
							"name": "from",
							"type": "address"
						},
						{
							"indexed": true,
							"internalType": "address",
							"name": "to",
							"type": "address"
						},
						{
							"indexed": false,
							"internalType": "string",
							"name": "content",
							"type": "string"
						},
						{
							"indexed": false,
							"internalType": "uint256",
							"name": "creationTime",
							"type": "uint256"
						}
					],
					"name": "MessageSent",
					"type": "event"
				},
				{
					"anonymous": false,
					"inputs": [
						{
							"indexed": true,
							"internalType": "address",
							"name": "user",
							"type": "address"
						},
						{
							"indexed": true,
							"internalType": "address",
							"name": "operator",
							"type": "address"
						}
					],
					"name": "OperatorAuthorized",
					"type": "event"
				},
				{
					"anonymous": false,
					"inputs": [
						{
							"indexed": true,
							"internalType": "address",
							"name": "user",
							"type": "address"
						},
						{
							"indexed": true,
							"internalType": "address",
							"name": "operator",
							"type": "address"
						}
					],
					"name": "OperatorRevoked",
					"type": "event"
				},
				{
					"anonymous": false,
					"inputs": [
						{
							"indexed": true,
							"internalType": "uint256",
							"name": "tweetId",
							"type": "uint256"
						},
						{
							"indexed": true,
							"internalType": "address",
							"name": "author",
							"type": "address"
						},
						{
							"indexed": false,
							"internalType": "string",
							"name": "content",
							"type": "string"
						},
						{
							"indexed": false,
							"internalType": "uint256",
							"name": "creationTime",
							"type": "uint256"
						}
					],
					"name": "TweetCreated",
					"type": "event"
				},
				{
					"inputs": [
						{
							"internalType": "address",
							"name": "_operator",
							"type": "address"
						}
					],
					"name": "authorizeOperator",
					"outputs": [],
					"stateMutability": "nonpayable",
					"type": "function"
				},
				{
					"inputs": [
						{
							"internalType": "address",
							"name": "",
							"type": "address"
						},
						{
							"internalType": "uint256",
							"name": "",
							"type": "uint256"
						}
					],
					"name": "conversations",
					"outputs": [
						{
							"internalType": "uint256",
							"name": "id",
							"type": "uint256"
						},
						{
							"internalType": "string",
							"name": "content",
							"type": "string"
						},
						{
							"internalType": "address",
							"name": "sender",
							"type": "address"
						},
						{
							"internalType": "address",
							"name": "receiver",
							"type": "address"
						},
						{
							"internalType": "uint256",
							"name": "creationTime",
							"type": "uint256"
						}
					],
					"stateMutability": "view",
					"type": "function"
				},
				{
					"inputs": [
						{
							"internalType": "address",
							"name": "_followed",
							"type": "address"
						}
					],
					"name": "follow",
					"outputs": [],
					"stateMutability": "nonpayable",
					"type": "function"
				},
				{
					"inputs": [
						{
							"internalType": "address",
							"name": "",
							"type": "address"
						},
						{
							"internalType": "uint256",
							"name": "",
							"type": "uint256"
						}
					],
					"name": "following",
					"outputs": [
						{
							"internalType": "address",
							"name": "",
							"type": "address"
						}
					],
					"stateMutability": "view",
					"type": "function"
				},
				{
					"inputs": [
						{
							"internalType": "uint256",
							"name": "count",
							"type": "uint256"
						}
					],
					"name": "getLatestTweets",
					"outputs": [
						{
							"components": [
								{
									"internalType": "uint256",
									"name": "id",
									"type": "uint256"
								},
								{
									"internalType": "address",
									"name": "author",
									"type": "address"
								},
								{
									"internalType": "string",
									"name": "content",
									"type": "string"
								},
								{
									"internalType": "uint256",
									"name": "creationTime",
									"type": "uint256"
								}
							],
							"internalType": "struct Demo.Tweet[]",
							"name": "",
							"type": "tuple[]"
						}
					],
					"stateMutability": "view",
					"type": "function"
				},
				{
					"inputs": [
						{
							"internalType": "address",
							"name": "user",
							"type": "address"
						},
						{
							"internalType": "uint256",
							"name": "count",
							"type": "uint256"
						}
					],
					"name": "getLatestTweetsOf",
					"outputs": [
						{
							"components": [
								{
									"internalType": "uint256",
									"name": "id",
									"type": "uint256"
								},
								{
									"internalType": "address",
									"name": "author",
									"type": "address"
								},
								{
									"internalType": "string",
									"name": "content",
									"type": "string"
								},
								{
									"internalType": "uint256",
									"name": "creationTime",
									"type": "uint256"
								}
							],
							"internalType": "struct Demo.Tweet[]",
							"name": "",
							"type": "tuple[]"
						}
					],
					"stateMutability": "view",
					"type": "function"
				},
				{
					"inputs": [
						{
							"internalType": "address",
							"name": "",
							"type": "address"
						},
						{
							"internalType": "address",
							"name": "",
							"type": "address"
						}
					],
					"name": "operators",
					"outputs": [
						{
							"internalType": "bool",
							"name": "",
							"type": "bool"
						}
					],
					"stateMutability": "view",
					"type": "function"
				},
				{
					"inputs": [
						{
							"internalType": "address",
							"name": "_operator",
							"type": "address"
						}
					],
					"name": "revokeOperator",
					"outputs": [],
					"stateMutability": "nonpayable",
					"type": "function"
				},
				{
					"inputs": [
						{
							"internalType": "string",
							"name": "_content",
							"type": "string"
						},
						{
							"internalType": "address",
							"name": "_to",
							"type": "address"
						}
					],
					"name": "sendMessage",
					"outputs": [],
					"stateMutability": "nonpayable",
					"type": "function"
				},
				{
					"inputs": [
						{
							"internalType": "address",
							"name": "_from",
							"type": "address"
						},
						{
							"internalType": "address",
							"name": "_to",
							"type": "address"
						},
						{
							"internalType": "string",
							"name": "_content",
							"type": "string"
						}
					],
					"name": "sendMessageAsOperator",
					"outputs": [],
					"stateMutability": "nonpayable",
					"type": "function"
				},
				{
					"inputs": [
						{
							"internalType": "string",
							"name": "_content",
							"type": "string"
						}
					],
					"name": "tweet",
					"outputs": [],
					"stateMutability": "nonpayable",
					"type": "function"
				},
				{
					"inputs": [
						{
							"internalType": "address",
							"name": "_from",
							"type": "address"
						},
						{
							"internalType": "string",
							"name": "_content",
							"type": "string"
						}
					],
					"name": "tweetAsOperator",
					"outputs": [],
					"stateMutability": "nonpayable",
					"type": "function"
				},
				{
					"inputs": [
						{
							"internalType": "uint256",
							"name": "",
							"type": "uint256"
						}
					],
					"name": "tweets",
					"outputs": [
						{
							"internalType": "uint256",
							"name": "id",
							"type": "uint256"
						},
						{
							"internalType": "address",
							"name": "author",
							"type": "address"
						},
						{
							"internalType": "string",
							"name": "content",
							"type": "string"
						},
						{
							"internalType": "uint256",
							"name": "creationTime",
							"type": "uint256"
						}
					],
					"stateMutability": "view",
					"type": "function"
				},
				{
					"inputs": [
						{
							"internalType": "address",
							"name": "",
							"type": "address"
						},
						{
							"internalType": "uint256",
							"name": "",
							"type": "uint256"
						}
					],
					"name": "tweetsOf",
					"outputs": [
						{
							"internalType": "uint256",
							"name": "",
							"type": "uint256"
						}
					],
					"stateMutability": "view",
					"type": "function"
				}
			],
			"devdoc": {
				"kind": "dev",
				"methods": {},
				"version": 1
			},
			"evm": {
				"assembly": "    /* \"twitter project/twitter.sol\":61:4327  contract Demo {... */\n  mstore(0x40, 0x80)\n    /* \"twitter project/twitter.sol\":662:663  1 */\n  0x01\n    /* \"twitter project/twitter.sol\":635:663  uint private nextTweetId = 1 */\n  0x05\n  sstore\n    /* \"twitter project/twitter.sol\":699:700  1 */\n  0x01\n    /* \"twitter project/twitter.sol\":670:700  uint private nextMessageId = 1 */\n  0x06\n  sstore\n    /* \"twitter project/twitter.sol\":61:4327  contract Demo {... */\n  callvalue\n  dup1\n  iszero\n  tag_1\n  jumpi\n  0x00\n  dup1\n  revert\ntag_1:\n  pop\n  dataSize(sub_0)\n  dup1\n  dataOffset(sub_0)\n  0x00\n  codecopy\n  0x00\n  return\nstop\n\nsub_0: assembly {\n        /* \"twitter project/twitter.sol\":61:4327  contract Demo {... */\n      mstore(0x40, 0x80)\n      callvalue\n      dup1\n      iszero\n      tag_1\n      jumpi\n      0x00\n      dup1\n      revert\n    tag_1:\n      pop\n      jumpi(tag_2, lt(calldatasize, 0x04))\n      shr(0xe0, calldataload(0x00))\n      dup1\n      0xaf22bf94\n      gt\n      tag_17\n      jumpi\n      dup1\n      0xd3e148bd\n      gt\n      tag_18\n      jumpi\n      dup1\n      0xd3e148bd\n      eq\n      tag_13\n      jumpi\n      dup1\n      0xe8d857b0\n      eq\n      tag_14\n      jumpi\n      dup1\n      0xfad8b32a\n      eq\n      tag_15\n      jumpi\n      dup1\n      0xfb46d4c5\n      eq\n      tag_16\n      jumpi\n      jump(tag_2)\n    tag_18:\n      dup1\n      0xaf22bf94\n      eq\n      tag_10\n      jumpi\n      dup1\n      0xc48d6d5e\n      eq\n      tag_11\n      jumpi\n      dup1\n      0xc8e5c8a2\n      eq\n      tag_12\n      jumpi\n      jump(tag_2)\n    tag_17:\n      dup1\n      0x4dbf27cc\n      gt\n      tag_19\n      jumpi\n      dup1\n      0x4dbf27cc\n      eq\n      tag_6\n      jumpi\n      dup1\n      0x4dc0a687\n      eq\n      tag_7\n      jumpi\n      dup1\n      0x9139cda5\n      eq\n      tag_8\n      jumpi\n      dup1\n      0x959b8c3f\n      eq\n      tag_9\n      jumpi\n      jump(tag_2)\n    tag_19:\n      dup1\n      0x2637588e\n      eq\n      tag_3\n      jumpi\n      dup1\n      0x2b0afc6f\n      eq\n      tag_4\n      jumpi\n      dup1\n      0x3befea09\n      eq\n      tag_5\n      jumpi\n    tag_2:\n      0x00\n      dup1\n      revert\n        /* \"twitter project/twitter.sol\":512:573  mapping(address => mapping(address => bool)) public operators */\n    tag_3:\n      tag_20\n      0x04\n      dup1\n      calldatasize\n      sub\n      dup2\n      add\n      swap1\n      tag_21\n      swap2\n      swap1\n      tag_22\n      jump\t// in\n    tag_21:\n      tag_23\n      jump\t// in\n    tag_20:\n      mload(0x40)\n      tag_24\n      swap2\n      swap1\n      tag_25\n      jump\t// in\n    tag_24:\n      mload(0x40)\n      dup1\n      swap2\n      sub\n      swap1\n      return\n        /* \"twitter project/twitter.sol\":2581:2694  function tweetAsOperator(address _from, string memory _content) public {... */\n    tag_4:\n      tag_26\n      0x04\n      dup1\n      calldatasize\n      sub\n      dup2\n      add\n      swap1\n      tag_27\n      swap2\n      swap1\n      tag_28\n      jump\t// in\n    tag_27:\n      tag_29\n      jump\t// in\n    tag_26:\n      stop\n        /* \"twitter project/twitter.sol\":455:505  mapping(address => Message[]) public conversations */\n    tag_5:\n      tag_30\n      0x04\n      dup1\n      calldatasize\n      sub\n      dup2\n      add\n      swap1\n      tag_31\n      swap2\n      swap1\n      tag_32\n      jump\t// in\n    tag_31:\n      tag_33\n      jump\t// in\n    tag_30:\n      mload(0x40)\n      tag_34\n      swap6\n      swap5\n      swap4\n      swap3\n      swap2\n      swap1\n      tag_35\n      jump\t// in\n    tag_34:\n      mload(0x40)\n      dup1\n      swap2\n      sub\n      swap1\n      return\n        /* \"twitter project/twitter.sol\":2984:3129  function follow(address _followed) public {... */\n    tag_6:\n      tag_36\n      0x04\n      dup1\n      calldatasize\n      sub\n      dup2\n      add\n      swap1\n      tag_37\n      swap2\n      swap1\n      tag_38\n      jump\t// in\n    tag_37:\n      tag_39\n      jump\t// in\n    tag_36:\n      stop\n        /* \"twitter project/twitter.sol\":3509:3907  function getLatestTweets(uint count) public view returns (Tweet[] memory) {... */\n    tag_7:\n      tag_40\n      0x04\n      dup1\n      calldatasize\n      sub\n      dup2\n      add\n      swap1\n      tag_41\n      swap2\n      swap1\n      tag_42\n      jump\t// in\n    tag_41:\n      tag_43\n      jump\t// in\n    tag_40:\n      mload(0x40)\n      tag_44\n      swap2\n      swap1\n      tag_45\n      jump\t// in\n    tag_44:\n      mload(0x40)\n      dup1\n      swap2\n      sub\n      swap1\n      return\n        /* \"twitter project/twitter.sol\":580:626  mapping(address => address[]) public following */\n    tag_8:\n      tag_46\n      0x04\n      dup1\n      calldatasize\n      sub\n      dup2\n      add\n      swap1\n      tag_47\n      swap2\n      swap1\n      tag_32\n      jump\t// in\n    tag_47:\n      tag_48\n      jump\t// in\n    tag_46:\n      mload(0x40)\n      tag_49\n      swap2\n      swap1\n      tag_50\n      jump\t// in\n    tag_49:\n      mload(0x40)\n      dup1\n      swap2\n      sub\n      swap1\n      return\n        /* \"twitter project/twitter.sol\":3137:3305  function authorizeOperator(address _operator) public {... */\n    tag_9:\n      tag_51\n      0x04\n      dup1\n      calldatasize\n      sub\n      dup2\n      add\n      swap1\n      tag_52\n      swap2\n      swap1\n      tag_38\n      jump\t// in\n    tag_52:\n      tag_53\n      jump\t// in\n    tag_51:\n      stop\n        /* \"twitter project/twitter.sol\":406:448  mapping(address => uint[]) public tweetsOf */\n    tag_10:\n      tag_54\n      0x04\n      dup1\n      calldatasize\n      sub\n      dup2\n      add\n      swap1\n      tag_55\n      swap2\n      swap1\n      tag_32\n      jump\t// in\n    tag_55:\n      tag_56\n      jump\t// in\n    tag_54:\n      mload(0x40)\n      tag_57\n      swap2\n      swap1\n      tag_58\n      jump\t// in\n    tag_57:\n      mload(0x40)\n      dup1\n      swap2\n      sub\n      swap1\n      return\n        /* \"twitter project/twitter.sol\":2702:2825  function sendMessage(string memory _content, address _to) public {... */\n    tag_11:\n      tag_59\n      0x04\n      dup1\n      calldatasize\n      sub\n      dup2\n      add\n      swap1\n      tag_60\n      swap2\n      swap1\n      tag_61\n      jump\t// in\n    tag_60:\n      tag_62\n      jump\t// in\n    tag_59:\n      stop\n        /* \"twitter project/twitter.sol\":3915:4324  function getLatestTweetsOf(address user, uint count) public view returns (Tweet[] memory) {... */\n    tag_12:\n      tag_63\n      0x04\n      dup1\n      calldatasize\n      sub\n      dup2\n      add\n      swap1\n      tag_64\n      swap2\n      swap1\n      tag_32\n      jump\t// in\n    tag_64:\n      tag_65\n      jump\t// in\n    tag_63:\n      mload(0x40)\n      tag_66\n      swap2\n      swap1\n      tag_45\n      jump\t// in\n    tag_66:\n      mload(0x40)\n      dup1\n      swap2\n      sub\n      swap1\n      return\n        /* \"twitter project/twitter.sol\":2833:2976  function sendMessageAsOperator(address _from, address _to, string memory _content) public {... */\n    tag_13:\n      tag_67\n      0x04\n      dup1\n      calldatasize\n      sub\n      dup2\n      add\n      swap1\n      tag_68\n      swap2\n      swap1\n      tag_69\n      jump\t// in\n    tag_68:\n      tag_70\n      jump\t// in\n    tag_67:\n      stop\n        /* \"twitter project/twitter.sol\":363:399  mapping(uint => Tweet) public tweets */\n    tag_14:\n      tag_71\n      0x04\n      dup1\n      calldatasize\n      sub\n      dup2\n      add\n      swap1\n      tag_72\n      swap2\n      swap1\n      tag_42\n      jump\t// in\n    tag_72:\n      tag_73\n      jump\t// in\n    tag_71:\n      mload(0x40)\n      tag_74\n      swap5\n      swap4\n      swap3\n      swap2\n      swap1\n      tag_75\n      jump\t// in\n    tag_74:\n      mload(0x40)\n      dup1\n      swap2\n      sub\n      swap1\n      return\n        /* \"twitter project/twitter.sol\":3313:3476  function revokeOperator(address _operator) public {... */\n    tag_15:\n      tag_76\n      0x04\n      dup1\n      calldatasize\n      sub\n      dup2\n      add\n      swap1\n      tag_77\n      swap2\n      swap1\n      tag_38\n      jump\t// in\n    tag_77:\n      tag_78\n      jump\t// in\n    tag_76:\n      stop\n        /* \"twitter project/twitter.sol\":2480:2573  function tweet(string memory _content) public {... */\n    tag_16:\n      tag_79\n      0x04\n      dup1\n      calldatasize\n      sub\n      dup2\n      add\n      swap1\n      tag_80\n      swap2\n      swap1\n      tag_81\n      jump\t// in\n    tag_80:\n      tag_82\n      jump\t// in\n    tag_79:\n      stop\n        /* \"twitter project/twitter.sol\":512:573  mapping(address => mapping(address => bool)) public operators */\n    tag_23:\n      mstore(0x20, 0x03)\n      dup2\n      0x00\n      mstore\n      mstore(0x20, keccak256(0x00, 0x40))\n      dup1\n      0x00\n      mstore\n      keccak256(0x00, 0x40)\n      0x00\n      swap2\n      pop\n      swap2\n      pop\n      swap1\n      sload\n      swap1\n      0x0100\n      exp\n      swap1\n      div\n      0xff\n      and\n      dup2\n      jump\t// out\n        /* \"twitter project/twitter.sol\":2581:2694  function tweetAsOperator(address _from, string memory _content) public {... */\n    tag_29:\n        /* \"twitter project/twitter.sol\":2663:2686  _tweet(_from, _content) */\n      tag_84\n        /* \"twitter project/twitter.sol\":2670:2675  _from */\n      dup3\n        /* \"twitter project/twitter.sol\":2677:2685  _content */\n      dup3\n        /* \"twitter project/twitter.sol\":2663:2669  _tweet */\n      tag_85\n        /* \"twitter project/twitter.sol\":2663:2686  _tweet(_from, _content) */\n      jump\t// in\n    tag_84:\n        /* \"twitter project/twitter.sol\":2581:2694  function tweetAsOperator(address _from, string memory _content) public {... */\n      pop\n      pop\n      jump\t// out\n        /* \"twitter project/twitter.sol\":455:505  mapping(address => Message[]) public conversations */\n    tag_33:\n      mstore(0x20, 0x02)\n      dup2\n      0x00\n      mstore\n      keccak256(0x00, 0x40)\n      dup2\n      dup2\n      sload\n      dup2\n      lt\n      tag_86\n      jumpi\n      0x00\n      dup1\n      revert\n    tag_86:\n      swap1\n      0x00\n      mstore\n      keccak256(0x00, 0x20)\n      swap1\n      0x05\n      mul\n      add\n      0x00\n      swap2\n      pop\n      swap2\n      pop\n      pop\n      dup1\n      0x00\n      add\n      sload\n      swap1\n      dup1\n      0x01\n      add\n      dup1\n      sload\n      tag_88\n      swap1\n      tag_89\n      jump\t// in\n    tag_88:\n      dup1\n      0x1f\n      add\n      0x20\n      dup1\n      swap2\n      div\n      mul\n      0x20\n      add\n      mload(0x40)\n      swap1\n      dup2\n      add\n      0x40\n      mstore\n      dup1\n      swap3\n      swap2\n      swap1\n      dup2\n      dup2\n      mstore\n      0x20\n      add\n      dup3\n      dup1\n      sload\n      tag_90\n      swap1\n      tag_89\n      jump\t// in\n    tag_90:\n      dup1\n      iszero\n      tag_91\n      jumpi\n      dup1\n      0x1f\n      lt\n      tag_92\n      jumpi\n      0x0100\n      dup1\n      dup4\n      sload\n      div\n      mul\n      dup4\n      mstore\n      swap2\n      0x20\n      add\n      swap2\n      jump(tag_91)\n    tag_92:\n      dup3\n      add\n      swap2\n      swap1\n      0x00\n      mstore\n      keccak256(0x00, 0x20)\n      swap1\n    tag_93:\n      dup2\n      sload\n      dup2\n      mstore\n      swap1\n      0x01\n      add\n      swap1\n      0x20\n      add\n      dup1\n      dup4\n      gt\n      tag_93\n      jumpi\n      dup3\n      swap1\n      sub\n      0x1f\n      and\n      dup3\n      add\n      swap2\n    tag_91:\n      pop\n      pop\n      pop\n      pop\n      pop\n      swap1\n      dup1\n      0x02\n      add\n      0x00\n      swap1\n      sload\n      swap1\n      0x0100\n      exp\n      swap1\n      div\n      0xffffffffffffffffffffffffffffffffffffffff\n      and\n      swap1\n      dup1\n      0x03\n      add\n      0x00\n      swap1\n      sload\n      swap1\n      0x0100\n      exp\n      swap1\n      div\n      0xffffffffffffffffffffffffffffffffffffffff\n      and\n      swap1\n      dup1\n      0x04\n      add\n      sload\n      swap1\n      pop\n      dup6\n      jump\t// out\n        /* \"twitter project/twitter.sol\":2984:3129  function follow(address _followed) public {... */\n    tag_39:\n        /* \"twitter project/twitter.sol\":3037:3046  following */\n      0x04\n        /* \"twitter project/twitter.sol\":3037:3058  following[msg.sender] */\n      0x00\n        /* \"twitter project/twitter.sol\":3047:3057  msg.sender */\n      caller\n        /* \"twitter project/twitter.sol\":3037:3058  following[msg.sender] */\n      0xffffffffffffffffffffffffffffffffffffffff\n      and\n      0xffffffffffffffffffffffffffffffffffffffff\n      and\n      dup2\n      mstore\n      0x20\n      add\n      swap1\n      dup2\n      mstore\n      0x20\n      add\n      0x00\n      keccak256\n        /* \"twitter project/twitter.sol\":3064:3073  _followed */\n      dup2\n        /* \"twitter project/twitter.sol\":3037:3074  following[msg.sender].push(_followed) */\n      swap1\n      dup1\n      0x01\n      dup2\n      sload\n      add\n      dup1\n      dup3\n      sstore\n      dup1\n      swap2\n      pop\n      pop\n      0x01\n      swap1\n      sub\n      swap1\n      0x00\n      mstore\n      keccak256(0x00, 0x20)\n      add\n      0x00\n      swap1\n      swap2\n      swap1\n      swap2\n      swap1\n      swap2\n      0x0100\n      exp\n      dup2\n      sload\n      dup2\n      0xffffffffffffffffffffffffffffffffffffffff\n      mul\n      not\n      and\n      swap1\n      dup4\n      0xffffffffffffffffffffffffffffffffffffffff\n      and\n      mul\n      or\n      swap1\n      sstore\n      pop\n        /* \"twitter project/twitter.sol\":3111:3120  _followed */\n      dup1\n        /* \"twitter project/twitter.sol\":3090:3121  Followed(msg.sender, _followed) */\n      0xffffffffffffffffffffffffffffffffffffffff\n      and\n        /* \"twitter project/twitter.sol\":3099:3109  msg.sender */\n      caller\n        /* \"twitter project/twitter.sol\":3090:3121  Followed(msg.sender, _followed) */\n      0xffffffffffffffffffffffffffffffffffffffff\n      and\n      0x6178e95c138f06036cdc07a49ed6a3d23008969fa143baeceb037ebae22e8d14\n      mload(0x40)\n      mload(0x40)\n      dup1\n      swap2\n      sub\n      swap1\n      log3\n        /* \"twitter project/twitter.sol\":2984:3129  function follow(address _followed) public {... */\n      pop\n      jump\t// out\n        /* \"twitter project/twitter.sol\":3509:3907  function getLatestTweets(uint count) public view returns (Tweet[] memory) {... */\n    tag_43:\n        /* \"twitter project/twitter.sol\":3567:3581  Tweet[] memory */\n      0x60\n        /* \"twitter project/twitter.sol\":3610:3611  0 */\n      0x00\n        /* \"twitter project/twitter.sol\":3602:3607  count */\n      dup3\n        /* \"twitter project/twitter.sol\":3602:3611  count > 0 */\n      gt\n        /* \"twitter project/twitter.sol\":3602:3639  count > 0 && count <= nextTweetId - 1 */\n      dup1\n      iszero\n      tag_97\n      jumpi\n      pop\n        /* \"twitter project/twitter.sol\":3638:3639  1 */\n      0x01\n        /* \"twitter project/twitter.sol\":3624:3635  nextTweetId */\n      sload(0x05)\n        /* \"twitter project/twitter.sol\":3624:3639  nextTweetId - 1 */\n      tag_98\n      swap2\n      swap1\n      tag_99\n      jump\t// in\n    tag_98:\n        /* \"twitter project/twitter.sol\":3615:3620  count */\n      dup3\n        /* \"twitter project/twitter.sol\":3615:3639  count <= nextTweetId - 1 */\n      gt\n      iszero\n        /* \"twitter project/twitter.sol\":3602:3639  count > 0 && count <= nextTweetId - 1 */\n    tag_97:\n        /* \"twitter project/twitter.sol\":3594:3657  require(count > 0 && count <= nextTweetId - 1, \"Invalid count\") */\n      tag_100\n      jumpi\n      mload(0x40)\n      0x08c379a000000000000000000000000000000000000000000000000000000000\n      dup2\n      mstore\n      0x04\n      add\n      tag_101\n      swap1\n      tag_102\n      jump\t// in\n    tag_101:\n      mload(0x40)\n      dup1\n      swap2\n      sub\n      swap1\n      revert\n    tag_100:\n        /* \"twitter project/twitter.sol\":3670:3694  Tweet[] memory allTweets */\n      0x00\n        /* \"twitter project/twitter.sol\":3709:3714  count */\n      dup3\n        /* \"twitter project/twitter.sol\":3697:3715  new Tweet[](count) */\n      0xffffffffffffffff\n      dup2\n      gt\n      iszero\n      tag_103\n      jumpi\n      tag_104\n      tag_105\n      jump\t// in\n    tag_104:\n    tag_103:\n      mload(0x40)\n      swap1\n      dup1\n      dup3\n      mstore\n      dup1\n      0x20\n      mul\n      0x20\n      add\n      dup3\n      add\n      0x40\n      mstore\n      dup1\n      iszero\n      tag_106\n      jumpi\n      dup2\n      0x20\n      add\n    tag_107:\n      tag_108\n      tag_109\n      jump\t// in\n    tag_108:\n      dup2\n      mstore\n      0x20\n      add\n      swap1\n      0x01\n      swap1\n      sub\n      swap1\n      dup2\n      tag_107\n      jumpi\n      swap1\n      pop\n    tag_106:\n      pop\n        /* \"twitter project/twitter.sol\":3670:3715  Tweet[] memory allTweets = new Tweet[](count) */\n      swap1\n      pop\n        /* \"twitter project/twitter.sol\":3726:3732  uint j */\n      0x00\n        /* \"twitter project/twitter.sol\":3752:3758  uint i */\n      dup1\n        /* \"twitter project/twitter.sol\":3775:3780  count */\n      dup5\n        /* \"twitter project/twitter.sol\":3761:3772  nextTweetId */\n      sload(0x05)\n        /* \"twitter project/twitter.sol\":3761:3780  nextTweetId - count */\n      tag_113\n      swap2\n      swap1\n      tag_99\n      jump\t// in\n    tag_113:\n        /* \"twitter project/twitter.sol\":3752:3780  uint i = nextTweetId - count */\n      swap1\n      pop\n        /* \"twitter project/twitter.sol\":3747:3873  for (uint i = nextTweetId - count; i < nextTweetId; i++) {... */\n    tag_110:\n        /* \"twitter project/twitter.sol\":3786:3797  nextTweetId */\n      sload(0x05)\n        /* \"twitter project/twitter.sol\":3782:3783  i */\n      dup2\n        /* \"twitter project/twitter.sol\":3782:3797  i < nextTweetId */\n      lt\n        /* \"twitter project/twitter.sol\":3747:3873  for (uint i = nextTweetId - count; i < nextTweetId; i++) {... */\n      iszero\n      tag_111\n      jumpi\n        /* \"twitter project/twitter.sol\":3834:3840  tweets */\n      0x00\n        /* \"twitter project/twitter.sol\":3834:3843  tweets[i] */\n      dup1\n        /* \"twitter project/twitter.sol\":3841:3842  i */\n      dup3\n        /* \"twitter project/twitter.sol\":3834:3843  tweets[i] */\n      dup2\n      mstore\n      0x20\n      add\n      swap1\n      dup2\n      mstore\n      0x20\n      add\n      0x00\n      keccak256\n        /* \"twitter project/twitter.sol\":3819:3843  allTweets[j] = tweets[i] */\n      mload(0x40)\n      dup1\n      0x80\n      add\n      0x40\n      mstore\n      swap1\n      dup2\n      0x00\n      dup3\n      add\n      sload\n      dup2\n      mstore\n      0x20\n      add\n      0x01\n      dup3\n      add\n      0x00\n      swap1\n      sload\n      swap1\n      0x0100\n      exp\n      swap1\n      div\n      0xffffffffffffffffffffffffffffffffffffffff\n      and\n      0xffffffffffffffffffffffffffffffffffffffff\n      and\n      0xffffffffffffffffffffffffffffffffffffffff\n      and\n      dup2\n      mstore\n      0x20\n      add\n      0x02\n      dup3\n      add\n      dup1\n      sload\n      tag_114\n      swap1\n      tag_89\n      jump\t// in\n    tag_114:\n      dup1\n      0x1f\n      add\n      0x20\n      dup1\n      swap2\n      div\n      mul\n      0x20\n      add\n      mload(0x40)\n      swap1\n      dup2\n      add\n      0x40\n      mstore\n      dup1\n      swap3\n      swap2\n      swap1\n      dup2\n      dup2\n      mstore\n      0x20\n      add\n      dup3\n      dup1\n      sload\n      tag_115\n      swap1\n      tag_89\n      jump\t// in\n    tag_115:\n      dup1\n      iszero\n      tag_116\n      jumpi\n      dup1\n      0x1f\n      lt\n      tag_117\n      jumpi\n      0x0100\n      dup1\n      dup4\n      sload\n      div\n      mul\n      dup4\n      mstore\n      swap2\n      0x20\n      add\n      swap2\n      jump(tag_116)\n    tag_117:\n      dup3\n      add\n      swap2\n      swap1\n      0x00\n      mstore\n      keccak256(0x00, 0x20)\n      swap1\n    tag_118:\n      dup2\n      sload\n      dup2\n      mstore\n      swap1\n      0x01\n      add\n      swap1\n      0x20\n      add\n      dup1\n      dup4\n      gt\n      tag_118\n      jumpi\n      dup3\n      swap1\n      sub\n      0x1f\n      and\n      dup3\n      add\n      swap2\n    tag_116:\n      pop\n      pop\n      pop\n      pop\n      pop\n      dup2\n      mstore\n      0x20\n      add\n      0x03\n      dup3\n      add\n      sload\n      dup2\n      mstore\n      pop\n      pop\n        /* \"twitter project/twitter.sol\":3819:3828  allTweets */\n      dup4\n        /* \"twitter project/twitter.sol\":3829:3830  j */\n      dup4\n        /* \"twitter project/twitter.sol\":3819:3831  allTweets[j] */\n      dup2\n      mload\n      dup2\n      lt\n      tag_119\n      jumpi\n      tag_120\n      tag_121\n      jump\t// in\n    tag_120:\n    tag_119:\n      0x20\n      mul\n      0x20\n      add\n      add\n        /* \"twitter project/twitter.sol\":3819:3843  allTweets[j] = tweets[i] */\n      dup2\n      swap1\n      mstore\n      pop\n        /* \"twitter project/twitter.sol\":3858:3861  j++ */\n      dup2\n      dup1\n      tag_122\n      swap1\n      tag_123\n      jump\t// in\n    tag_122:\n      swap3\n      pop\n      pop\n        /* \"twitter project/twitter.sol\":3799:3802  i++ */\n      dup1\n      dup1\n      0x01\n      add\n      swap2\n      pop\n      pop\n        /* \"twitter project/twitter.sol\":3747:3873  for (uint i = nextTweetId - count; i < nextTweetId; i++) {... */\n      jump(tag_110)\n    tag_111:\n      pop\n        /* \"twitter project/twitter.sol\":3890:3899  allTweets */\n      dup2\n        /* \"twitter project/twitter.sol\":3883:3899  return allTweets */\n      swap3\n      pop\n      pop\n      pop\n        /* \"twitter project/twitter.sol\":3509:3907  function getLatestTweets(uint count) public view returns (Tweet[] memory) {... */\n      swap2\n      swap1\n      pop\n      jump\t// out\n        /* \"twitter project/twitter.sol\":580:626  mapping(address => address[]) public following */\n    tag_48:\n      mstore(0x20, 0x04)\n      dup2\n      0x00\n      mstore\n      keccak256(0x00, 0x40)\n      dup2\n      dup2\n      sload\n      dup2\n      lt\n      tag_124\n      jumpi\n      0x00\n      dup1\n      revert\n    tag_124:\n      swap1\n      0x00\n      mstore\n      keccak256(0x00, 0x20)\n      add\n      0x00\n      swap2\n      pop\n      swap2\n      pop\n      swap1\n      sload\n      swap1\n      0x0100\n      exp\n      swap1\n      div\n      0xffffffffffffffffffffffffffffffffffffffff\n      and\n      dup2\n      jump\t// out\n        /* \"twitter project/twitter.sol\":3137:3305  function authorizeOperator(address _operator) public {... */\n    tag_53:\n        /* \"twitter project/twitter.sol\":3236:3240  true */\n      0x01\n        /* \"twitter project/twitter.sol\":3201:3210  operators */\n      0x03\n        /* \"twitter project/twitter.sol\":3201:3222  operators[msg.sender] */\n      0x00\n        /* \"twitter project/twitter.sol\":3211:3221  msg.sender */\n      caller\n        /* \"twitter project/twitter.sol\":3201:3222  operators[msg.sender] */\n      0xffffffffffffffffffffffffffffffffffffffff\n      and\n      0xffffffffffffffffffffffffffffffffffffffff\n      and\n      dup2\n      mstore\n      0x20\n      add\n      swap1\n      dup2\n      mstore\n      0x20\n      add\n      0x00\n      keccak256\n        /* \"twitter project/twitter.sol\":3201:3233  operators[msg.sender][_operator] */\n      0x00\n        /* \"twitter project/twitter.sol\":3223:3232  _operator */\n      dup4\n        /* \"twitter project/twitter.sol\":3201:3233  operators[msg.sender][_operator] */\n      0xffffffffffffffffffffffffffffffffffffffff\n      and\n      0xffffffffffffffffffffffffffffffffffffffff\n      and\n      dup2\n      mstore\n      0x20\n      add\n      swap1\n      dup2\n      mstore\n      0x20\n      add\n      0x00\n      keccak256\n      0x00\n        /* \"twitter project/twitter.sol\":3201:3240  operators[msg.sender][_operator] = true */\n      0x0100\n      exp\n      dup2\n      sload\n      dup2\n      0xff\n      mul\n      not\n      and\n      swap1\n      dup4\n      iszero\n      iszero\n      mul\n      or\n      swap1\n      sstore\n      pop\n        /* \"twitter project/twitter.sol\":3287:3296  _operator */\n      dup1\n        /* \"twitter project/twitter.sol\":3256:3297  OperatorAuthorized(msg.sender, _operator) */\n      0xffffffffffffffffffffffffffffffffffffffff\n      and\n        /* \"twitter project/twitter.sol\":3275:3285  msg.sender */\n      caller\n        /* \"twitter project/twitter.sol\":3256:3297  OperatorAuthorized(msg.sender, _operator) */\n      0xffffffffffffffffffffffffffffffffffffffff\n      and\n      0x4d8c877a9def059a7322c328d7394f8640d101d29c811e10268b9b6125e90253\n      mload(0x40)\n      mload(0x40)\n      dup1\n      swap2\n      sub\n      swap1\n      log3\n        /* \"twitter project/twitter.sol\":3137:3305  function authorizeOperator(address _operator) public {... */\n      pop\n      jump\t// out\n        /* \"twitter project/twitter.sol\":406:448  mapping(address => uint[]) public tweetsOf */\n    tag_56:\n      mstore(0x20, 0x01)\n      dup2\n      0x00\n      mstore\n      keccak256(0x00, 0x40)\n      dup2\n      dup2\n      sload\n      dup2\n      lt\n      tag_127\n      jumpi\n      0x00\n      dup1\n      revert\n    tag_127:\n      swap1\n      0x00\n      mstore\n      keccak256(0x00, 0x20)\n      add\n      0x00\n      swap2\n      pop\n      swap2\n      pop\n      pop\n      sload\n      dup2\n      jump\t// out\n        /* \"twitter project/twitter.sol\":2702:2825  function sendMessage(string memory _content, address _to) public {... */\n    tag_62:\n        /* \"twitter project/twitter.sol\":2778:2817  _sendMessage(msg.sender, _to, _content) */\n      tag_130\n        /* \"twitter project/twitter.sol\":2791:2801  msg.sender */\n      caller\n        /* \"twitter project/twitter.sol\":2803:2806  _to */\n      dup3\n        /* \"twitter project/twitter.sol\":2808:2816  _content */\n      dup5\n        /* \"twitter project/twitter.sol\":2778:2790  _sendMessage */\n      tag_131\n        /* \"twitter project/twitter.sol\":2778:2817  _sendMessage(msg.sender, _to, _content) */\n      jump\t// in\n    tag_130:\n        /* \"twitter project/twitter.sol\":2702:2825  function sendMessage(string memory _content, address _to) public {... */\n      pop\n      pop\n      jump\t// out\n        /* \"twitter project/twitter.sol\":3915:4324  function getLatestTweetsOf(address user, uint count) public view returns (Tweet[] memory) {... */\n    tag_65:\n        /* \"twitter project/twitter.sol\":3989:4003  Tweet[] memory */\n      0x60\n        /* \"twitter project/twitter.sol\":4016:4022  uint l */\n      0x00\n        /* \"twitter project/twitter.sol\":4025:4033  tweetsOf */\n      0x01\n        /* \"twitter project/twitter.sol\":4025:4039  tweetsOf[user] */\n      0x00\n        /* \"twitter project/twitter.sol\":4034:4038  user */\n      dup6\n        /* \"twitter project/twitter.sol\":4025:4039  tweetsOf[user] */\n      0xffffffffffffffffffffffffffffffffffffffff\n      and\n      0xffffffffffffffffffffffffffffffffffffffff\n      and\n      dup2\n      mstore\n      0x20\n      add\n      swap1\n      dup2\n      mstore\n      0x20\n      add\n      0x00\n      keccak256\n        /* \"twitter project/twitter.sol\":4025:4046  tweetsOf[user].length */\n      dup1\n      sload\n      swap1\n      pop\n        /* \"twitter project/twitter.sol\":4016:4046  uint l = tweetsOf[user].length */\n      swap1\n      pop\n        /* \"twitter project/twitter.sol\":4073:4074  0 */\n      0x00\n        /* \"twitter project/twitter.sol\":4065:4070  count */\n      dup4\n        /* \"twitter project/twitter.sol\":4065:4074  count > 0 */\n      gt\n        /* \"twitter project/twitter.sol\":4065:4088  count > 0 && count <= l */\n      dup1\n      iszero\n      tag_133\n      jumpi\n      pop\n        /* \"twitter project/twitter.sol\":4087:4088  l */\n      dup1\n        /* \"twitter project/twitter.sol\":4078:4083  count */\n      dup4\n        /* \"twitter project/twitter.sol\":4078:4088  count <= l */\n      gt\n      iszero\n        /* \"twitter project/twitter.sol\":4065:4088  count > 0 && count <= l */\n    tag_133:\n        /* \"twitter project/twitter.sol\":4057:4106  require(count > 0 && count <= l, \"Invalid count\") */\n      tag_134\n      jumpi\n      mload(0x40)\n      0x08c379a000000000000000000000000000000000000000000000000000000000\n      dup2\n      mstore\n      0x04\n      add\n      tag_135\n      swap1\n      tag_102\n      jump\t// in\n    tag_135:\n      mload(0x40)\n      dup1\n      swap2\n      sub\n      swap1\n      revert\n    tag_134:\n        /* \"twitter project/twitter.sol\":4119:4144  Tweet[] memory userTweets */\n      0x00\n        /* \"twitter project/twitter.sol\":4159:4164  count */\n      dup4\n        /* \"twitter project/twitter.sol\":4147:4165  new Tweet[](count) */\n      0xffffffffffffffff\n      dup2\n      gt\n      iszero\n      tag_136\n      jumpi\n      tag_137\n      tag_105\n      jump\t// in\n    tag_137:\n    tag_136:\n      mload(0x40)\n      swap1\n      dup1\n      dup3\n      mstore\n      dup1\n      0x20\n      mul\n      0x20\n      add\n      dup3\n      add\n      0x40\n      mstore\n      dup1\n      iszero\n      tag_138\n      jumpi\n      dup2\n      0x20\n      add\n    tag_139:\n      tag_140\n      tag_109\n      jump\t// in\n    tag_140:\n      dup2\n      mstore\n      0x20\n      add\n      swap1\n      0x01\n      swap1\n      sub\n      swap1\n      dup2\n      tag_139\n      jumpi\n      swap1\n      pop\n    tag_138:\n      pop\n        /* \"twitter project/twitter.sol\":4119:4165  Tweet[] memory userTweets = new Tweet[](count) */\n      swap1\n      pop\n        /* \"twitter project/twitter.sol\":4181:4187  uint i */\n      0x00\n        /* \"twitter project/twitter.sol\":4176:4289  for (uint i = 0; i < count; i++) {... */\n    tag_141:\n        /* \"twitter project/twitter.sol\":4197:4202  count */\n      dup5\n        /* \"twitter project/twitter.sol\":4193:4194  i */\n      dup2\n        /* \"twitter project/twitter.sol\":4193:4202  i < count */\n      lt\n        /* \"twitter project/twitter.sol\":4176:4289  for (uint i = 0; i < count; i++) {... */\n      iszero\n      tag_142\n      jumpi\n        /* \"twitter project/twitter.sol\":4240:4246  tweets */\n      0x00\n        /* \"twitter project/twitter.sol\":4240:4277  tweets[tweetsOf[user][l - count + i]] */\n      dup1\n        /* \"twitter project/twitter.sol\":4247:4255  tweetsOf */\n      0x01\n        /* \"twitter project/twitter.sol\":4247:4261  tweetsOf[user] */\n      0x00\n        /* \"twitter project/twitter.sol\":4256:4260  user */\n      dup10\n        /* \"twitter project/twitter.sol\":4247:4261  tweetsOf[user] */\n      0xffffffffffffffffffffffffffffffffffffffff\n      and\n      0xffffffffffffffffffffffffffffffffffffffff\n      and\n      dup2\n      mstore\n      0x20\n      add\n      swap1\n      dup2\n      mstore\n      0x20\n      add\n      0x00\n      keccak256\n        /* \"twitter project/twitter.sol\":4274:4275  i */\n      dup4\n        /* \"twitter project/twitter.sol\":4266:4271  count */\n      dup9\n        /* \"twitter project/twitter.sol\":4262:4263  l */\n      dup8\n        /* \"twitter project/twitter.sol\":4262:4271  l - count */\n      tag_144\n      swap2\n      swap1\n      tag_99\n      jump\t// in\n    tag_144:\n        /* \"twitter project/twitter.sol\":4262:4275  l - count + i */\n      tag_145\n      swap2\n      swap1\n      tag_146\n      jump\t// in\n    tag_145:\n        /* \"twitter project/twitter.sol\":4247:4276  tweetsOf[user][l - count + i] */\n      dup2\n      sload\n      dup2\n      lt\n      tag_147\n      jumpi\n      tag_148\n      tag_121\n      jump\t// in\n    tag_148:\n    tag_147:\n      swap1\n      0x00\n      mstore\n      keccak256(0x00, 0x20)\n      add\n      sload\n        /* \"twitter project/twitter.sol\":4240:4277  tweets[tweetsOf[user][l - count + i]] */\n      dup2\n      mstore\n      0x20\n      add\n      swap1\n      dup2\n      mstore\n      0x20\n      add\n      0x00\n      keccak256\n        /* \"twitter project/twitter.sol\":4224:4277  userTweets[i] = tweets[tweetsOf[user][l - count + i]] */\n      mload(0x40)\n      dup1\n      0x80\n      add\n      0x40\n      mstore\n      swap1\n      dup2\n      0x00\n      dup3\n      add\n      sload\n      dup2\n      mstore\n      0x20\n      add\n      0x01\n      dup3\n      add\n      0x00\n      swap1\n      sload\n      swap1\n      0x0100\n      exp\n      swap1\n      div\n      0xffffffffffffffffffffffffffffffffffffffff\n      and\n      0xffffffffffffffffffffffffffffffffffffffff\n      and\n      0xffffffffffffffffffffffffffffffffffffffff\n      and\n      dup2\n      mstore\n      0x20\n      add\n      0x02\n      dup3\n      add\n      dup1\n      sload\n      tag_150\n      swap1\n      tag_89\n      jump\t// in\n    tag_150:\n      dup1\n      0x1f\n      add\n      0x20\n      dup1\n      swap2\n      div\n      mul\n      0x20\n      add\n      mload(0x40)\n      swap1\n      dup2\n      add\n      0x40\n      mstore\n      dup1\n      swap3\n      swap2\n      swap1\n      dup2\n      dup2\n      mstore\n      0x20\n      add\n      dup3\n      dup1\n      sload\n      tag_151\n      swap1\n      tag_89\n      jump\t// in\n    tag_151:\n      dup1\n      iszero\n      tag_152\n      jumpi\n      dup1\n      0x1f\n      lt\n      tag_153\n      jumpi\n      0x0100\n      dup1\n      dup4\n      sload\n      div\n      mul\n      dup4\n      mstore\n      swap2\n      0x20\n      add\n      swap2\n      jump(tag_152)\n    tag_153:\n      dup3\n      add\n      swap2\n      swap1\n      0x00\n      mstore\n      keccak256(0x00, 0x20)\n      swap1\n    tag_154:\n      dup2\n      sload\n      dup2\n      mstore\n      swap1\n      0x01\n      add\n      swap1\n      0x20\n      add\n      dup1\n      dup4\n      gt\n      tag_154\n      jumpi\n      dup3\n      swap1\n      sub\n      0x1f\n      and\n      dup3\n      add\n      swap2\n    tag_152:\n      pop\n      pop\n      pop\n      pop\n      pop\n      dup2\n      mstore\n      0x20\n      add\n      0x03\n      dup3\n      add\n      sload\n      dup2\n      mstore\n      pop\n      pop\n        /* \"twitter project/twitter.sol\":4224:4234  userTweets */\n      dup3\n        /* \"twitter project/twitter.sol\":4235:4236  i */\n      dup3\n        /* \"twitter project/twitter.sol\":4224:4237  userTweets[i] */\n      dup2\n      mload\n      dup2\n      lt\n      tag_155\n      jumpi\n      tag_156\n      tag_121\n      jump\t// in\n    tag_156:\n    tag_155:\n      0x20\n      mul\n      0x20\n      add\n      add\n        /* \"twitter project/twitter.sol\":4224:4277  userTweets[i] = tweets[tweetsOf[user][l - count + i]] */\n      dup2\n      swap1\n      mstore\n      pop\n        /* \"twitter project/twitter.sol\":4204:4207  i++ */\n      dup1\n      dup1\n      0x01\n      add\n      swap2\n      pop\n      pop\n        /* \"twitter project/twitter.sol\":4176:4289  for (uint i = 0; i < count; i++) {... */\n      jump(tag_141)\n    tag_142:\n      pop\n        /* \"twitter project/twitter.sol\":4306:4316  userTweets */\n      dup1\n        /* \"twitter project/twitter.sol\":4299:4316  return userTweets */\n      swap3\n      pop\n      pop\n      pop\n        /* \"twitter project/twitter.sol\":3915:4324  function getLatestTweetsOf(address user, uint count) public view returns (Tweet[] memory) {... */\n      swap3\n      swap2\n      pop\n      pop\n      jump\t// out\n        /* \"twitter project/twitter.sol\":2833:2976  function sendMessageAsOperator(address _from, address _to, string memory _content) public {... */\n    tag_70:\n        /* \"twitter project/twitter.sol\":2934:2968  _sendMessage(_from, _to, _content) */\n      tag_158\n        /* \"twitter project/twitter.sol\":2947:2952  _from */\n      dup4\n        /* \"twitter project/twitter.sol\":2954:2957  _to */\n      dup4\n        /* \"twitter project/twitter.sol\":2959:2967  _content */\n      dup4\n        /* \"twitter project/twitter.sol\":2934:2946  _sendMessage */\n      tag_131\n        /* \"twitter project/twitter.sol\":2934:2968  _sendMessage(_from, _to, _content) */\n      jump\t// in\n    tag_158:\n        /* \"twitter project/twitter.sol\":2833:2976  function sendMessageAsOperator(address _from, address _to, string memory _content) public {... */\n      pop\n      pop\n      pop\n      jump\t// out\n        /* \"twitter project/twitter.sol\":363:399  mapping(uint => Tweet) public tweets */\n    tag_73:\n      mstore(0x20, 0x00)\n      dup1\n      0x00\n      mstore\n      keccak256(0x00, 0x40)\n      0x00\n      swap2\n      pop\n      swap1\n      pop\n      dup1\n      0x00\n      add\n      sload\n      swap1\n      dup1\n      0x01\n      add\n      0x00\n      swap1\n      sload\n      swap1\n      0x0100\n      exp\n      swap1\n      div\n      0xffffffffffffffffffffffffffffffffffffffff\n      and\n      swap1\n      dup1\n      0x02\n      add\n      dup1\n      sload\n      tag_159\n      swap1\n      tag_89\n      jump\t// in\n    tag_159:\n      dup1\n      0x1f\n      add\n      0x20\n      dup1\n      swap2\n      div\n      mul\n      0x20\n      add\n      mload(0x40)\n      swap1\n      dup2\n      add\n      0x40\n      mstore\n      dup1\n      swap3\n      swap2\n      swap1\n      dup2\n      dup2\n      mstore\n      0x20\n      add\n      dup3\n      dup1\n      sload\n      tag_160\n      swap1\n      tag_89\n      jump\t// in\n    tag_160:\n      dup1\n      iszero\n      tag_161\n      jumpi\n      dup1\n      0x1f\n      lt\n      tag_162\n      jumpi\n      0x0100\n      dup1\n      dup4\n      sload\n      div\n      mul\n      dup4\n      mstore\n      swap2\n      0x20\n      add\n      swap2\n      jump(tag_161)\n    tag_162:\n      dup3\n      add\n      swap2\n      swap1\n      0x00\n      mstore\n      keccak256(0x00, 0x20)\n      swap1\n    tag_163:\n      dup2\n      sload\n      dup2\n      mstore\n      swap1\n      0x01\n      add\n      swap1\n      0x20\n      add\n      dup1\n      dup4\n      gt\n      tag_163\n      jumpi\n      dup3\n      swap1\n      sub\n      0x1f\n      and\n      dup3\n      add\n      swap2\n    tag_161:\n      pop\n      pop\n      pop\n      pop\n      pop\n      swap1\n      dup1\n      0x03\n      add\n      sload\n      swap1\n      pop\n      dup5\n      jump\t// out\n        /* \"twitter project/twitter.sol\":3313:3476  function revokeOperator(address _operator) public {... */\n    tag_78:\n        /* \"twitter project/twitter.sol\":3409:3414  false */\n      0x00\n        /* \"twitter project/twitter.sol\":3374:3383  operators */\n      0x03\n        /* \"twitter project/twitter.sol\":3374:3395  operators[msg.sender] */\n      0x00\n        /* \"twitter project/twitter.sol\":3384:3394  msg.sender */\n      caller\n        /* \"twitter project/twitter.sol\":3374:3395  operators[msg.sender] */\n      0xffffffffffffffffffffffffffffffffffffffff\n      and\n      0xffffffffffffffffffffffffffffffffffffffff\n      and\n      dup2\n      mstore\n      0x20\n      add\n      swap1\n      dup2\n      mstore\n      0x20\n      add\n      0x00\n      keccak256\n        /* \"twitter project/twitter.sol\":3374:3406  operators[msg.sender][_operator] */\n      0x00\n        /* \"twitter project/twitter.sol\":3396:3405  _operator */\n      dup4\n        /* \"twitter project/twitter.sol\":3374:3406  operators[msg.sender][_operator] */\n      0xffffffffffffffffffffffffffffffffffffffff\n      and\n      0xffffffffffffffffffffffffffffffffffffffff\n      and\n      dup2\n      mstore\n      0x20\n      add\n      swap1\n      dup2\n      mstore\n      0x20\n      add\n      0x00\n      keccak256\n      0x00\n        /* \"twitter project/twitter.sol\":3374:3414  operators[msg.sender][_operator] = false */\n      0x0100\n      exp\n      dup2\n      sload\n      dup2\n      0xff\n      mul\n      not\n      and\n      swap1\n      dup4\n      iszero\n      iszero\n      mul\n      or\n      swap1\n      sstore\n      pop\n        /* \"twitter project/twitter.sol\":3458:3467  _operator */\n      dup1\n        /* \"twitter project/twitter.sol\":3430:3468  OperatorRevoked(msg.sender, _operator) */\n      0xffffffffffffffffffffffffffffffffffffffff\n      and\n        /* \"twitter project/twitter.sol\":3446:3456  msg.sender */\n      caller\n        /* \"twitter project/twitter.sol\":3430:3468  OperatorRevoked(msg.sender, _operator) */\n      0xffffffffffffffffffffffffffffffffffffffff\n      and\n      0xa8082fae8d1bd57faeb4dde45721b46afb72c45e72e5deb2a355bd997f6251a9\n      mload(0x40)\n      mload(0x40)\n      dup1\n      swap2\n      sub\n      swap1\n      log3\n        /* \"twitter project/twitter.sol\":3313:3476  function revokeOperator(address _operator) public {... */\n      pop\n      jump\t// out\n        /* \"twitter project/twitter.sol\":2480:2573  function tweet(string memory _content) public {... */\n    tag_82:\n        /* \"twitter project/twitter.sol\":2537:2565  _tweet(msg.sender, _content) */\n      tag_166\n        /* \"twitter project/twitter.sol\":2544:2554  msg.sender */\n      caller\n        /* \"twitter project/twitter.sol\":2556:2564  _content */\n      dup3\n        /* \"twitter project/twitter.sol\":2537:2543  _tweet */\n      tag_85\n        /* \"twitter project/twitter.sol\":2537:2565  _tweet(msg.sender, _content) */\n      jump\t// in\n    tag_166:\n        /* \"twitter project/twitter.sol\":2480:2573  function tweet(string memory _content) public {... */\n      pop\n      jump\t// out\n        /* \"twitter project/twitter.sol\":1397:1906  function _tweet(address _from, string memory _content) internal onlyUserOperator(_from) {... */\n    tag_85:\n        /* \"twitter project/twitter.sol\":1478:1483  _from */\n      dup2\n        /* \"twitter project/twitter.sol\":1274:1284  msg.sender */\n      caller\n        /* \"twitter project/twitter.sol\":1262:1284  _address == msg.sender */\n      0xffffffffffffffffffffffffffffffffffffffff\n      and\n        /* \"twitter project/twitter.sol\":1262:1270  _address */\n      dup2\n        /* \"twitter project/twitter.sol\":1262:1284  _address == msg.sender */\n      0xffffffffffffffffffffffffffffffffffffffff\n      and\n      eq\n        /* \"twitter project/twitter.sol\":1262:1319  _address == msg.sender || operators[_address][msg.sender] */\n      dup1\n      tag_168\n      jumpi\n      pop\n        /* \"twitter project/twitter.sol\":1288:1297  operators */\n      0x03\n        /* \"twitter project/twitter.sol\":1288:1307  operators[_address] */\n      0x00\n        /* \"twitter project/twitter.sol\":1298:1306  _address */\n      dup3\n        /* \"twitter project/twitter.sol\":1288:1307  operators[_address] */\n      0xffffffffffffffffffffffffffffffffffffffff\n      and\n      0xffffffffffffffffffffffffffffffffffffffff\n      and\n      dup2\n      mstore\n      0x20\n      add\n      swap1\n      dup2\n      mstore\n      0x20\n      add\n      0x00\n      keccak256\n        /* \"twitter project/twitter.sol\":1288:1319  operators[_address][msg.sender] */\n      0x00\n        /* \"twitter project/twitter.sol\":1308:1318  msg.sender */\n      caller\n        /* \"twitter project/twitter.sol\":1288:1319  operators[_address][msg.sender] */\n      0xffffffffffffffffffffffffffffffffffffffff\n      and\n      0xffffffffffffffffffffffffffffffffffffffff\n      and\n      dup2\n      mstore\n      0x20\n      add\n      swap1\n      dup2\n      mstore\n      0x20\n      add\n      0x00\n      keccak256\n      0x00\n      swap1\n      sload\n      swap1\n      0x0100\n      exp\n      swap1\n      div\n      0xff\n      and\n        /* \"twitter project/twitter.sol\":1262:1319  _address == msg.sender || operators[_address][msg.sender] */\n    tag_168:\n        /* \"twitter project/twitter.sol\":1240:1369  require(... */\n      tag_169\n      jumpi\n      mload(0x40)\n      0x08c379a000000000000000000000000000000000000000000000000000000000\n      dup2\n      mstore\n      0x04\n      add\n      tag_170\n      swap1\n      tag_171\n      jump\t// in\n    tag_170:\n      mload(0x40)\n      dup1\n      swap2\n      sub\n      swap1\n      revert\n    tag_169:\n        /* \"twitter project/twitter.sol\":1529:1530  0 */\n      0x00\n        /* \"twitter project/twitter.sol\":1510:1518  _content */\n      dup3\n        /* \"twitter project/twitter.sol\":1504:1526  bytes(_content).length */\n      mload\n        /* \"twitter project/twitter.sol\":1504:1530  bytes(_content).length > 0 */\n      gt\n        /* \"twitter project/twitter.sol\":1496:1564  require(bytes(_content).length > 0, \"Tweet content cannot be empty\") */\n      tag_173\n      jumpi\n      mload(0x40)\n      0x08c379a000000000000000000000000000000000000000000000000000000000\n      dup2\n      mstore\n      0x04\n      add\n      tag_174\n      swap1\n      tag_175\n      jump\t// in\n    tag_174:\n      mload(0x40)\n      dup1\n      swap2\n      sub\n      swap1\n      revert\n    tag_173:\n        /* \"twitter project/twitter.sol\":1599:1751  Tweet({... */\n      mload(0x40)\n      dup1\n      0x80\n      add\n      0x40\n      mstore\n      dup1\n        /* \"twitter project/twitter.sol\":1624:1635  nextTweetId */\n      sload(0x05)\n        /* \"twitter project/twitter.sol\":1599:1751  Tweet({... */\n      dup2\n      mstore\n      0x20\n      add\n        /* \"twitter project/twitter.sol\":1690:1695  _from */\n      dup5\n        /* \"twitter project/twitter.sol\":1599:1751  Tweet({... */\n      0xffffffffffffffffffffffffffffffffffffffff\n      and\n      dup2\n      mstore\n      0x20\n      add\n        /* \"twitter project/twitter.sol\":1659:1667  _content */\n      dup4\n        /* \"twitter project/twitter.sol\":1599:1751  Tweet({... */\n      dup2\n      mstore\n      0x20\n      add\n        /* \"twitter project/twitter.sol\":1724:1739  block.timestamp */\n      timestamp\n        /* \"twitter project/twitter.sol\":1599:1751  Tweet({... */\n      dup2\n      mstore\n      pop\n        /* \"twitter project/twitter.sol\":1577:1583  tweets */\n      0x00\n        /* \"twitter project/twitter.sol\":1577:1596  tweets[nextTweetId] */\n      dup1\n        /* \"twitter project/twitter.sol\":1584:1595  nextTweetId */\n      sload(0x05)\n        /* \"twitter project/twitter.sol\":1577:1596  tweets[nextTweetId] */\n      dup2\n      mstore\n      0x20\n      add\n      swap1\n      dup2\n      mstore\n      0x20\n      add\n      0x00\n      keccak256\n        /* \"twitter project/twitter.sol\":1577:1751  tweets[nextTweetId] = Tweet({... */\n      0x00\n      dup3\n      add\n      mload\n      dup2\n      0x00\n      add\n      sstore\n      0x20\n      dup3\n      add\n      mload\n      dup2\n      0x01\n      add\n      exp(0x0100, 0x00)\n      dup2\n      sload\n      dup2\n      0xffffffffffffffffffffffffffffffffffffffff\n      mul\n      not\n      and\n      swap1\n      dup4\n      0xffffffffffffffffffffffffffffffffffffffff\n      and\n      mul\n      or\n      swap1\n      sstore\n      pop\n      0x40\n      dup3\n      add\n      mload\n      dup2\n      0x02\n      add\n      swap1\n      dup2\n      tag_176\n      swap2\n      swap1\n      tag_177\n      jump\t// in\n    tag_176:\n      pop\n      0x60\n      dup3\n      add\n      mload\n      dup2\n      0x03\n      add\n      sstore\n      swap1\n      pop\n      pop\n        /* \"twitter project/twitter.sol\":1764:1772  tweetsOf */\n      0x01\n        /* \"twitter project/twitter.sol\":1764:1779  tweetsOf[_from] */\n      0x00\n        /* \"twitter project/twitter.sol\":1773:1778  _from */\n      dup5\n        /* \"twitter project/twitter.sol\":1764:1779  tweetsOf[_from] */\n      0xffffffffffffffffffffffffffffffffffffffff\n      and\n      0xffffffffffffffffffffffffffffffffffffffff\n      and\n      dup2\n      mstore\n      0x20\n      add\n      swap1\n      dup2\n      mstore\n      0x20\n      add\n      0x00\n      keccak256\n        /* \"twitter project/twitter.sol\":1785:1796  nextTweetId */\n      sload(0x05)\n        /* \"twitter project/twitter.sol\":1764:1797  tweetsOf[_from].push(nextTweetId) */\n      swap1\n      dup1\n      0x01\n      dup2\n      sload\n      add\n      dup1\n      dup3\n      sstore\n      dup1\n      swap2\n      pop\n      pop\n      0x01\n      swap1\n      sub\n      swap1\n      0x00\n      mstore\n      keccak256(0x00, 0x20)\n      add\n      0x00\n      swap1\n      swap2\n      swap1\n      swap2\n      swap1\n      swap2\n      pop\n      sstore\n        /* \"twitter project/twitter.sol\":1839:1844  _from */\n      dup3\n        /* \"twitter project/twitter.sol\":1813:1872  TweetCreated(nextTweetId, _from, _content, block.timestamp) */\n      0xffffffffffffffffffffffffffffffffffffffff\n      and\n        /* \"twitter project/twitter.sol\":1826:1837  nextTweetId */\n      sload(0x05)\n        /* \"twitter project/twitter.sol\":1813:1872  TweetCreated(nextTweetId, _from, _content, block.timestamp) */\n      0x16fd3c13e9d46923e0a8bce11c7b473ec508a72e6c96cd2404b29ce972afc29e\n        /* \"twitter project/twitter.sol\":1846:1854  _content */\n      dup5\n        /* \"twitter project/twitter.sol\":1856:1871  block.timestamp */\n      timestamp\n        /* \"twitter project/twitter.sol\":1813:1872  TweetCreated(nextTweetId, _from, _content, block.timestamp) */\n      mload(0x40)\n      tag_179\n      swap3\n      swap2\n      swap1\n      tag_180\n      jump\t// in\n    tag_179:\n      mload(0x40)\n      dup1\n      swap2\n      sub\n      swap1\n      log3\n        /* \"twitter project/twitter.sol\":1885:1896  nextTweetId */\n      0x05\n      0x00\n        /* \"twitter project/twitter.sol\":1885:1898  nextTweetId++ */\n      dup2\n      sload\n      dup1\n      swap3\n      swap2\n      swap1\n      tag_181\n      swap1\n      tag_123\n      jump\t// in\n    tag_181:\n      swap2\n      swap1\n      pop\n      sstore\n      pop\n        /* \"twitter project/twitter.sol\":1397:1906  function _tweet(address _from, string memory _content) internal onlyUserOperator(_from) {... */\n      pop\n      pop\n      pop\n      jump\t// out\n        /* \"twitter project/twitter.sol\":1914:2445  function _sendMessage(address _from, address _to, string memory _content) internal onlyUserOperator(_from) {... */\n    tag_131:\n        /* \"twitter project/twitter.sol\":2014:2019  _from */\n      dup3\n        /* \"twitter project/twitter.sol\":1274:1284  msg.sender */\n      caller\n        /* \"twitter project/twitter.sol\":1262:1284  _address == msg.sender */\n      0xffffffffffffffffffffffffffffffffffffffff\n      and\n        /* \"twitter project/twitter.sol\":1262:1270  _address */\n      dup2\n        /* \"twitter project/twitter.sol\":1262:1284  _address == msg.sender */\n      0xffffffffffffffffffffffffffffffffffffffff\n      and\n      eq\n        /* \"twitter project/twitter.sol\":1262:1319  _address == msg.sender || operators[_address][msg.sender] */\n      dup1\n      tag_183\n      jumpi\n      pop\n        /* \"twitter project/twitter.sol\":1288:1297  operators */\n      0x03\n        /* \"twitter project/twitter.sol\":1288:1307  operators[_address] */\n      0x00\n        /* \"twitter project/twitter.sol\":1298:1306  _address */\n      dup3\n        /* \"twitter project/twitter.sol\":1288:1307  operators[_address] */\n      0xffffffffffffffffffffffffffffffffffffffff\n      and\n      0xffffffffffffffffffffffffffffffffffffffff\n      and\n      dup2\n      mstore\n      0x20\n      add\n      swap1\n      dup2\n      mstore\n      0x20\n      add\n      0x00\n      keccak256\n        /* \"twitter project/twitter.sol\":1288:1319  operators[_address][msg.sender] */\n      0x00\n        /* \"twitter project/twitter.sol\":1308:1318  msg.sender */\n      caller\n        /* \"twitter project/twitter.sol\":1288:1319  operators[_address][msg.sender] */\n      0xffffffffffffffffffffffffffffffffffffffff\n      and\n      0xffffffffffffffffffffffffffffffffffffffff\n      and\n      dup2\n      mstore\n      0x20\n      add\n      swap1\n      dup2\n      mstore\n      0x20\n      add\n      0x00\n      keccak256\n      0x00\n      swap1\n      sload\n      swap1\n      0x0100\n      exp\n      swap1\n      div\n      0xff\n      and\n        /* \"twitter project/twitter.sol\":1262:1319  _address == msg.sender || operators[_address][msg.sender] */\n    tag_183:\n        /* \"twitter project/twitter.sol\":1240:1369  require(... */\n      tag_184\n      jumpi\n      mload(0x40)\n      0x08c379a000000000000000000000000000000000000000000000000000000000\n      dup2\n      mstore\n      0x04\n      add\n      tag_185\n      swap1\n      tag_171\n      jump\t// in\n    tag_185:\n      mload(0x40)\n      dup1\n      swap2\n      sub\n      swap1\n      revert\n    tag_184:\n        /* \"twitter project/twitter.sol\":2065:2066  0 */\n      0x00\n        /* \"twitter project/twitter.sol\":2046:2054  _content */\n      dup3\n        /* \"twitter project/twitter.sol\":2040:2062  bytes(_content).length */\n      mload\n        /* \"twitter project/twitter.sol\":2040:2066  bytes(_content).length > 0 */\n      gt\n        /* \"twitter project/twitter.sol\":2032:2102  require(bytes(_content).length > 0, \"Message content cannot be empty\") */\n      tag_187\n      jumpi\n      mload(0x40)\n      0x08c379a000000000000000000000000000000000000000000000000000000000\n      dup2\n      mstore\n      0x04\n      add\n      tag_188\n      swap1\n      tag_189\n      jump\t// in\n    tag_188:\n      mload(0x40)\n      dup1\n      swap2\n      sub\n      swap1\n      revert\n    tag_187:\n        /* \"twitter project/twitter.sol\":2115:2128  conversations */\n      0x02\n        /* \"twitter project/twitter.sol\":2115:2135  conversations[_from] */\n      0x00\n        /* \"twitter project/twitter.sol\":2129:2134  _from */\n      dup6\n        /* \"twitter project/twitter.sol\":2115:2135  conversations[_from] */\n      0xffffffffffffffffffffffffffffffffffffffff\n      and\n      0xffffffffffffffffffffffffffffffffffffffff\n      and\n      dup2\n      mstore\n      0x20\n      add\n      swap1\n      dup2\n      mstore\n      0x20\n      add\n      0x00\n      keccak256\n        /* \"twitter project/twitter.sol\":2141:2325  Message({... */\n      mload(0x40)\n      dup1\n      0xa0\n      add\n      0x40\n      mstore\n      dup1\n        /* \"twitter project/twitter.sol\":2168:2181  nextMessageId */\n      sload(0x06)\n        /* \"twitter project/twitter.sol\":2141:2325  Message({... */\n      dup2\n      mstore\n      0x20\n      add\n        /* \"twitter project/twitter.sol\":2205:2213  _content */\n      dup5\n        /* \"twitter project/twitter.sol\":2141:2325  Message({... */\n      dup2\n      mstore\n      0x20\n      add\n        /* \"twitter project/twitter.sol\":2236:2241  _from */\n      dup7\n        /* \"twitter project/twitter.sol\":2141:2325  Message({... */\n      0xffffffffffffffffffffffffffffffffffffffff\n      and\n      dup2\n      mstore\n      0x20\n      add\n        /* \"twitter project/twitter.sol\":2266:2269  _to */\n      dup6\n        /* \"twitter project/twitter.sol\":2141:2325  Message({... */\n      0xffffffffffffffffffffffffffffffffffffffff\n      and\n      dup2\n      mstore\n      0x20\n      add\n        /* \"twitter project/twitter.sol\":2298:2313  block.timestamp */\n      timestamp\n        /* \"twitter project/twitter.sol\":2141:2325  Message({... */\n      dup2\n      mstore\n      pop\n        /* \"twitter project/twitter.sol\":2115:2326  conversations[_from].push(Message({... */\n      swap1\n      dup1\n      0x01\n      dup2\n      sload\n      add\n      dup1\n      dup3\n      sstore\n      dup1\n      swap2\n      pop\n      pop\n      0x01\n      swap1\n      sub\n      swap1\n      0x00\n      mstore\n      keccak256(0x00, 0x20)\n      swap1\n      0x05\n      mul\n      add\n      0x00\n      swap1\n      swap2\n      swap1\n      swap2\n      swap1\n      swap2\n      pop\n      0x00\n      dup3\n      add\n      mload\n      dup2\n      0x00\n      add\n      sstore\n      0x20\n      dup3\n      add\n      mload\n      dup2\n      0x01\n      add\n      swap1\n      dup2\n      tag_191\n      swap2\n      swap1\n      tag_177\n      jump\t// in\n    tag_191:\n      pop\n      0x40\n      dup3\n      add\n      mload\n      dup2\n      0x02\n      add\n      exp(0x0100, 0x00)\n      dup2\n      sload\n      dup2\n      0xffffffffffffffffffffffffffffffffffffffff\n      mul\n      not\n      and\n      swap1\n      dup4\n      0xffffffffffffffffffffffffffffffffffffffff\n      and\n      mul\n      or\n      swap1\n      sstore\n      pop\n      0x60\n      dup3\n      add\n      mload\n      dup2\n      0x03\n      add\n      exp(0x0100, 0x00)\n      dup2\n      sload\n      dup2\n      0xffffffffffffffffffffffffffffffffffffffff\n      mul\n      not\n      and\n      swap1\n      dup4\n      0xffffffffffffffffffffffffffffffffffffffff\n      and\n      mul\n      or\n      swap1\n      sstore\n      pop\n      0x80\n      dup3\n      add\n      mload\n      dup2\n      0x04\n      add\n      sstore\n      pop\n      pop\n        /* \"twitter project/twitter.sol\":2378:2381  _to */\n      dup3\n        /* \"twitter project/twitter.sol\":2344:2409  MessageSent(nextMessageId, _from, _to, _content, block.timestamp) */\n      0xffffffffffffffffffffffffffffffffffffffff\n      and\n        /* \"twitter project/twitter.sol\":2371:2376  _from */\n      dup5\n        /* \"twitter project/twitter.sol\":2344:2409  MessageSent(nextMessageId, _from, _to, _content, block.timestamp) */\n      0xffffffffffffffffffffffffffffffffffffffff\n      and\n        /* \"twitter project/twitter.sol\":2356:2369  nextMessageId */\n      sload(0x06)\n        /* \"twitter project/twitter.sol\":2344:2409  MessageSent(nextMessageId, _from, _to, _content, block.timestamp) */\n      0x94d6e4822f4adcde26d85197d96befa68dced8d7db67685000cfc97783260da4\n        /* \"twitter project/twitter.sol\":2383:2391  _content */\n      dup6\n        /* \"twitter project/twitter.sol\":2393:2408  block.timestamp */\n      timestamp\n        /* \"twitter project/twitter.sol\":2344:2409  MessageSent(nextMessageId, _from, _to, _content, block.timestamp) */\n      mload(0x40)\n      tag_192\n      swap3\n      swap2\n      swap1\n      tag_180\n      jump\t// in\n    tag_192:\n      mload(0x40)\n      dup1\n      swap2\n      sub\n      swap1\n      log4\n        /* \"twitter project/twitter.sol\":2422:2435  nextMessageId */\n      0x06\n      0x00\n        /* \"twitter project/twitter.sol\":2422:2437  nextMessageId++ */\n      dup2\n      sload\n      dup1\n      swap3\n      swap2\n      swap1\n      tag_193\n      swap1\n      tag_123\n      jump\t// in\n    tag_193:\n      swap2\n      swap1\n      pop\n      sstore\n      pop\n        /* \"twitter project/twitter.sol\":1914:2445  function _sendMessage(address _from, address _to, string memory _content) internal onlyUserOperator(_from) {... */\n      pop\n      pop\n      pop\n      pop\n      jump\t// out\n    tag_109:\n      mload(0x40)\n      dup1\n      0x80\n      add\n      0x40\n      mstore\n      dup1\n      0x00\n      dup2\n      mstore\n      0x20\n      add\n      and(0xffffffffffffffffffffffffffffffffffffffff, 0x00)\n      dup2\n      mstore\n      0x20\n      add\n      0x60\n      dup2\n      mstore\n      0x20\n      add\n      0x00\n      dup2\n      mstore\n      pop\n      swap1\n      jump\t// out\n        /* \"#utility.yul\":7:82   */\n    tag_194:\n        /* \"#utility.yul\":40:46   */\n      0x00\n        /* \"#utility.yul\":73:75   */\n      0x40\n        /* \"#utility.yul\":67:76   */\n      mload\n        /* \"#utility.yul\":57:76   */\n      swap1\n      pop\n        /* \"#utility.yul\":7:82   */\n      swap1\n      jump\t// out\n        /* \"#utility.yul\":88:205   */\n    tag_195:\n        /* \"#utility.yul\":197:198   */\n      0x00\n        /* \"#utility.yul\":194:195   */\n      dup1\n        /* \"#utility.yul\":187:199   */\n      revert\n        /* \"#utility.yul\":211:328   */\n    tag_196:\n        /* \"#utility.yul\":320:321   */\n      0x00\n        /* \"#utility.yul\":317:318   */\n      dup1\n        /* \"#utility.yul\":310:322   */\n      revert\n        /* \"#utility.yul\":334:460   */\n    tag_197:\n        /* \"#utility.yul\":371:378   */\n      0x00\n        /* \"#utility.yul\":411:453   */\n      0xffffffffffffffffffffffffffffffffffffffff\n        /* \"#utility.yul\":404:409   */\n      dup3\n        /* \"#utility.yul\":400:454   */\n      and\n        /* \"#utility.yul\":389:454   */\n      swap1\n      pop\n        /* \"#utility.yul\":334:460   */\n      swap2\n      swap1\n      pop\n      jump\t// out\n        /* \"#utility.yul\":466:562   */\n    tag_198:\n        /* \"#utility.yul\":503:510   */\n      0x00\n        /* \"#utility.yul\":532:556   */\n      tag_263\n        /* \"#utility.yul\":550:555   */\n      dup3\n        /* \"#utility.yul\":532:556   */\n      tag_197\n      jump\t// in\n    tag_263:\n        /* \"#utility.yul\":521:556   */\n      swap1\n      pop\n        /* \"#utility.yul\":466:562   */\n      swap2\n      swap1\n      pop\n      jump\t// out\n        /* \"#utility.yul\":568:690   */\n    tag_199:\n        /* \"#utility.yul\":641:665   */\n      tag_265\n        /* \"#utility.yul\":659:664   */\n      dup2\n        /* \"#utility.yul\":641:665   */\n      tag_198\n      jump\t// in\n    tag_265:\n        /* \"#utility.yul\":634:639   */\n      dup2\n        /* \"#utility.yul\":631:666   */\n      eq\n        /* \"#utility.yul\":621:684   */\n      tag_266\n      jumpi\n        /* \"#utility.yul\":680:681   */\n      0x00\n        /* \"#utility.yul\":677:678   */\n      dup1\n        /* \"#utility.yul\":670:682   */\n      revert\n        /* \"#utility.yul\":621:684   */\n    tag_266:\n        /* \"#utility.yul\":568:690   */\n      pop\n      jump\t// out\n        /* \"#utility.yul\":696:835   */\n    tag_200:\n        /* \"#utility.yul\":742:747   */\n      0x00\n        /* \"#utility.yul\":780:786   */\n      dup2\n        /* \"#utility.yul\":767:787   */\n      calldataload\n        /* \"#utility.yul\":758:787   */\n      swap1\n      pop\n        /* \"#utility.yul\":796:829   */\n      tag_268\n        /* \"#utility.yul\":823:828   */\n      dup2\n        /* \"#utility.yul\":796:829   */\n      tag_199\n      jump\t// in\n    tag_268:\n        /* \"#utility.yul\":696:835   */\n      swap3\n      swap2\n      pop\n      pop\n      jump\t// out\n        /* \"#utility.yul\":841:1315   */\n    tag_22:\n        /* \"#utility.yul\":909:915   */\n      0x00\n        /* \"#utility.yul\":917:923   */\n      dup1\n        /* \"#utility.yul\":966:968   */\n      0x40\n        /* \"#utility.yul\":954:963   */\n      dup4\n        /* \"#utility.yul\":945:952   */\n      dup6\n        /* \"#utility.yul\":941:964   */\n      sub\n        /* \"#utility.yul\":937:969   */\n      slt\n        /* \"#utility.yul\":934:1053   */\n      iszero\n      tag_270\n      jumpi\n        /* \"#utility.yul\":972:1051   */\n      tag_271\n      tag_195\n      jump\t// in\n    tag_271:\n        /* \"#utility.yul\":934:1053   */\n    tag_270:\n        /* \"#utility.yul\":1092:1093   */\n      0x00\n        /* \"#utility.yul\":1117:1170   */\n      tag_272\n        /* \"#utility.yul\":1162:1169   */\n      dup6\n        /* \"#utility.yul\":1153:1159   */\n      dup3\n        /* \"#utility.yul\":1142:1151   */\n      dup7\n        /* \"#utility.yul\":1138:1160   */\n      add\n        /* \"#utility.yul\":1117:1170   */\n      tag_200\n      jump\t// in\n    tag_272:\n        /* \"#utility.yul\":1107:1170   */\n      swap3\n      pop\n        /* \"#utility.yul\":1063:1180   */\n      pop\n        /* \"#utility.yul\":1219:1221   */\n      0x20\n        /* \"#utility.yul\":1245:1298   */\n      tag_273\n        /* \"#utility.yul\":1290:1297   */\n      dup6\n        /* \"#utility.yul\":1281:1287   */\n      dup3\n        /* \"#utility.yul\":1270:1279   */\n      dup7\n        /* \"#utility.yul\":1266:1288   */\n      add\n        /* \"#utility.yul\":1245:1298   */\n      tag_200\n      jump\t// in\n    tag_273:\n        /* \"#utility.yul\":1235:1298   */\n      swap2\n      pop\n        /* \"#utility.yul\":1190:1308   */\n      pop\n        /* \"#utility.yul\":841:1315   */\n      swap3\n      pop\n      swap3\n      swap1\n      pop\n      jump\t// out\n        /* \"#utility.yul\":1321:1411   */\n    tag_201:\n        /* \"#utility.yul\":1355:1362   */\n      0x00\n        /* \"#utility.yul\":1398:1403   */\n      dup2\n        /* \"#utility.yul\":1391:1404   */\n      iszero\n        /* \"#utility.yul\":1384:1405   */\n      iszero\n        /* \"#utility.yul\":1373:1405   */\n      swap1\n      pop\n        /* \"#utility.yul\":1321:1411   */\n      swap2\n      swap1\n      pop\n      jump\t// out\n        /* \"#utility.yul\":1417:1526   */\n    tag_202:\n        /* \"#utility.yul\":1498:1519   */\n      tag_276\n        /* \"#utility.yul\":1513:1518   */\n      dup2\n        /* \"#utility.yul\":1498:1519   */\n      tag_201\n      jump\t// in\n    tag_276:\n        /* \"#utility.yul\":1493:1496   */\n      dup3\n        /* \"#utility.yul\":1486:1520   */\n      mstore\n        /* \"#utility.yul\":1417:1526   */\n      pop\n      pop\n      jump\t// out\n        /* \"#utility.yul\":1532:1742   */\n    tag_25:\n        /* \"#utility.yul\":1619:1623   */\n      0x00\n        /* \"#utility.yul\":1657:1659   */\n      0x20\n        /* \"#utility.yul\":1646:1655   */\n      dup3\n        /* \"#utility.yul\":1642:1660   */\n      add\n        /* \"#utility.yul\":1634:1660   */\n      swap1\n      pop\n        /* \"#utility.yul\":1670:1735   */\n      tag_278\n        /* \"#utility.yul\":1732:1733   */\n      0x00\n        /* \"#utility.yul\":1721:1730   */\n      dup4\n        /* \"#utility.yul\":1717:1734   */\n      add\n        /* \"#utility.yul\":1708:1714   */\n      dup5\n        /* \"#utility.yul\":1670:1735   */\n      tag_202\n      jump\t// in\n    tag_278:\n        /* \"#utility.yul\":1532:1742   */\n      swap3\n      swap2\n      pop\n      pop\n      jump\t// out\n        /* \"#utility.yul\":1748:1865   */\n    tag_203:\n        /* \"#utility.yul\":1857:1858   */\n      0x00\n        /* \"#utility.yul\":1854:1855   */\n      dup1\n        /* \"#utility.yul\":1847:1859   */\n      revert\n        /* \"#utility.yul\":1871:1988   */\n    tag_204:\n        /* \"#utility.yul\":1980:1981   */\n      0x00\n        /* \"#utility.yul\":1977:1978   */\n      dup1\n        /* \"#utility.yul\":1970:1982   */\n      revert\n        /* \"#utility.yul\":1994:2096   */\n    tag_205:\n        /* \"#utility.yul\":2035:2041   */\n      0x00\n        /* \"#utility.yul\":2086:2088   */\n      0x1f\n        /* \"#utility.yul\":2082:2089   */\n      not\n        /* \"#utility.yul\":2077:2079   */\n      0x1f\n        /* \"#utility.yul\":2070:2075   */\n      dup4\n        /* \"#utility.yul\":2066:2080   */\n      add\n        /* \"#utility.yul\":2062:2090   */\n      and\n        /* \"#utility.yul\":2052:2090   */\n      swap1\n      pop\n        /* \"#utility.yul\":1994:2096   */\n      swap2\n      swap1\n      pop\n      jump\t// out\n        /* \"#utility.yul\":2102:2282   */\n    tag_105:\n        /* \"#utility.yul\":2150:2227   */\n      0x4e487b7100000000000000000000000000000000000000000000000000000000\n        /* \"#utility.yul\":2147:2148   */\n      0x00\n        /* \"#utility.yul\":2140:2228   */\n      mstore\n        /* \"#utility.yul\":2247:2251   */\n      0x41\n        /* \"#utility.yul\":2244:2245   */\n      0x04\n        /* \"#utility.yul\":2237:2252   */\n      mstore\n        /* \"#utility.yul\":2271:2275   */\n      0x24\n        /* \"#utility.yul\":2268:2269   */\n      0x00\n        /* \"#utility.yul\":2261:2276   */\n      revert\n        /* \"#utility.yul\":2288:2569   */\n    tag_206:\n        /* \"#utility.yul\":2371:2398   */\n      tag_284\n        /* \"#utility.yul\":2393:2397   */\n      dup3\n        /* \"#utility.yul\":2371:2398   */\n      tag_205\n      jump\t// in\n    tag_284:\n        /* \"#utility.yul\":2363:2369   */\n      dup2\n        /* \"#utility.yul\":2359:2399   */\n      add\n        /* \"#utility.yul\":2501:2507   */\n      dup2\n        /* \"#utility.yul\":2489:2499   */\n      dup2\n        /* \"#utility.yul\":2486:2508   */\n      lt\n        /* \"#utility.yul\":2465:2483   */\n      0xffffffffffffffff\n        /* \"#utility.yul\":2453:2463   */\n      dup3\n        /* \"#utility.yul\":2450:2484   */\n      gt\n        /* \"#utility.yul\":2447:2509   */\n      or\n        /* \"#utility.yul\":2444:2532   */\n      iszero\n      tag_285\n      jumpi\n        /* \"#utility.yul\":2512:2530   */\n      tag_286\n      tag_105\n      jump\t// in\n    tag_286:\n        /* \"#utility.yul\":2444:2532   */\n    tag_285:\n        /* \"#utility.yul\":2552:2562   */\n      dup1\n        /* \"#utility.yul\":2548:2550   */\n      0x40\n        /* \"#utility.yul\":2541:2563   */\n      mstore\n        /* \"#utility.yul\":2331:2569   */\n      pop\n        /* \"#utility.yul\":2288:2569   */\n      pop\n      pop\n      jump\t// out\n        /* \"#utility.yul\":2575:2704   */\n    tag_207:\n        /* \"#utility.yul\":2609:2615   */\n      0x00\n        /* \"#utility.yul\":2636:2656   */\n      tag_288\n      tag_194\n      jump\t// in\n    tag_288:\n        /* \"#utility.yul\":2626:2656   */\n      swap1\n      pop\n        /* \"#utility.yul\":2665:2698   */\n      tag_289\n        /* \"#utility.yul\":2693:2697   */\n      dup3\n        /* \"#utility.yul\":2685:2691   */\n      dup3\n        /* \"#utility.yul\":2665:2698   */\n      tag_206\n      jump\t// in\n    tag_289:\n        /* \"#utility.yul\":2575:2704   */\n      swap2\n      swap1\n      pop\n      jump\t// out\n        /* \"#utility.yul\":2710:3018   */\n    tag_208:\n        /* \"#utility.yul\":2772:2776   */\n      0x00\n        /* \"#utility.yul\":2862:2880   */\n      0xffffffffffffffff\n        /* \"#utility.yul\":2854:2860   */\n      dup3\n        /* \"#utility.yul\":2851:2881   */\n      gt\n        /* \"#utility.yul\":2848:2904   */\n      iszero\n      tag_291\n      jumpi\n        /* \"#utility.yul\":2884:2902   */\n      tag_292\n      tag_105\n      jump\t// in\n    tag_292:\n        /* \"#utility.yul\":2848:2904   */\n    tag_291:\n        /* \"#utility.yul\":2922:2951   */\n      tag_293\n        /* \"#utility.yul\":2944:2950   */\n      dup3\n        /* \"#utility.yul\":2922:2951   */\n      tag_205\n      jump\t// in\n    tag_293:\n        /* \"#utility.yul\":2914:2951   */\n      swap1\n      pop\n        /* \"#utility.yul\":3006:3010   */\n      0x20\n        /* \"#utility.yul\":3000:3004   */\n      dup2\n        /* \"#utility.yul\":2996:3011   */\n      add\n        /* \"#utility.yul\":2988:3011   */\n      swap1\n      pop\n        /* \"#utility.yul\":2710:3018   */\n      swap2\n      swap1\n      pop\n      jump\t// out\n        /* \"#utility.yul\":3024:3172   */\n    tag_209:\n        /* \"#utility.yul\":3122:3128   */\n      dup3\n        /* \"#utility.yul\":3117:3120   */\n      dup2\n        /* \"#utility.yul\":3112:3115   */\n      dup4\n        /* \"#utility.yul\":3099:3129   */\n      calldatacopy\n        /* \"#utility.yul\":3163:3164   */\n      0x00\n        /* \"#utility.yul\":3154:3160   */\n      dup4\n        /* \"#utility.yul\":3149:3152   */\n      dup4\n        /* \"#utility.yul\":3145:3161   */\n      add\n        /* \"#utility.yul\":3138:3165   */\n      mstore\n        /* \"#utility.yul\":3024:3172   */\n      pop\n      pop\n      pop\n      jump\t// out\n        /* \"#utility.yul\":3178:3603   */\n    tag_210:\n        /* \"#utility.yul\":3256:3261   */\n      0x00\n        /* \"#utility.yul\":3281:3347   */\n      tag_296\n        /* \"#utility.yul\":3297:3346   */\n      tag_297\n        /* \"#utility.yul\":3339:3345   */\n      dup5\n        /* \"#utility.yul\":3297:3346   */\n      tag_208\n      jump\t// in\n    tag_297:\n        /* \"#utility.yul\":3281:3347   */\n      tag_207\n      jump\t// in\n    tag_296:\n        /* \"#utility.yul\":3272:3347   */\n      swap1\n      pop\n        /* \"#utility.yul\":3370:3376   */\n      dup3\n        /* \"#utility.yul\":3363:3368   */\n      dup2\n        /* \"#utility.yul\":3356:3377   */\n      mstore\n        /* \"#utility.yul\":3408:3412   */\n      0x20\n        /* \"#utility.yul\":3401:3406   */\n      dup2\n        /* \"#utility.yul\":3397:3413   */\n      add\n        /* \"#utility.yul\":3446:3449   */\n      dup5\n        /* \"#utility.yul\":3437:3443   */\n      dup5\n        /* \"#utility.yul\":3432:3435   */\n      dup5\n        /* \"#utility.yul\":3428:3444   */\n      add\n        /* \"#utility.yul\":3425:3450   */\n      gt\n        /* \"#utility.yul\":3422:3534   */\n      iszero\n      tag_298\n      jumpi\n        /* \"#utility.yul\":3453:3532   */\n      tag_299\n      tag_204\n      jump\t// in\n    tag_299:\n        /* \"#utility.yul\":3422:3534   */\n    tag_298:\n        /* \"#utility.yul\":3543:3597   */\n      tag_300\n        /* \"#utility.yul\":3590:3596   */\n      dup5\n        /* \"#utility.yul\":3585:3588   */\n      dup3\n        /* \"#utility.yul\":3580:3583   */\n      dup6\n        /* \"#utility.yul\":3543:3597   */\n      tag_209\n      jump\t// in\n    tag_300:\n        /* \"#utility.yul\":3262:3603   */\n      pop\n        /* \"#utility.yul\":3178:3603   */\n      swap4\n      swap3\n      pop\n      pop\n      pop\n      jump\t// out\n        /* \"#utility.yul\":3623:3963   */\n    tag_211:\n        /* \"#utility.yul\":3679:3684   */\n      0x00\n        /* \"#utility.yul\":3728:3731   */\n      dup3\n        /* \"#utility.yul\":3721:3725   */\n      0x1f\n        /* \"#utility.yul\":3713:3719   */\n      dup4\n        /* \"#utility.yul\":3709:3726   */\n      add\n        /* \"#utility.yul\":3705:3732   */\n      slt\n        /* \"#utility.yul\":3695:3817   */\n      tag_302\n      jumpi\n        /* \"#utility.yul\":3736:3815   */\n      tag_303\n      tag_203\n      jump\t// in\n    tag_303:\n        /* \"#utility.yul\":3695:3817   */\n    tag_302:\n        /* \"#utility.yul\":3853:3859   */\n      dup2\n        /* \"#utility.yul\":3840:3860   */\n      calldataload\n        /* \"#utility.yul\":3878:3957   */\n      tag_304\n        /* \"#utility.yul\":3953:3956   */\n      dup5\n        /* \"#utility.yul\":3945:3951   */\n      dup3\n        /* \"#utility.yul\":3938:3942   */\n      0x20\n        /* \"#utility.yul\":3930:3936   */\n      dup7\n        /* \"#utility.yul\":3926:3943   */\n      add\n        /* \"#utility.yul\":3878:3957   */\n      tag_210\n      jump\t// in\n    tag_304:\n        /* \"#utility.yul\":3869:3957   */\n      swap2\n      pop\n        /* \"#utility.yul\":3685:3963   */\n      pop\n        /* \"#utility.yul\":3623:3963   */\n      swap3\n      swap2\n      pop\n      pop\n      jump\t// out\n        /* \"#utility.yul\":3969:4623   */\n    tag_28:\n        /* \"#utility.yul\":4047:4053   */\n      0x00\n        /* \"#utility.yul\":4055:4061   */\n      dup1\n        /* \"#utility.yul\":4104:4106   */\n      0x40\n        /* \"#utility.yul\":4092:4101   */\n      dup4\n        /* \"#utility.yul\":4083:4090   */\n      dup6\n        /* \"#utility.yul\":4079:4102   */\n      sub\n        /* \"#utility.yul\":4075:4107   */\n      slt\n        /* \"#utility.yul\":4072:4191   */\n      iszero\n      tag_306\n      jumpi\n        /* \"#utility.yul\":4110:4189   */\n      tag_307\n      tag_195\n      jump\t// in\n    tag_307:\n        /* \"#utility.yul\":4072:4191   */\n    tag_306:\n        /* \"#utility.yul\":4230:4231   */\n      0x00\n        /* \"#utility.yul\":4255:4308   */\n      tag_308\n        /* \"#utility.yul\":4300:4307   */\n      dup6\n        /* \"#utility.yul\":4291:4297   */\n      dup3\n        /* \"#utility.yul\":4280:4289   */\n      dup7\n        /* \"#utility.yul\":4276:4298   */\n      add\n        /* \"#utility.yul\":4255:4308   */\n      tag_200\n      jump\t// in\n    tag_308:\n        /* \"#utility.yul\":4245:4308   */\n      swap3\n      pop\n        /* \"#utility.yul\":4201:4318   */\n      pop\n        /* \"#utility.yul\":4385:4387   */\n      0x20\n        /* \"#utility.yul\":4374:4383   */\n      dup4\n        /* \"#utility.yul\":4370:4388   */\n      add\n        /* \"#utility.yul\":4357:4389   */\n      calldataload\n        /* \"#utility.yul\":4416:4434   */\n      0xffffffffffffffff\n        /* \"#utility.yul\":4408:4414   */\n      dup2\n        /* \"#utility.yul\":4405:4435   */\n      gt\n        /* \"#utility.yul\":4402:4519   */\n      iszero\n      tag_309\n      jumpi\n        /* \"#utility.yul\":4438:4517   */\n      tag_310\n      tag_196\n      jump\t// in\n    tag_310:\n        /* \"#utility.yul\":4402:4519   */\n    tag_309:\n        /* \"#utility.yul\":4543:4606   */\n      tag_311\n        /* \"#utility.yul\":4598:4605   */\n      dup6\n        /* \"#utility.yul\":4589:4595   */\n      dup3\n        /* \"#utility.yul\":4578:4587   */\n      dup7\n        /* \"#utility.yul\":4574:4596   */\n      add\n        /* \"#utility.yul\":4543:4606   */\n      tag_211\n      jump\t// in\n    tag_311:\n        /* \"#utility.yul\":4533:4606   */\n      swap2\n      pop\n        /* \"#utility.yul\":4328:4616   */\n      pop\n        /* \"#utility.yul\":3969:4623   */\n      swap3\n      pop\n      swap3\n      swap1\n      pop\n      jump\t// out\n        /* \"#utility.yul\":4629:4706   */\n    tag_212:\n        /* \"#utility.yul\":4666:4673   */\n      0x00\n        /* \"#utility.yul\":4695:4700   */\n      dup2\n        /* \"#utility.yul\":4684:4700   */\n      swap1\n      pop\n        /* \"#utility.yul\":4629:4706   */\n      swap2\n      swap1\n      pop\n      jump\t// out\n        /* \"#utility.yul\":4712:4834   */\n    tag_213:\n        /* \"#utility.yul\":4785:4809   */\n      tag_314\n        /* \"#utility.yul\":4803:4808   */\n      dup2\n        /* \"#utility.yul\":4785:4809   */\n      tag_212\n      jump\t// in\n    tag_314:\n        /* \"#utility.yul\":4778:4783   */\n      dup2\n        /* \"#utility.yul\":4775:4810   */\n      eq\n        /* \"#utility.yul\":4765:4828   */\n      tag_315\n      jumpi\n        /* \"#utility.yul\":4824:4825   */\n      0x00\n        /* \"#utility.yul\":4821:4822   */\n      dup1\n        /* \"#utility.yul\":4814:4826   */\n      revert\n        /* \"#utility.yul\":4765:4828   */\n    tag_315:\n        /* \"#utility.yul\":4712:4834   */\n      pop\n      jump\t// out\n        /* \"#utility.yul\":4840:4979   */\n    tag_214:\n        /* \"#utility.yul\":4886:4891   */\n      0x00\n        /* \"#utility.yul\":4924:4930   */\n      dup2\n        /* \"#utility.yul\":4911:4931   */\n      calldataload\n        /* \"#utility.yul\":4902:4931   */\n      swap1\n      pop\n        /* \"#utility.yul\":4940:4973   */\n      tag_317\n        /* \"#utility.yul\":4967:4972   */\n      dup2\n        /* \"#utility.yul\":4940:4973   */\n      tag_213\n      jump\t// in\n    tag_317:\n        /* \"#utility.yul\":4840:4979   */\n      swap3\n      swap2\n      pop\n      pop\n      jump\t// out\n        /* \"#utility.yul\":4985:5459   */\n    tag_32:\n        /* \"#utility.yul\":5053:5059   */\n      0x00\n        /* \"#utility.yul\":5061:5067   */\n      dup1\n        /* \"#utility.yul\":5110:5112   */\n      0x40\n        /* \"#utility.yul\":5098:5107   */\n      dup4\n        /* \"#utility.yul\":5089:5096   */\n      dup6\n        /* \"#utility.yul\":5085:5108   */\n      sub\n        /* \"#utility.yul\":5081:5113   */\n      slt\n        /* \"#utility.yul\":5078:5197   */\n      iszero\n      tag_319\n      jumpi\n        /* \"#utility.yul\":5116:5195   */\n      tag_320\n      tag_195\n      jump\t// in\n    tag_320:\n        /* \"#utility.yul\":5078:5197   */\n    tag_319:\n        /* \"#utility.yul\":5236:5237   */\n      0x00\n        /* \"#utility.yul\":5261:5314   */\n      tag_321\n        /* \"#utility.yul\":5306:5313   */\n      dup6\n        /* \"#utility.yul\":5297:5303   */\n      dup3\n        /* \"#utility.yul\":5286:5295   */\n      dup7\n        /* \"#utility.yul\":5282:5304   */\n      add\n        /* \"#utility.yul\":5261:5314   */\n      tag_200\n      jump\t// in\n    tag_321:\n        /* \"#utility.yul\":5251:5314   */\n      swap3\n      pop\n        /* \"#utility.yul\":5207:5324   */\n      pop\n        /* \"#utility.yul\":5363:5365   */\n      0x20\n        /* \"#utility.yul\":5389:5442   */\n      tag_322\n        /* \"#utility.yul\":5434:5441   */\n      dup6\n        /* \"#utility.yul\":5425:5431   */\n      dup3\n        /* \"#utility.yul\":5414:5423   */\n      dup7\n        /* \"#utility.yul\":5410:5432   */\n      add\n        /* \"#utility.yul\":5389:5442   */\n      tag_214\n      jump\t// in\n    tag_322:\n        /* \"#utility.yul\":5379:5442   */\n      swap2\n      pop\n        /* \"#utility.yul\":5334:5452   */\n      pop\n        /* \"#utility.yul\":4985:5459   */\n      swap3\n      pop\n      swap3\n      swap1\n      pop\n      jump\t// out\n        /* \"#utility.yul\":5465:5583   */\n    tag_215:\n        /* \"#utility.yul\":5552:5576   */\n      tag_324\n        /* \"#utility.yul\":5570:5575   */\n      dup2\n        /* \"#utility.yul\":5552:5576   */\n      tag_212\n      jump\t// in\n    tag_324:\n        /* \"#utility.yul\":5547:5550   */\n      dup3\n        /* \"#utility.yul\":5540:5577   */\n      mstore\n        /* \"#utility.yul\":5465:5583   */\n      pop\n      pop\n      jump\t// out\n        /* \"#utility.yul\":5589:5688   */\n    tag_216:\n        /* \"#utility.yul\":5641:5647   */\n      0x00\n        /* \"#utility.yul\":5675:5680   */\n      dup2\n        /* \"#utility.yul\":5669:5681   */\n      mload\n        /* \"#utility.yul\":5659:5681   */\n      swap1\n      pop\n        /* \"#utility.yul\":5589:5688   */\n      swap2\n      swap1\n      pop\n      jump\t// out\n        /* \"#utility.yul\":5694:5863   */\n    tag_217:\n        /* \"#utility.yul\":5778:5789   */\n      0x00\n        /* \"#utility.yul\":5812:5818   */\n      dup3\n        /* \"#utility.yul\":5807:5810   */\n      dup3\n        /* \"#utility.yul\":5800:5819   */\n      mstore\n        /* \"#utility.yul\":5852:5856   */\n      0x20\n        /* \"#utility.yul\":5847:5850   */\n      dup3\n        /* \"#utility.yul\":5843:5857   */\n      add\n        /* \"#utility.yul\":5828:5857   */\n      swap1\n      pop\n        /* \"#utility.yul\":5694:5863   */\n      swap3\n      swap2\n      pop\n      pop\n      jump\t// out\n        /* \"#utility.yul\":5869:6008   */\n    tag_218:\n        /* \"#utility.yul\":5958:5964   */\n      dup3\n        /* \"#utility.yul\":5953:5956   */\n      dup2\n        /* \"#utility.yul\":5948:5951   */\n      dup4\n        /* \"#utility.yul\":5942:5965   */\n      mcopy\n        /* \"#utility.yul\":5999:6000   */\n      0x00\n        /* \"#utility.yul\":5990:5996   */\n      dup4\n        /* \"#utility.yul\":5985:5988   */\n      dup4\n        /* \"#utility.yul\":5981:5997   */\n      add\n        /* \"#utility.yul\":5974:6001   */\n      mstore\n        /* \"#utility.yul\":5869:6008   */\n      pop\n      pop\n      pop\n      jump\t// out\n        /* \"#utility.yul\":6014:6391   */\n    tag_219:\n        /* \"#utility.yul\":6102:6105   */\n      0x00\n        /* \"#utility.yul\":6130:6169   */\n      tag_329\n        /* \"#utility.yul\":6163:6168   */\n      dup3\n        /* \"#utility.yul\":6130:6169   */\n      tag_216\n      jump\t// in\n    tag_329:\n        /* \"#utility.yul\":6185:6256   */\n      tag_330\n        /* \"#utility.yul\":6249:6255   */\n      dup2\n        /* \"#utility.yul\":6244:6247   */\n      dup6\n        /* \"#utility.yul\":6185:6256   */\n      tag_217\n      jump\t// in\n    tag_330:\n        /* \"#utility.yul\":6178:6256   */\n      swap4\n      pop\n        /* \"#utility.yul\":6265:6330   */\n      tag_331\n        /* \"#utility.yul\":6323:6329   */\n      dup2\n        /* \"#utility.yul\":6318:6321   */\n      dup6\n        /* \"#utility.yul\":6311:6315   */\n      0x20\n        /* \"#utility.yul\":6304:6309   */\n      dup7\n        /* \"#utility.yul\":6300:6316   */\n      add\n        /* \"#utility.yul\":6265:6330   */\n      tag_218\n      jump\t// in\n    tag_331:\n        /* \"#utility.yul\":6355:6384   */\n      tag_332\n        /* \"#utility.yul\":6377:6383   */\n      dup2\n        /* \"#utility.yul\":6355:6384   */\n      tag_205\n      jump\t// in\n    tag_332:\n        /* \"#utility.yul\":6350:6353   */\n      dup5\n        /* \"#utility.yul\":6346:6385   */\n      add\n        /* \"#utility.yul\":6339:6385   */\n      swap2\n      pop\n        /* \"#utility.yul\":6106:6391   */\n      pop\n        /* \"#utility.yul\":6014:6391   */\n      swap3\n      swap2\n      pop\n      pop\n      jump\t// out\n        /* \"#utility.yul\":6397:6515   */\n    tag_220:\n        /* \"#utility.yul\":6484:6508   */\n      tag_334\n        /* \"#utility.yul\":6502:6507   */\n      dup2\n        /* \"#utility.yul\":6484:6508   */\n      tag_198\n      jump\t// in\n    tag_334:\n        /* \"#utility.yul\":6479:6482   */\n      dup3\n        /* \"#utility.yul\":6472:6509   */\n      mstore\n        /* \"#utility.yul\":6397:6515   */\n      pop\n      pop\n      jump\t// out\n        /* \"#utility.yul\":6521:7276   */\n    tag_35:\n        /* \"#utility.yul\":6746:6750   */\n      0x00\n        /* \"#utility.yul\":6784:6787   */\n      0xa0\n        /* \"#utility.yul\":6773:6782   */\n      dup3\n        /* \"#utility.yul\":6769:6788   */\n      add\n        /* \"#utility.yul\":6761:6788   */\n      swap1\n      pop\n        /* \"#utility.yul\":6798:6869   */\n      tag_336\n        /* \"#utility.yul\":6866:6867   */\n      0x00\n        /* \"#utility.yul\":6855:6864   */\n      dup4\n        /* \"#utility.yul\":6851:6868   */\n      add\n        /* \"#utility.yul\":6842:6848   */\n      dup9\n        /* \"#utility.yul\":6798:6869   */\n      tag_215\n      jump\t// in\n    tag_336:\n        /* \"#utility.yul\":6916:6925   */\n      dup2\n        /* \"#utility.yul\":6910:6914   */\n      dup2\n        /* \"#utility.yul\":6906:6926   */\n      sub\n        /* \"#utility.yul\":6901:6903   */\n      0x20\n        /* \"#utility.yul\":6890:6899   */\n      dup4\n        /* \"#utility.yul\":6886:6904   */\n      add\n        /* \"#utility.yul\":6879:6927   */\n      mstore\n        /* \"#utility.yul\":6944:7022   */\n      tag_337\n        /* \"#utility.yul\":7017:7021   */\n      dup2\n        /* \"#utility.yul\":7008:7014   */\n      dup8\n        /* \"#utility.yul\":6944:7022   */\n      tag_219\n      jump\t// in\n    tag_337:\n        /* \"#utility.yul\":6936:7022   */\n      swap1\n      pop\n        /* \"#utility.yul\":7032:7104   */\n      tag_338\n        /* \"#utility.yul\":7100:7102   */\n      0x40\n        /* \"#utility.yul\":7089:7098   */\n      dup4\n        /* \"#utility.yul\":7085:7103   */\n      add\n        /* \"#utility.yul\":7076:7082   */\n      dup7\n        /* \"#utility.yul\":7032:7104   */\n      tag_220\n      jump\t// in\n    tag_338:\n        /* \"#utility.yul\":7114:7186   */\n      tag_339\n        /* \"#utility.yul\":7182:7184   */\n      0x60\n        /* \"#utility.yul\":7171:7180   */\n      dup4\n        /* \"#utility.yul\":7167:7185   */\n      add\n        /* \"#utility.yul\":7158:7164   */\n      dup6\n        /* \"#utility.yul\":7114:7186   */\n      tag_220\n      jump\t// in\n    tag_339:\n        /* \"#utility.yul\":7196:7269   */\n      tag_340\n        /* \"#utility.yul\":7264:7267   */\n      0x80\n        /* \"#utility.yul\":7253:7262   */\n      dup4\n        /* \"#utility.yul\":7249:7268   */\n      add\n        /* \"#utility.yul\":7240:7246   */\n      dup5\n        /* \"#utility.yul\":7196:7269   */\n      tag_215\n      jump\t// in\n    tag_340:\n        /* \"#utility.yul\":6521:7276   */\n      swap7\n      swap6\n      pop\n      pop\n      pop\n      pop\n      pop\n      pop\n      jump\t// out\n        /* \"#utility.yul\":7282:7611   */\n    tag_38:\n        /* \"#utility.yul\":7341:7347   */\n      0x00\n        /* \"#utility.yul\":7390:7392   */\n      0x20\n        /* \"#utility.yul\":7378:7387   */\n      dup3\n        /* \"#utility.yul\":7369:7376   */\n      dup5\n        /* \"#utility.yul\":7365:7388   */\n      sub\n        /* \"#utility.yul\":7361:7393   */\n      slt\n        /* \"#utility.yul\":7358:7477   */\n      iszero\n      tag_342\n      jumpi\n        /* \"#utility.yul\":7396:7475   */\n      tag_343\n      tag_195\n      jump\t// in\n    tag_343:\n        /* \"#utility.yul\":7358:7477   */\n    tag_342:\n        /* \"#utility.yul\":7516:7517   */\n      0x00\n        /* \"#utility.yul\":7541:7594   */\n      tag_344\n        /* \"#utility.yul\":7586:7593   */\n      dup5\n        /* \"#utility.yul\":7577:7583   */\n      dup3\n        /* \"#utility.yul\":7566:7575   */\n      dup6\n        /* \"#utility.yul\":7562:7584   */\n      add\n        /* \"#utility.yul\":7541:7594   */\n      tag_200\n      jump\t// in\n    tag_344:\n        /* \"#utility.yul\":7531:7594   */\n      swap2\n      pop\n        /* \"#utility.yul\":7487:7604   */\n      pop\n        /* \"#utility.yul\":7282:7611   */\n      swap3\n      swap2\n      pop\n      pop\n      jump\t// out\n        /* \"#utility.yul\":7617:7946   */\n    tag_42:\n        /* \"#utility.yul\":7676:7682   */\n      0x00\n        /* \"#utility.yul\":7725:7727   */\n      0x20\n        /* \"#utility.yul\":7713:7722   */\n      dup3\n        /* \"#utility.yul\":7704:7711   */\n      dup5\n        /* \"#utility.yul\":7700:7723   */\n      sub\n        /* \"#utility.yul\":7696:7728   */\n      slt\n        /* \"#utility.yul\":7693:7812   */\n      iszero\n      tag_346\n      jumpi\n        /* \"#utility.yul\":7731:7810   */\n      tag_347\n      tag_195\n      jump\t// in\n    tag_347:\n        /* \"#utility.yul\":7693:7812   */\n    tag_346:\n        /* \"#utility.yul\":7851:7852   */\n      0x00\n        /* \"#utility.yul\":7876:7929   */\n      tag_348\n        /* \"#utility.yul\":7921:7928   */\n      dup5\n        /* \"#utility.yul\":7912:7918   */\n      dup3\n        /* \"#utility.yul\":7901:7910   */\n      dup6\n        /* \"#utility.yul\":7897:7919   */\n      add\n        /* \"#utility.yul\":7876:7929   */\n      tag_214\n      jump\t// in\n    tag_348:\n        /* \"#utility.yul\":7866:7929   */\n      swap2\n      pop\n        /* \"#utility.yul\":7822:7939   */\n      pop\n        /* \"#utility.yul\":7617:7946   */\n      swap3\n      swap2\n      pop\n      pop\n      jump\t// out\n        /* \"#utility.yul\":7952:8087   */\n    tag_221:\n        /* \"#utility.yul\":8040:8046   */\n      0x00\n        /* \"#utility.yul\":8074:8079   */\n      dup2\n        /* \"#utility.yul\":8068:8080   */\n      mload\n        /* \"#utility.yul\":8058:8080   */\n      swap1\n      pop\n        /* \"#utility.yul\":7952:8087   */\n      swap2\n      swap1\n      pop\n      jump\t// out\n        /* \"#utility.yul\":8093:8298   */\n    tag_222:\n        /* \"#utility.yul\":8213:8224   */\n      0x00\n        /* \"#utility.yul\":8247:8253   */\n      dup3\n        /* \"#utility.yul\":8242:8245   */\n      dup3\n        /* \"#utility.yul\":8235:8254   */\n      mstore\n        /* \"#utility.yul\":8287:8291   */\n      0x20\n        /* \"#utility.yul\":8282:8285   */\n      dup3\n        /* \"#utility.yul\":8278:8292   */\n      add\n        /* \"#utility.yul\":8263:8292   */\n      swap1\n      pop\n        /* \"#utility.yul\":8093:8298   */\n      swap3\n      swap2\n      pop\n      pop\n      jump\t// out\n        /* \"#utility.yul\":8304:8457   */\n    tag_223:\n        /* \"#utility.yul\":8392:8396   */\n      0x00\n        /* \"#utility.yul\":8415:8418   */\n      dup2\n        /* \"#utility.yul\":8407:8418   */\n      swap1\n      pop\n        /* \"#utility.yul\":8445:8449   */\n      0x20\n        /* \"#utility.yul\":8440:8443   */\n      dup3\n        /* \"#utility.yul\":8436:8450   */\n      add\n        /* \"#utility.yul\":8428:8450   */\n      swap1\n      pop\n        /* \"#utility.yul\":8304:8457   */\n      swap2\n      swap1\n      pop\n      jump\t// out\n        /* \"#utility.yul\":8463:8571   */\n    tag_224:\n        /* \"#utility.yul\":8540:8564   */\n      tag_353\n        /* \"#utility.yul\":8558:8563   */\n      dup2\n        /* \"#utility.yul\":8540:8564   */\n      tag_212\n      jump\t// in\n    tag_353:\n        /* \"#utility.yul\":8535:8538   */\n      dup3\n        /* \"#utility.yul\":8528:8565   */\n      mstore\n        /* \"#utility.yul\":8463:8571   */\n      pop\n      pop\n      jump\t// out\n        /* \"#utility.yul\":8577:8685   */\n    tag_225:\n        /* \"#utility.yul\":8654:8678   */\n      tag_355\n        /* \"#utility.yul\":8672:8677   */\n      dup2\n        /* \"#utility.yul\":8654:8678   */\n      tag_198\n      jump\t// in\n    tag_355:\n        /* \"#utility.yul\":8649:8652   */\n      dup3\n        /* \"#utility.yul\":8642:8679   */\n      mstore\n        /* \"#utility.yul\":8577:8685   */\n      pop\n      pop\n      jump\t// out\n        /* \"#utility.yul\":8691:8850   */\n    tag_226:\n        /* \"#utility.yul\":8765:8776   */\n      0x00\n        /* \"#utility.yul\":8799:8805   */\n      dup3\n        /* \"#utility.yul\":8794:8797   */\n      dup3\n        /* \"#utility.yul\":8787:8806   */\n      mstore\n        /* \"#utility.yul\":8839:8843   */\n      0x20\n        /* \"#utility.yul\":8834:8837   */\n      dup3\n        /* \"#utility.yul\":8830:8844   */\n      add\n        /* \"#utility.yul\":8815:8844   */\n      swap1\n      pop\n        /* \"#utility.yul\":8691:8850   */\n      swap3\n      swap2\n      pop\n      pop\n      jump\t// out\n        /* \"#utility.yul\":8856:9213   */\n    tag_227:\n        /* \"#utility.yul\":8934:8937   */\n      0x00\n        /* \"#utility.yul\":8962:9001   */\n      tag_358\n        /* \"#utility.yul\":8995:9000   */\n      dup3\n        /* \"#utility.yul\":8962:9001   */\n      tag_216\n      jump\t// in\n    tag_358:\n        /* \"#utility.yul\":9017:9078   */\n      tag_359\n        /* \"#utility.yul\":9071:9077   */\n      dup2\n        /* \"#utility.yul\":9066:9069   */\n      dup6\n        /* \"#utility.yul\":9017:9078   */\n      tag_226\n      jump\t// in\n    tag_359:\n        /* \"#utility.yul\":9010:9078   */\n      swap4\n      pop\n        /* \"#utility.yul\":9087:9152   */\n      tag_360\n        /* \"#utility.yul\":9145:9151   */\n      dup2\n        /* \"#utility.yul\":9140:9143   */\n      dup6\n        /* \"#utility.yul\":9133:9137   */\n      0x20\n        /* \"#utility.yul\":9126:9131   */\n      dup7\n        /* \"#utility.yul\":9122:9138   */\n      add\n        /* \"#utility.yul\":9087:9152   */\n      tag_218\n      jump\t// in\n    tag_360:\n        /* \"#utility.yul\":9177:9206   */\n      tag_361\n        /* \"#utility.yul\":9199:9205   */\n      dup2\n        /* \"#utility.yul\":9177:9206   */\n      tag_205\n      jump\t// in\n    tag_361:\n        /* \"#utility.yul\":9172:9175   */\n      dup5\n        /* \"#utility.yul\":9168:9207   */\n      add\n        /* \"#utility.yul\":9161:9207   */\n      swap2\n      pop\n        /* \"#utility.yul\":8938:9213   */\n      pop\n        /* \"#utility.yul\":8856:9213   */\n      swap3\n      swap2\n      pop\n      pop\n      jump\t// out\n        /* \"#utility.yul\":9265:10212   */\n    tag_228:\n        /* \"#utility.yul\":9366:9369   */\n      0x00\n        /* \"#utility.yul\":9402:9406   */\n      0x80\n        /* \"#utility.yul\":9397:9400   */\n      dup4\n        /* \"#utility.yul\":9393:9407   */\n      add\n        /* \"#utility.yul\":9487:9491   */\n      0x00\n        /* \"#utility.yul\":9480:9485   */\n      dup4\n        /* \"#utility.yul\":9476:9492   */\n      add\n        /* \"#utility.yul\":9470:9493   */\n      mload\n        /* \"#utility.yul\":9506:9569   */\n      tag_363\n        /* \"#utility.yul\":9563:9567   */\n      0x00\n        /* \"#utility.yul\":9558:9561   */\n      dup7\n        /* \"#utility.yul\":9554:9568   */\n      add\n        /* \"#utility.yul\":9540:9552   */\n      dup3\n        /* \"#utility.yul\":9506:9569   */\n      tag_224\n      jump\t// in\n    tag_363:\n        /* \"#utility.yul\":9417:9579   */\n      pop\n        /* \"#utility.yul\":9663:9667   */\n      0x20\n        /* \"#utility.yul\":9656:9661   */\n      dup4\n        /* \"#utility.yul\":9652:9668   */\n      add\n        /* \"#utility.yul\":9646:9669   */\n      mload\n        /* \"#utility.yul\":9682:9745   */\n      tag_364\n        /* \"#utility.yul\":9739:9743   */\n      0x20\n        /* \"#utility.yul\":9734:9737   */\n      dup7\n        /* \"#utility.yul\":9730:9744   */\n      add\n        /* \"#utility.yul\":9716:9728   */\n      dup3\n        /* \"#utility.yul\":9682:9745   */\n      tag_225\n      jump\t// in\n    tag_364:\n        /* \"#utility.yul\":9589:9755   */\n      pop\n        /* \"#utility.yul\":9840:9844   */\n      0x40\n        /* \"#utility.yul\":9833:9838   */\n      dup4\n        /* \"#utility.yul\":9829:9845   */\n      add\n        /* \"#utility.yul\":9823:9846   */\n      mload\n        /* \"#utility.yul\":9893:9896   */\n      dup5\n        /* \"#utility.yul\":9887:9891   */\n      dup3\n        /* \"#utility.yul\":9883:9897   */\n      sub\n        /* \"#utility.yul\":9876:9880   */\n      0x40\n        /* \"#utility.yul\":9871:9874   */\n      dup7\n        /* \"#utility.yul\":9867:9881   */\n      add\n        /* \"#utility.yul\":9860:9898   */\n      mstore\n        /* \"#utility.yul\":9919:9992   */\n      tag_365\n        /* \"#utility.yul\":9987:9991   */\n      dup3\n        /* \"#utility.yul\":9973:9985   */\n      dup3\n        /* \"#utility.yul\":9919:9992   */\n      tag_227\n      jump\t// in\n    tag_365:\n        /* \"#utility.yul\":9911:9992   */\n      swap2\n      pop\n        /* \"#utility.yul\":9765:10003   */\n      pop\n        /* \"#utility.yul\":10093:10097   */\n      0x60\n        /* \"#utility.yul\":10086:10091   */\n      dup4\n        /* \"#utility.yul\":10082:10098   */\n      add\n        /* \"#utility.yul\":10076:10099   */\n      mload\n        /* \"#utility.yul\":10112:10175   */\n      tag_366\n        /* \"#utility.yul\":10169:10173   */\n      0x60\n        /* \"#utility.yul\":10164:10167   */\n      dup7\n        /* \"#utility.yul\":10160:10174   */\n      add\n        /* \"#utility.yul\":10146:10158   */\n      dup3\n        /* \"#utility.yul\":10112:10175   */\n      tag_224\n      jump\t// in\n    tag_366:\n        /* \"#utility.yul\":10013:10185   */\n      pop\n        /* \"#utility.yul\":10202:10206   */\n      dup1\n        /* \"#utility.yul\":10195:10206   */\n      swap2\n      pop\n        /* \"#utility.yul\":9371:10212   */\n      pop\n        /* \"#utility.yul\":9265:10212   */\n      swap3\n      swap2\n      pop\n      pop\n      jump\t// out\n        /* \"#utility.yul\":10218:10458   */\n    tag_229:\n        /* \"#utility.yul\":10329:10339   */\n      0x00\n        /* \"#utility.yul\":10364:10452   */\n      tag_368\n        /* \"#utility.yul\":10448:10451   */\n      dup4\n        /* \"#utility.yul\":10440:10446   */\n      dup4\n        /* \"#utility.yul\":10364:10452   */\n      tag_228\n      jump\t// in\n    tag_368:\n        /* \"#utility.yul\":10350:10452   */\n      swap1\n      pop\n        /* \"#utility.yul\":10218:10458   */\n      swap3\n      swap2\n      pop\n      pop\n      jump\t// out\n        /* \"#utility.yul\":10464:10598   */\n    tag_230:\n        /* \"#utility.yul\":10555:10559   */\n      0x00\n        /* \"#utility.yul\":10587:10591   */\n      0x20\n        /* \"#utility.yul\":10582:10585   */\n      dup3\n        /* \"#utility.yul\":10578:10592   */\n      add\n        /* \"#utility.yul\":10570:10592   */\n      swap1\n      pop\n        /* \"#utility.yul\":10464:10598   */\n      swap2\n      swap1\n      pop\n      jump\t// out\n        /* \"#utility.yul\":10654:11733   */\n    tag_231:\n        /* \"#utility.yul\":10815:10818   */\n      0x00\n        /* \"#utility.yul\":10844:10919   */\n      tag_371\n        /* \"#utility.yul\":10913:10918   */\n      dup3\n        /* \"#utility.yul\":10844:10919   */\n      tag_221\n      jump\t// in\n    tag_371:\n        /* \"#utility.yul\":10935:11042   */\n      tag_372\n        /* \"#utility.yul\":11035:11041   */\n      dup2\n        /* \"#utility.yul\":11030:11033   */\n      dup6\n        /* \"#utility.yul\":10935:11042   */\n      tag_222\n      jump\t// in\n    tag_372:\n        /* \"#utility.yul\":10928:11042   */\n      swap4\n      pop\n        /* \"#utility.yul\":11068:11071   */\n      dup4\n        /* \"#utility.yul\":11113:11117   */\n      0x20\n        /* \"#utility.yul\":11105:11111   */\n      dup3\n        /* \"#utility.yul\":11101:11118   */\n      mul\n        /* \"#utility.yul\":11096:11099   */\n      dup6\n        /* \"#utility.yul\":11092:11119   */\n      add\n        /* \"#utility.yul\":11143:11220   */\n      tag_373\n        /* \"#utility.yul\":11214:11219   */\n      dup6\n        /* \"#utility.yul\":11143:11220   */\n      tag_223\n      jump\t// in\n    tag_373:\n        /* \"#utility.yul\":11243:11250   */\n      dup1\n        /* \"#utility.yul\":11274:11275   */\n      0x00\n        /* \"#utility.yul\":11259:11688   */\n    tag_374:\n        /* \"#utility.yul\":11284:11290   */\n      dup6\n        /* \"#utility.yul\":11281:11282   */\n      dup2\n        /* \"#utility.yul\":11278:11291   */\n      lt\n        /* \"#utility.yul\":11259:11688   */\n      iszero\n      tag_376\n      jumpi\n        /* \"#utility.yul\":11355:11364   */\n      dup5\n        /* \"#utility.yul\":11349:11353   */\n      dup5\n        /* \"#utility.yul\":11345:11365   */\n      sub\n        /* \"#utility.yul\":11340:11343   */\n      dup10\n        /* \"#utility.yul\":11333:11366   */\n      mstore\n        /* \"#utility.yul\":11406:11412   */\n      dup2\n        /* \"#utility.yul\":11400:11413   */\n      mload\n        /* \"#utility.yul\":11434:11540   */\n      tag_377\n        /* \"#utility.yul\":11535:11539   */\n      dup6\n        /* \"#utility.yul\":11520:11533   */\n      dup3\n        /* \"#utility.yul\":11434:11540   */\n      tag_229\n      jump\t// in\n    tag_377:\n        /* \"#utility.yul\":11426:11540   */\n      swap5\n      pop\n        /* \"#utility.yul\":11563:11644   */\n      tag_378\n        /* \"#utility.yul\":11637:11643   */\n      dup4\n        /* \"#utility.yul\":11563:11644   */\n      tag_230\n      jump\t// in\n    tag_378:\n        /* \"#utility.yul\":11553:11644   */\n      swap3\n      pop\n        /* \"#utility.yul\":11673:11677   */\n      0x20\n        /* \"#utility.yul\":11668:11671   */\n      dup11\n        /* \"#utility.yul\":11664:11678   */\n      add\n        /* \"#utility.yul\":11657:11678   */\n      swap10\n      pop\n        /* \"#utility.yul\":11319:11688   */\n      pop\n        /* \"#utility.yul\":11306:11307   */\n      0x01\n        /* \"#utility.yul\":11303:11304   */\n      dup2\n        /* \"#utility.yul\":11299:11308   */\n      add\n        /* \"#utility.yul\":11294:11308   */\n      swap1\n      pop\n        /* \"#utility.yul\":11259:11688   */\n      jump(tag_374)\n    tag_376:\n        /* \"#utility.yul\":11263:11277   */\n      pop\n        /* \"#utility.yul\":11704:11708   */\n      dup3\n        /* \"#utility.yul\":11697:11708   */\n      swap8\n      pop\n        /* \"#utility.yul\":11724:11727   */\n      dup8\n        /* \"#utility.yul\":11717:11727   */\n      swap6\n      pop\n        /* \"#utility.yul\":10820:11733   */\n      pop\n      pop\n      pop\n      pop\n      pop\n        /* \"#utility.yul\":10654:11733   */\n      swap3\n      swap2\n      pop\n      pop\n      jump\t// out\n        /* \"#utility.yul\":11739:12196   */\n    tag_45:\n        /* \"#utility.yul\":11924:11928   */\n      0x00\n        /* \"#utility.yul\":11962:11964   */\n      0x20\n        /* \"#utility.yul\":11951:11960   */\n      dup3\n        /* \"#utility.yul\":11947:11965   */\n      add\n        /* \"#utility.yul\":11939:11965   */\n      swap1\n      pop\n        /* \"#utility.yul\":12011:12020   */\n      dup2\n        /* \"#utility.yul\":12005:12009   */\n      dup2\n        /* \"#utility.yul\":12001:12021   */\n      sub\n        /* \"#utility.yul\":11997:11998   */\n      0x00\n        /* \"#utility.yul\":11986:11995   */\n      dup4\n        /* \"#utility.yul\":11982:11999   */\n      add\n        /* \"#utility.yul\":11975:12022   */\n      mstore\n        /* \"#utility.yul\":12039:12189   */\n      tag_380\n        /* \"#utility.yul\":12184:12188   */\n      dup2\n        /* \"#utility.yul\":12175:12181   */\n      dup5\n        /* \"#utility.yul\":12039:12189   */\n      tag_231\n      jump\t// in\n    tag_380:\n        /* \"#utility.yul\":12031:12189   */\n      swap1\n      pop\n        /* \"#utility.yul\":11739:12196   */\n      swap3\n      swap2\n      pop\n      pop\n      jump\t// out\n        /* \"#utility.yul\":12202:12424   */\n    tag_50:\n        /* \"#utility.yul\":12295:12299   */\n      0x00\n        /* \"#utility.yul\":12333:12335   */\n      0x20\n        /* \"#utility.yul\":12322:12331   */\n      dup3\n        /* \"#utility.yul\":12318:12336   */\n      add\n        /* \"#utility.yul\":12310:12336   */\n      swap1\n      pop\n        /* \"#utility.yul\":12346:12417   */\n      tag_382\n        /* \"#utility.yul\":12414:12415   */\n      0x00\n        /* \"#utility.yul\":12403:12412   */\n      dup4\n        /* \"#utility.yul\":12399:12416   */\n      add\n        /* \"#utility.yul\":12390:12396   */\n      dup5\n        /* \"#utility.yul\":12346:12417   */\n      tag_220\n      jump\t// in\n    tag_382:\n        /* \"#utility.yul\":12202:12424   */\n      swap3\n      swap2\n      pop\n      pop\n      jump\t// out\n        /* \"#utility.yul\":12430:12652   */\n    tag_58:\n        /* \"#utility.yul\":12523:12527   */\n      0x00\n        /* \"#utility.yul\":12561:12563   */\n      0x20\n        /* \"#utility.yul\":12550:12559   */\n      dup3\n        /* \"#utility.yul\":12546:12564   */\n      add\n        /* \"#utility.yul\":12538:12564   */\n      swap1\n      pop\n        /* \"#utility.yul\":12574:12645   */\n      tag_384\n        /* \"#utility.yul\":12642:12643   */\n      0x00\n        /* \"#utility.yul\":12631:12640   */\n      dup4\n        /* \"#utility.yul\":12627:12644   */\n      add\n        /* \"#utility.yul\":12618:12624   */\n      dup5\n        /* \"#utility.yul\":12574:12645   */\n      tag_215\n      jump\t// in\n    tag_384:\n        /* \"#utility.yul\":12430:12652   */\n      swap3\n      swap2\n      pop\n      pop\n      jump\t// out\n        /* \"#utility.yul\":12658:13312   */\n    tag_61:\n        /* \"#utility.yul\":12736:12742   */\n      0x00\n        /* \"#utility.yul\":12744:12750   */\n      dup1\n        /* \"#utility.yul\":12793:12795   */\n      0x40\n        /* \"#utility.yul\":12781:12790   */\n      dup4\n        /* \"#utility.yul\":12772:12779   */\n      dup6\n        /* \"#utility.yul\":12768:12791   */\n      sub\n        /* \"#utility.yul\":12764:12796   */\n      slt\n        /* \"#utility.yul\":12761:12880   */\n      iszero\n      tag_386\n      jumpi\n        /* \"#utility.yul\":12799:12878   */\n      tag_387\n      tag_195\n      jump\t// in\n    tag_387:\n        /* \"#utility.yul\":12761:12880   */\n    tag_386:\n        /* \"#utility.yul\":12947:12948   */\n      0x00\n        /* \"#utility.yul\":12936:12945   */\n      dup4\n        /* \"#utility.yul\":12932:12949   */\n      add\n        /* \"#utility.yul\":12919:12950   */\n      calldataload\n        /* \"#utility.yul\":12977:12995   */\n      0xffffffffffffffff\n        /* \"#utility.yul\":12969:12975   */\n      dup2\n        /* \"#utility.yul\":12966:12996   */\n      gt\n        /* \"#utility.yul\":12963:13080   */\n      iszero\n      tag_388\n      jumpi\n        /* \"#utility.yul\":12999:13078   */\n      tag_389\n      tag_196\n      jump\t// in\n    tag_389:\n        /* \"#utility.yul\":12963:13080   */\n    tag_388:\n        /* \"#utility.yul\":13104:13167   */\n      tag_390\n        /* \"#utility.yul\":13159:13166   */\n      dup6\n        /* \"#utility.yul\":13150:13156   */\n      dup3\n        /* \"#utility.yul\":13139:13148   */\n      dup7\n        /* \"#utility.yul\":13135:13157   */\n      add\n        /* \"#utility.yul\":13104:13167   */\n      tag_211\n      jump\t// in\n    tag_390:\n        /* \"#utility.yul\":13094:13167   */\n      swap3\n      pop\n        /* \"#utility.yul\":12890:13177   */\n      pop\n        /* \"#utility.yul\":13216:13218   */\n      0x20\n        /* \"#utility.yul\":13242:13295   */\n      tag_391\n        /* \"#utility.yul\":13287:13294   */\n      dup6\n        /* \"#utility.yul\":13278:13284   */\n      dup3\n        /* \"#utility.yul\":13267:13276   */\n      dup7\n        /* \"#utility.yul\":13263:13285   */\n      add\n        /* \"#utility.yul\":13242:13295   */\n      tag_200\n      jump\t// in\n    tag_391:\n        /* \"#utility.yul\":13232:13295   */\n      swap2\n      pop\n        /* \"#utility.yul\":13187:13305   */\n      pop\n        /* \"#utility.yul\":12658:13312   */\n      swap3\n      pop\n      swap3\n      swap1\n      pop\n      jump\t// out\n        /* \"#utility.yul\":13318:14117   */\n    tag_69:\n        /* \"#utility.yul\":13405:13411   */\n      0x00\n        /* \"#utility.yul\":13413:13419   */\n      dup1\n        /* \"#utility.yul\":13421:13427   */\n      0x00\n        /* \"#utility.yul\":13470:13472   */\n      0x60\n        /* \"#utility.yul\":13458:13467   */\n      dup5\n        /* \"#utility.yul\":13449:13456   */\n      dup7\n        /* \"#utility.yul\":13445:13468   */\n      sub\n        /* \"#utility.yul\":13441:13473   */\n      slt\n        /* \"#utility.yul\":13438:13557   */\n      iszero\n      tag_393\n      jumpi\n        /* \"#utility.yul\":13476:13555   */\n      tag_394\n      tag_195\n      jump\t// in\n    tag_394:\n        /* \"#utility.yul\":13438:13557   */\n    tag_393:\n        /* \"#utility.yul\":13596:13597   */\n      0x00\n        /* \"#utility.yul\":13621:13674   */\n      tag_395\n        /* \"#utility.yul\":13666:13673   */\n      dup7\n        /* \"#utility.yul\":13657:13663   */\n      dup3\n        /* \"#utility.yul\":13646:13655   */\n      dup8\n        /* \"#utility.yul\":13642:13664   */\n      add\n        /* \"#utility.yul\":13621:13674   */\n      tag_200\n      jump\t// in\n    tag_395:\n        /* \"#utility.yul\":13611:13674   */\n      swap4\n      pop\n        /* \"#utility.yul\":13567:13684   */\n      pop\n        /* \"#utility.yul\":13723:13725   */\n      0x20\n        /* \"#utility.yul\":13749:13802   */\n      tag_396\n        /* \"#utility.yul\":13794:13801   */\n      dup7\n        /* \"#utility.yul\":13785:13791   */\n      dup3\n        /* \"#utility.yul\":13774:13783   */\n      dup8\n        /* \"#utility.yul\":13770:13792   */\n      add\n        /* \"#utility.yul\":13749:13802   */\n      tag_200\n      jump\t// in\n    tag_396:\n        /* \"#utility.yul\":13739:13802   */\n      swap3\n      pop\n        /* \"#utility.yul\":13694:13812   */\n      pop\n        /* \"#utility.yul\":13879:13881   */\n      0x40\n        /* \"#utility.yul\":13868:13877   */\n      dup5\n        /* \"#utility.yul\":13864:13882   */\n      add\n        /* \"#utility.yul\":13851:13883   */\n      calldataload\n        /* \"#utility.yul\":13910:13928   */\n      0xffffffffffffffff\n        /* \"#utility.yul\":13902:13908   */\n      dup2\n        /* \"#utility.yul\":13899:13929   */\n      gt\n        /* \"#utility.yul\":13896:14013   */\n      iszero\n      tag_397\n      jumpi\n        /* \"#utility.yul\":13932:14011   */\n      tag_398\n      tag_196\n      jump\t// in\n    tag_398:\n        /* \"#utility.yul\":13896:14013   */\n    tag_397:\n        /* \"#utility.yul\":14037:14100   */\n      tag_399\n        /* \"#utility.yul\":14092:14099   */\n      dup7\n        /* \"#utility.yul\":14083:14089   */\n      dup3\n        /* \"#utility.yul\":14072:14081   */\n      dup8\n        /* \"#utility.yul\":14068:14090   */\n      add\n        /* \"#utility.yul\":14037:14100   */\n      tag_211\n      jump\t// in\n    tag_399:\n        /* \"#utility.yul\":14027:14100   */\n      swap2\n      pop\n        /* \"#utility.yul\":13822:14110   */\n      pop\n        /* \"#utility.yul\":13318:14117   */\n      swap3\n      pop\n      swap3\n      pop\n      swap3\n      jump\t// out\n        /* \"#utility.yul\":14123:14767   */\n    tag_75:\n        /* \"#utility.yul\":14320:14324   */\n      0x00\n        /* \"#utility.yul\":14358:14361   */\n      0x80\n        /* \"#utility.yul\":14347:14356   */\n      dup3\n        /* \"#utility.yul\":14343:14362   */\n      add\n        /* \"#utility.yul\":14335:14362   */\n      swap1\n      pop\n        /* \"#utility.yul\":14372:14443   */\n      tag_401\n        /* \"#utility.yul\":14440:14441   */\n      0x00\n        /* \"#utility.yul\":14429:14438   */\n      dup4\n        /* \"#utility.yul\":14425:14442   */\n      add\n        /* \"#utility.yul\":14416:14422   */\n      dup8\n        /* \"#utility.yul\":14372:14443   */\n      tag_215\n      jump\t// in\n    tag_401:\n        /* \"#utility.yul\":14453:14525   */\n      tag_402\n        /* \"#utility.yul\":14521:14523   */\n      0x20\n        /* \"#utility.yul\":14510:14519   */\n      dup4\n        /* \"#utility.yul\":14506:14524   */\n      add\n        /* \"#utility.yul\":14497:14503   */\n      dup7\n        /* \"#utility.yul\":14453:14525   */\n      tag_220\n      jump\t// in\n    tag_402:\n        /* \"#utility.yul\":14572:14581   */\n      dup2\n        /* \"#utility.yul\":14566:14570   */\n      dup2\n        /* \"#utility.yul\":14562:14582   */\n      sub\n        /* \"#utility.yul\":14557:14559   */\n      0x40\n        /* \"#utility.yul\":14546:14555   */\n      dup4\n        /* \"#utility.yul\":14542:14560   */\n      add\n        /* \"#utility.yul\":14535:14583   */\n      mstore\n        /* \"#utility.yul\":14600:14678   */\n      tag_403\n        /* \"#utility.yul\":14673:14677   */\n      dup2\n        /* \"#utility.yul\":14664:14670   */\n      dup6\n        /* \"#utility.yul\":14600:14678   */\n      tag_219\n      jump\t// in\n    tag_403:\n        /* \"#utility.yul\":14592:14678   */\n      swap1\n      pop\n        /* \"#utility.yul\":14688:14760   */\n      tag_404\n        /* \"#utility.yul\":14756:14758   */\n      0x60\n        /* \"#utility.yul\":14745:14754   */\n      dup4\n        /* \"#utility.yul\":14741:14759   */\n      add\n        /* \"#utility.yul\":14732:14738   */\n      dup5\n        /* \"#utility.yul\":14688:14760   */\n      tag_215\n      jump\t// in\n    tag_404:\n        /* \"#utility.yul\":14123:14767   */\n      swap6\n      swap5\n      pop\n      pop\n      pop\n      pop\n      pop\n      jump\t// out\n        /* \"#utility.yul\":14773:15282   */\n    tag_81:\n        /* \"#utility.yul\":14842:14848   */\n      0x00\n        /* \"#utility.yul\":14891:14893   */\n      0x20\n        /* \"#utility.yul\":14879:14888   */\n      dup3\n        /* \"#utility.yul\":14870:14877   */\n      dup5\n        /* \"#utility.yul\":14866:14889   */\n      sub\n        /* \"#utility.yul\":14862:14894   */\n      slt\n        /* \"#utility.yul\":14859:14978   */\n      iszero\n      tag_406\n      jumpi\n        /* \"#utility.yul\":14897:14976   */\n      tag_407\n      tag_195\n      jump\t// in\n    tag_407:\n        /* \"#utility.yul\":14859:14978   */\n    tag_406:\n        /* \"#utility.yul\":15045:15046   */\n      0x00\n        /* \"#utility.yul\":15034:15043   */\n      dup3\n        /* \"#utility.yul\":15030:15047   */\n      add\n        /* \"#utility.yul\":15017:15048   */\n      calldataload\n        /* \"#utility.yul\":15075:15093   */\n      0xffffffffffffffff\n        /* \"#utility.yul\":15067:15073   */\n      dup2\n        /* \"#utility.yul\":15064:15094   */\n      gt\n        /* \"#utility.yul\":15061:15178   */\n      iszero\n      tag_408\n      jumpi\n        /* \"#utility.yul\":15097:15176   */\n      tag_409\n      tag_196\n      jump\t// in\n    tag_409:\n        /* \"#utility.yul\":15061:15178   */\n    tag_408:\n        /* \"#utility.yul\":15202:15265   */\n      tag_410\n        /* \"#utility.yul\":15257:15264   */\n      dup5\n        /* \"#utility.yul\":15248:15254   */\n      dup3\n        /* \"#utility.yul\":15237:15246   */\n      dup6\n        /* \"#utility.yul\":15233:15255   */\n      add\n        /* \"#utility.yul\":15202:15265   */\n      tag_211\n      jump\t// in\n    tag_410:\n        /* \"#utility.yul\":15192:15265   */\n      swap2\n      pop\n        /* \"#utility.yul\":14988:15275   */\n      pop\n        /* \"#utility.yul\":14773:15282   */\n      swap3\n      swap2\n      pop\n      pop\n      jump\t// out\n        /* \"#utility.yul\":15288:15468   */\n    tag_232:\n        /* \"#utility.yul\":15336:15413   */\n      0x4e487b7100000000000000000000000000000000000000000000000000000000\n        /* \"#utility.yul\":15333:15334   */\n      0x00\n        /* \"#utility.yul\":15326:15414   */\n      mstore\n        /* \"#utility.yul\":15433:15437   */\n      0x22\n        /* \"#utility.yul\":15430:15431   */\n      0x04\n        /* \"#utility.yul\":15423:15438   */\n      mstore\n        /* \"#utility.yul\":15457:15461   */\n      0x24\n        /* \"#utility.yul\":15454:15455   */\n      0x00\n        /* \"#utility.yul\":15447:15462   */\n      revert\n        /* \"#utility.yul\":15474:15794   */\n    tag_89:\n        /* \"#utility.yul\":15518:15524   */\n      0x00\n        /* \"#utility.yul\":15555:15556   */\n      0x02\n        /* \"#utility.yul\":15549:15553   */\n      dup3\n        /* \"#utility.yul\":15545:15557   */\n      div\n        /* \"#utility.yul\":15535:15557   */\n      swap1\n      pop\n        /* \"#utility.yul\":15602:15603   */\n      0x01\n        /* \"#utility.yul\":15596:15600   */\n      dup3\n        /* \"#utility.yul\":15592:15604   */\n      and\n        /* \"#utility.yul\":15623:15641   */\n      dup1\n        /* \"#utility.yul\":15613:15694   */\n      tag_413\n      jumpi\n        /* \"#utility.yul\":15679:15683   */\n      0x7f\n        /* \"#utility.yul\":15671:15677   */\n      dup3\n        /* \"#utility.yul\":15667:15684   */\n      and\n        /* \"#utility.yul\":15657:15684   */\n      swap2\n      pop\n        /* \"#utility.yul\":15613:15694   */\n    tag_413:\n        /* \"#utility.yul\":15741:15743   */\n      0x20\n        /* \"#utility.yul\":15733:15739   */\n      dup3\n        /* \"#utility.yul\":15730:15744   */\n      lt\n        /* \"#utility.yul\":15710:15728   */\n      dup2\n        /* \"#utility.yul\":15707:15745   */\n      sub\n        /* \"#utility.yul\":15704:15788   */\n      tag_414\n      jumpi\n        /* \"#utility.yul\":15760:15778   */\n      tag_415\n      tag_232\n      jump\t// in\n    tag_415:\n        /* \"#utility.yul\":15704:15788   */\n    tag_414:\n        /* \"#utility.yul\":15525:15794   */\n      pop\n        /* \"#utility.yul\":15474:15794   */\n      swap2\n      swap1\n      pop\n      jump\t// out\n        /* \"#utility.yul\":15800:15980   */\n    tag_233:\n        /* \"#utility.yul\":15848:15925   */\n      0x4e487b7100000000000000000000000000000000000000000000000000000000\n        /* \"#utility.yul\":15845:15846   */\n      0x00\n        /* \"#utility.yul\":15838:15926   */\n      mstore\n        /* \"#utility.yul\":15945:15949   */\n      0x11\n        /* \"#utility.yul\":15942:15943   */\n      0x04\n        /* \"#utility.yul\":15935:15950   */\n      mstore\n        /* \"#utility.yul\":15969:15973   */\n      0x24\n        /* \"#utility.yul\":15966:15967   */\n      0x00\n        /* \"#utility.yul\":15959:15974   */\n      revert\n        /* \"#utility.yul\":15986:16180   */\n    tag_99:\n        /* \"#utility.yul\":16026:16030   */\n      0x00\n        /* \"#utility.yul\":16046:16066   */\n      tag_418\n        /* \"#utility.yul\":16064:16065   */\n      dup3\n        /* \"#utility.yul\":16046:16066   */\n      tag_212\n      jump\t// in\n    tag_418:\n        /* \"#utility.yul\":16041:16066   */\n      swap2\n      pop\n        /* \"#utility.yul\":16080:16100   */\n      tag_419\n        /* \"#utility.yul\":16098:16099   */\n      dup4\n        /* \"#utility.yul\":16080:16100   */\n      tag_212\n      jump\t// in\n    tag_419:\n        /* \"#utility.yul\":16075:16100   */\n      swap3\n      pop\n        /* \"#utility.yul\":16124:16125   */\n      dup3\n        /* \"#utility.yul\":16121:16122   */\n      dup3\n        /* \"#utility.yul\":16117:16126   */\n      sub\n        /* \"#utility.yul\":16109:16126   */\n      swap1\n      pop\n        /* \"#utility.yul\":16148:16149   */\n      dup2\n        /* \"#utility.yul\":16142:16146   */\n      dup2\n        /* \"#utility.yul\":16139:16150   */\n      gt\n        /* \"#utility.yul\":16136:16173   */\n      iszero\n      tag_420\n      jumpi\n        /* \"#utility.yul\":16153:16171   */\n      tag_421\n      tag_233\n      jump\t// in\n    tag_421:\n        /* \"#utility.yul\":16136:16173   */\n    tag_420:\n        /* \"#utility.yul\":15986:16180   */\n      swap3\n      swap2\n      pop\n      pop\n      jump\t// out\n        /* \"#utility.yul\":16186:16349   */\n    tag_234:\n        /* \"#utility.yul\":16326:16341   */\n      0x496e76616c696420636f756e7400000000000000000000000000000000000000\n        /* \"#utility.yul\":16322:16323   */\n      0x00\n        /* \"#utility.yul\":16314:16320   */\n      dup3\n        /* \"#utility.yul\":16310:16324   */\n      add\n        /* \"#utility.yul\":16303:16342   */\n      mstore\n        /* \"#utility.yul\":16186:16349   */\n      pop\n      jump\t// out\n        /* \"#utility.yul\":16355:16721   */\n    tag_235:\n        /* \"#utility.yul\":16497:16500   */\n      0x00\n        /* \"#utility.yul\":16518:16585   */\n      tag_424\n        /* \"#utility.yul\":16582:16584   */\n      0x0d\n        /* \"#utility.yul\":16577:16580   */\n      dup4\n        /* \"#utility.yul\":16518:16585   */\n      tag_217\n      jump\t// in\n    tag_424:\n        /* \"#utility.yul\":16511:16585   */\n      swap2\n      pop\n        /* \"#utility.yul\":16594:16687   */\n      tag_425\n        /* \"#utility.yul\":16683:16686   */\n      dup3\n        /* \"#utility.yul\":16594:16687   */\n      tag_234\n      jump\t// in\n    tag_425:\n        /* \"#utility.yul\":16712:16714   */\n      0x20\n        /* \"#utility.yul\":16707:16710   */\n      dup3\n        /* \"#utility.yul\":16703:16715   */\n      add\n        /* \"#utility.yul\":16696:16715   */\n      swap1\n      pop\n        /* \"#utility.yul\":16355:16721   */\n      swap2\n      swap1\n      pop\n      jump\t// out\n        /* \"#utility.yul\":16727:17146   */\n    tag_102:\n        /* \"#utility.yul\":16893:16897   */\n      0x00\n        /* \"#utility.yul\":16931:16933   */\n      0x20\n        /* \"#utility.yul\":16920:16929   */\n      dup3\n        /* \"#utility.yul\":16916:16934   */\n      add\n        /* \"#utility.yul\":16908:16934   */\n      swap1\n      pop\n        /* \"#utility.yul\":16980:16989   */\n      dup2\n        /* \"#utility.yul\":16974:16978   */\n      dup2\n        /* \"#utility.yul\":16970:16990   */\n      sub\n        /* \"#utility.yul\":16966:16967   */\n      0x00\n        /* \"#utility.yul\":16955:16964   */\n      dup4\n        /* \"#utility.yul\":16951:16968   */\n      add\n        /* \"#utility.yul\":16944:16991   */\n      mstore\n        /* \"#utility.yul\":17008:17139   */\n      tag_427\n        /* \"#utility.yul\":17134:17138   */\n      dup2\n        /* \"#utility.yul\":17008:17139   */\n      tag_235\n      jump\t// in\n    tag_427:\n        /* \"#utility.yul\":17000:17139   */\n      swap1\n      pop\n        /* \"#utility.yul\":16727:17146   */\n      swap2\n      swap1\n      pop\n      jump\t// out\n        /* \"#utility.yul\":17152:17332   */\n    tag_121:\n        /* \"#utility.yul\":17200:17277   */\n      0x4e487b7100000000000000000000000000000000000000000000000000000000\n        /* \"#utility.yul\":17197:17198   */\n      0x00\n        /* \"#utility.yul\":17190:17278   */\n      mstore\n        /* \"#utility.yul\":17297:17301   */\n      0x32\n        /* \"#utility.yul\":17294:17295   */\n      0x04\n        /* \"#utility.yul\":17287:17302   */\n      mstore\n        /* \"#utility.yul\":17321:17325   */\n      0x24\n        /* \"#utility.yul\":17318:17319   */\n      0x00\n        /* \"#utility.yul\":17311:17326   */\n      revert\n        /* \"#utility.yul\":17338:17571   */\n    tag_123:\n        /* \"#utility.yul\":17377:17380   */\n      0x00\n        /* \"#utility.yul\":17400:17424   */\n      tag_430\n        /* \"#utility.yul\":17418:17423   */\n      dup3\n        /* \"#utility.yul\":17400:17424   */\n      tag_212\n      jump\t// in\n    tag_430:\n        /* \"#utility.yul\":17391:17424   */\n      swap2\n      pop\n        /* \"#utility.yul\":17446:17512   */\n      0xffffffffffffffffffffffffffffffffffffffffffffffffffffffffffffffff\n        /* \"#utility.yul\":17439:17444   */\n      dup3\n        /* \"#utility.yul\":17436:17513   */\n      sub\n        /* \"#utility.yul\":17433:17536   */\n      tag_431\n      jumpi\n        /* \"#utility.yul\":17516:17534   */\n      tag_432\n      tag_233\n      jump\t// in\n    tag_432:\n        /* \"#utility.yul\":17433:17536   */\n    tag_431:\n        /* \"#utility.yul\":17563:17564   */\n      0x01\n        /* \"#utility.yul\":17556:17561   */\n      dup3\n        /* \"#utility.yul\":17552:17565   */\n      add\n        /* \"#utility.yul\":17545:17565   */\n      swap1\n      pop\n        /* \"#utility.yul\":17338:17571   */\n      swap2\n      swap1\n      pop\n      jump\t// out\n        /* \"#utility.yul\":17577:17768   */\n    tag_146:\n        /* \"#utility.yul\":17617:17620   */\n      0x00\n        /* \"#utility.yul\":17636:17656   */\n      tag_434\n        /* \"#utility.yul\":17654:17655   */\n      dup3\n        /* \"#utility.yul\":17636:17656   */\n      tag_212\n      jump\t// in\n    tag_434:\n        /* \"#utility.yul\":17631:17656   */\n      swap2\n      pop\n        /* \"#utility.yul\":17670:17690   */\n      tag_435\n        /* \"#utility.yul\":17688:17689   */\n      dup4\n        /* \"#utility.yul\":17670:17690   */\n      tag_212\n      jump\t// in\n    tag_435:\n        /* \"#utility.yul\":17665:17690   */\n      swap3\n      pop\n        /* \"#utility.yul\":17713:17714   */\n      dup3\n        /* \"#utility.yul\":17710:17711   */\n      dup3\n        /* \"#utility.yul\":17706:17715   */\n      add\n        /* \"#utility.yul\":17699:17715   */\n      swap1\n      pop\n        /* \"#utility.yul\":17734:17737   */\n      dup1\n        /* \"#utility.yul\":17731:17732   */\n      dup3\n        /* \"#utility.yul\":17728:17738   */\n      gt\n        /* \"#utility.yul\":17725:17761   */\n      iszero\n      tag_436\n      jumpi\n        /* \"#utility.yul\":17741:17759   */\n      tag_437\n      tag_233\n      jump\t// in\n    tag_437:\n        /* \"#utility.yul\":17725:17761   */\n    tag_436:\n        /* \"#utility.yul\":17577:17768   */\n      swap3\n      swap2\n      pop\n      pop\n      jump\t// out\n        /* \"#utility.yul\":17774:17946   */\n    tag_236:\n        /* \"#utility.yul\":17914:17938   */\n      0x596f7520617265206e6f7420617574686f72697a656400000000000000000000\n        /* \"#utility.yul\":17910:17911   */\n      0x00\n        /* \"#utility.yul\":17902:17908   */\n      dup3\n        /* \"#utility.yul\":17898:17912   */\n      add\n        /* \"#utility.yul\":17891:17939   */\n      mstore\n        /* \"#utility.yul\":17774:17946   */\n      pop\n      jump\t// out\n        /* \"#utility.yul\":17952:18318   */\n    tag_237:\n        /* \"#utility.yul\":18094:18097   */\n      0x00\n        /* \"#utility.yul\":18115:18182   */\n      tag_440\n        /* \"#utility.yul\":18179:18181   */\n      0x16\n        /* \"#utility.yul\":18174:18177   */\n      dup4\n        /* \"#utility.yul\":18115:18182   */\n      tag_217\n      jump\t// in\n    tag_440:\n        /* \"#utility.yul\":18108:18182   */\n      swap2\n      pop\n        /* \"#utility.yul\":18191:18284   */\n      tag_441\n        /* \"#utility.yul\":18280:18283   */\n      dup3\n        /* \"#utility.yul\":18191:18284   */\n      tag_236\n      jump\t// in\n    tag_441:\n        /* \"#utility.yul\":18309:18311   */\n      0x20\n        /* \"#utility.yul\":18304:18307   */\n      dup3\n        /* \"#utility.yul\":18300:18312   */\n      add\n        /* \"#utility.yul\":18293:18312   */\n      swap1\n      pop\n        /* \"#utility.yul\":17952:18318   */\n      swap2\n      swap1\n      pop\n      jump\t// out\n        /* \"#utility.yul\":18324:18743   */\n    tag_171:\n        /* \"#utility.yul\":18490:18494   */\n      0x00\n        /* \"#utility.yul\":18528:18530   */\n      0x20\n        /* \"#utility.yul\":18517:18526   */\n      dup3\n        /* \"#utility.yul\":18513:18531   */\n      add\n        /* \"#utility.yul\":18505:18531   */\n      swap1\n      pop\n        /* \"#utility.yul\":18577:18586   */\n      dup2\n        /* \"#utility.yul\":18571:18575   */\n      dup2\n        /* \"#utility.yul\":18567:18587   */\n      sub\n        /* \"#utility.yul\":18563:18564   */\n      0x00\n        /* \"#utility.yul\":18552:18561   */\n      dup4\n        /* \"#utility.yul\":18548:18565   */\n      add\n        /* \"#utility.yul\":18541:18588   */\n      mstore\n        /* \"#utility.yul\":18605:18736   */\n      tag_443\n        /* \"#utility.yul\":18731:18735   */\n      dup2\n        /* \"#utility.yul\":18605:18736   */\n      tag_237\n      jump\t// in\n    tag_443:\n        /* \"#utility.yul\":18597:18736   */\n      swap1\n      pop\n        /* \"#utility.yul\":18324:18743   */\n      swap2\n      swap1\n      pop\n      jump\t// out\n        /* \"#utility.yul\":18749:18928   */\n    tag_238:\n        /* \"#utility.yul\":18889:18920   */\n      0x547765657420636f6e74656e742063616e6e6f7420626520656d707479000000\n        /* \"#utility.yul\":18885:18886   */\n      0x00\n        /* \"#utility.yul\":18877:18883   */\n      dup3\n        /* \"#utility.yul\":18873:18887   */\n      add\n        /* \"#utility.yul\":18866:18921   */\n      mstore\n        /* \"#utility.yul\":18749:18928   */\n      pop\n      jump\t// out\n        /* \"#utility.yul\":18934:19300   */\n    tag_239:\n        /* \"#utility.yul\":19076:19079   */\n      0x00\n        /* \"#utility.yul\":19097:19164   */\n      tag_446\n        /* \"#utility.yul\":19161:19163   */\n      0x1d\n        /* \"#utility.yul\":19156:19159   */\n      dup4\n        /* \"#utility.yul\":19097:19164   */\n      tag_217\n      jump\t// in\n    tag_446:\n        /* \"#utility.yul\":19090:19164   */\n      swap2\n      pop\n        /* \"#utility.yul\":19173:19266   */\n      tag_447\n        /* \"#utility.yul\":19262:19265   */\n      dup3\n        /* \"#utility.yul\":19173:19266   */\n      tag_238\n      jump\t// in\n    tag_447:\n        /* \"#utility.yul\":19291:19293   */\n      0x20\n        /* \"#utility.yul\":19286:19289   */\n      dup3\n        /* \"#utility.yul\":19282:19294   */\n      add\n        /* \"#utility.yul\":19275:19294   */\n      swap1\n      pop\n        /* \"#utility.yul\":18934:19300   */\n      swap2\n      swap1\n      pop\n      jump\t// out\n        /* \"#utility.yul\":19306:19725   */\n    tag_175:\n        /* \"#utility.yul\":19472:19476   */\n      0x00\n        /* \"#utility.yul\":19510:19512   */\n      0x20\n        /* \"#utility.yul\":19499:19508   */\n      dup3\n        /* \"#utility.yul\":19495:19513   */\n      add\n        /* \"#utility.yul\":19487:19513   */\n      swap1\n      pop\n        /* \"#utility.yul\":19559:19568   */\n      dup2\n        /* \"#utility.yul\":19553:19557   */\n      dup2\n        /* \"#utility.yul\":19549:19569   */\n      sub\n        /* \"#utility.yul\":19545:19546   */\n      0x00\n        /* \"#utility.yul\":19534:19543   */\n      dup4\n        /* \"#utility.yul\":19530:19547   */\n      add\n        /* \"#utility.yul\":19523:19570   */\n      mstore\n        /* \"#utility.yul\":19587:19718   */\n      tag_449\n        /* \"#utility.yul\":19713:19717   */\n      dup2\n        /* \"#utility.yul\":19587:19718   */\n      tag_239\n      jump\t// in\n    tag_449:\n        /* \"#utility.yul\":19579:19718   */\n      swap1\n      pop\n        /* \"#utility.yul\":19306:19725   */\n      swap2\n      swap1\n      pop\n      jump\t// out\n        /* \"#utility.yul\":19731:19872   */\n    tag_240:\n        /* \"#utility.yul\":19780:19784   */\n      0x00\n        /* \"#utility.yul\":19803:19806   */\n      dup2\n        /* \"#utility.yul\":19795:19806   */\n      swap1\n      pop\n        /* \"#utility.yul\":19826:19829   */\n      dup2\n        /* \"#utility.yul\":19823:19824   */\n      0x00\n        /* \"#utility.yul\":19816:19830   */\n      mstore\n        /* \"#utility.yul\":19860:19864   */\n      0x20\n        /* \"#utility.yul\":19857:19858   */\n      0x00\n        /* \"#utility.yul\":19847:19865   */\n      keccak256\n        /* \"#utility.yul\":19839:19865   */\n      swap1\n      pop\n        /* \"#utility.yul\":19731:19872   */\n      swap2\n      swap1\n      pop\n      jump\t// out\n        /* \"#utility.yul\":19878:19971   */\n    tag_241:\n        /* \"#utility.yul\":19915:19921   */\n      0x00\n        /* \"#utility.yul\":19962:19964   */\n      0x20\n        /* \"#utility.yul\":19957:19959   */\n      0x1f\n        /* \"#utility.yul\":19950:19955   */\n      dup4\n        /* \"#utility.yul\":19946:19960   */\n      add\n        /* \"#utility.yul\":19942:19965   */\n      div\n        /* \"#utility.yul\":19932:19965   */\n      swap1\n      pop\n        /* \"#utility.yul\":19878:19971   */\n      swap2\n      swap1\n      pop\n      jump\t// out\n        /* \"#utility.yul\":19977:20084   */\n    tag_242:\n        /* \"#utility.yul\":20021:20029   */\n      0x00\n        /* \"#utility.yul\":20071:20076   */\n      dup3\n        /* \"#utility.yul\":20065:20069   */\n      dup3\n        /* \"#utility.yul\":20061:20077   */\n      shl\n        /* \"#utility.yul\":20040:20077   */\n      swap1\n      pop\n        /* \"#utility.yul\":19977:20084   */\n      swap3\n      swap2\n      pop\n      pop\n      jump\t// out\n        /* \"#utility.yul\":20090:20483   */\n    tag_243:\n        /* \"#utility.yul\":20159:20165   */\n      0x00\n        /* \"#utility.yul\":20209:20210   */\n      0x08\n        /* \"#utility.yul\":20197:20207   */\n      dup4\n        /* \"#utility.yul\":20193:20211   */\n      mul\n        /* \"#utility.yul\":20232:20329   */\n      tag_454\n        /* \"#utility.yul\":20262:20328   */\n      0xffffffffffffffffffffffffffffffffffffffffffffffffffffffffffffffff\n        /* \"#utility.yul\":20251:20260   */\n      dup3\n        /* \"#utility.yul\":20232:20329   */\n      tag_242\n      jump\t// in\n    tag_454:\n        /* \"#utility.yul\":20350:20389   */\n      tag_455\n        /* \"#utility.yul\":20380:20388   */\n      dup7\n        /* \"#utility.yul\":20369:20378   */\n      dup4\n        /* \"#utility.yul\":20350:20389   */\n      tag_242\n      jump\t// in\n    tag_455:\n        /* \"#utility.yul\":20338:20389   */\n      swap6\n      pop\n        /* \"#utility.yul\":20422:20426   */\n      dup1\n        /* \"#utility.yul\":20418:20427   */\n      not\n        /* \"#utility.yul\":20411:20416   */\n      dup5\n        /* \"#utility.yul\":20407:20428   */\n      and\n        /* \"#utility.yul\":20398:20428   */\n      swap4\n      pop\n        /* \"#utility.yul\":20471:20475   */\n      dup1\n        /* \"#utility.yul\":20461:20469   */\n      dup7\n        /* \"#utility.yul\":20457:20476   */\n      and\n        /* \"#utility.yul\":20450:20455   */\n      dup5\n        /* \"#utility.yul\":20447:20477   */\n      or\n        /* \"#utility.yul\":20437:20477   */\n      swap3\n      pop\n        /* \"#utility.yul\":20166:20483   */\n      pop\n      pop\n        /* \"#utility.yul\":20090:20483   */\n      swap4\n      swap3\n      pop\n      pop\n      pop\n      jump\t// out\n        /* \"#utility.yul\":20489:20549   */\n    tag_244:\n        /* \"#utility.yul\":20517:20520   */\n      0x00\n        /* \"#utility.yul\":20538:20543   */\n      dup2\n        /* \"#utility.yul\":20531:20543   */\n      swap1\n      pop\n        /* \"#utility.yul\":20489:20549   */\n      swap2\n      swap1\n      pop\n      jump\t// out\n        /* \"#utility.yul\":20555:20697   */\n    tag_245:\n        /* \"#utility.yul\":20605:20614   */\n      0x00\n        /* \"#utility.yul\":20638:20691   */\n      tag_458\n        /* \"#utility.yul\":20656:20690   */\n      tag_459\n        /* \"#utility.yul\":20665:20689   */\n      tag_460\n        /* \"#utility.yul\":20683:20688   */\n      dup5\n        /* \"#utility.yul\":20665:20689   */\n      tag_212\n      jump\t// in\n    tag_460:\n        /* \"#utility.yul\":20656:20690   */\n      tag_244\n      jump\t// in\n    tag_459:\n        /* \"#utility.yul\":20638:20691   */\n      tag_212\n      jump\t// in\n    tag_458:\n        /* \"#utility.yul\":20625:20691   */\n      swap1\n      pop\n        /* \"#utility.yul\":20555:20697   */\n      swap2\n      swap1\n      pop\n      jump\t// out\n        /* \"#utility.yul\":20703:20778   */\n    tag_246:\n        /* \"#utility.yul\":20746:20749   */\n      0x00\n        /* \"#utility.yul\":20767:20772   */\n      dup2\n        /* \"#utility.yul\":20760:20772   */\n      swap1\n      pop\n        /* \"#utility.yul\":20703:20778   */\n      swap2\n      swap1\n      pop\n      jump\t// out\n        /* \"#utility.yul\":20784:21053   */\n    tag_247:\n        /* \"#utility.yul\":20894:20933   */\n      tag_463\n        /* \"#utility.yul\":20925:20932   */\n      dup4\n        /* \"#utility.yul\":20894:20933   */\n      tag_245\n      jump\t// in\n    tag_463:\n        /* \"#utility.yul\":20955:21046   */\n      tag_464\n        /* \"#utility.yul\":21004:21045   */\n      tag_465\n        /* \"#utility.yul\":21028:21044   */\n      dup3\n        /* \"#utility.yul\":21004:21045   */\n      tag_246\n      jump\t// in\n    tag_465:\n        /* \"#utility.yul\":20996:21002   */\n      dup5\n        /* \"#utility.yul\":20989:20993   */\n      dup5\n        /* \"#utility.yul\":20983:20994   */\n      sload\n        /* \"#utility.yul\":20955:21046   */\n      tag_243\n      jump\t// in\n    tag_464:\n        /* \"#utility.yul\":20949:20953   */\n      dup3\n        /* \"#utility.yul\":20942:21047   */\n      sstore\n        /* \"#utility.yul\":20860:21053   */\n      pop\n        /* \"#utility.yul\":20784:21053   */\n      pop\n      pop\n      pop\n      jump\t// out\n        /* \"#utility.yul\":21059:21132   */\n    tag_248:\n        /* \"#utility.yul\":21104:21107   */\n      0x00\n        /* \"#utility.yul\":21059:21132   */\n      swap1\n      jump\t// out\n        /* \"#utility.yul\":21138:21327   */\n    tag_249:\n        /* \"#utility.yul\":21215:21247   */\n      tag_468\n      tag_248\n      jump\t// in\n    tag_468:\n        /* \"#utility.yul\":21256:21321   */\n      tag_469\n        /* \"#utility.yul\":21314:21320   */\n      dup2\n        /* \"#utility.yul\":21306:21312   */\n      dup5\n        /* \"#utility.yul\":21300:21304   */\n      dup5\n        /* \"#utility.yul\":21256:21321   */\n      tag_247\n      jump\t// in\n    tag_469:\n        /* \"#utility.yul\":21191:21327   */\n      pop\n        /* \"#utility.yul\":21138:21327   */\n      pop\n      pop\n      jump\t// out\n        /* \"#utility.yul\":21333:21519   */\n    tag_250:\n        /* \"#utility.yul\":21393:21513   */\n    tag_471:\n        /* \"#utility.yul\":21410:21413   */\n      dup2\n        /* \"#utility.yul\":21403:21408   */\n      dup2\n        /* \"#utility.yul\":21400:21414   */\n      lt\n        /* \"#utility.yul\":21393:21513   */\n      iszero\n      tag_473\n      jumpi\n        /* \"#utility.yul\":21464:21503   */\n      tag_474\n        /* \"#utility.yul\":21501:21502   */\n      0x00\n        /* \"#utility.yul\":21494:21499   */\n      dup3\n        /* \"#utility.yul\":21464:21503   */\n      tag_249\n      jump\t// in\n    tag_474:\n        /* \"#utility.yul\":21437:21438   */\n      0x01\n        /* \"#utility.yul\":21430:21435   */\n      dup2\n        /* \"#utility.yul\":21426:21439   */\n      add\n        /* \"#utility.yul\":21417:21439   */\n      swap1\n      pop\n        /* \"#utility.yul\":21393:21513   */\n      jump(tag_471)\n    tag_473:\n        /* \"#utility.yul\":21333:21519   */\n      pop\n      pop\n      jump\t// out\n        /* \"#utility.yul\":21525:22068   */\n    tag_251:\n        /* \"#utility.yul\":21626:21628   */\n      0x1f\n        /* \"#utility.yul\":21621:21624   */\n      dup3\n        /* \"#utility.yul\":21618:21629   */\n      gt\n        /* \"#utility.yul\":21615:22061   */\n      iszero\n      tag_476\n      jumpi\n        /* \"#utility.yul\":21660:21698   */\n      tag_477\n        /* \"#utility.yul\":21692:21697   */\n      dup2\n        /* \"#utility.yul\":21660:21698   */\n      tag_240\n      jump\t// in\n    tag_477:\n        /* \"#utility.yul\":21744:21773   */\n      tag_478\n        /* \"#utility.yul\":21762:21772   */\n      dup5\n        /* \"#utility.yul\":21744:21773   */\n      tag_241\n      jump\t// in\n    tag_478:\n        /* \"#utility.yul\":21734:21742   */\n      dup2\n        /* \"#utility.yul\":21730:21774   */\n      add\n        /* \"#utility.yul\":21927:21929   */\n      0x20\n        /* \"#utility.yul\":21915:21925   */\n      dup6\n        /* \"#utility.yul\":21912:21930   */\n      lt\n        /* \"#utility.yul\":21909:21958   */\n      iszero\n      tag_479\n      jumpi\n        /* \"#utility.yul\":21948:21956   */\n      dup2\n        /* \"#utility.yul\":21933:21956   */\n      swap1\n      pop\n        /* \"#utility.yul\":21909:21958   */\n    tag_479:\n        /* \"#utility.yul\":21971:22051   */\n      tag_480\n        /* \"#utility.yul\":22027:22049   */\n      tag_481\n        /* \"#utility.yul\":22045:22048   */\n      dup6\n        /* \"#utility.yul\":22027:22049   */\n      tag_241\n      jump\t// in\n    tag_481:\n        /* \"#utility.yul\":22017:22025   */\n      dup4\n        /* \"#utility.yul\":22013:22050   */\n      add\n        /* \"#utility.yul\":22000:22011   */\n      dup3\n        /* \"#utility.yul\":21971:22051   */\n      tag_250\n      jump\t// in\n    tag_480:\n        /* \"#utility.yul\":21630:22061   */\n      pop\n      pop\n        /* \"#utility.yul\":21615:22061   */\n    tag_476:\n        /* \"#utility.yul\":21525:22068   */\n      pop\n      pop\n      pop\n      jump\t// out\n        /* \"#utility.yul\":22074:22191   */\n    tag_252:\n        /* \"#utility.yul\":22128:22136   */\n      0x00\n        /* \"#utility.yul\":22178:22183   */\n      dup3\n        /* \"#utility.yul\":22172:22176   */\n      dup3\n        /* \"#utility.yul\":22168:22184   */\n      shr\n        /* \"#utility.yul\":22147:22184   */\n      swap1\n      pop\n        /* \"#utility.yul\":22074:22191   */\n      swap3\n      swap2\n      pop\n      pop\n      jump\t// out\n        /* \"#utility.yul\":22197:22366   */\n    tag_253:\n        /* \"#utility.yul\":22241:22247   */\n      0x00\n        /* \"#utility.yul\":22274:22325   */\n      tag_484\n        /* \"#utility.yul\":22322:22323   */\n      0x00\n        /* \"#utility.yul\":22318:22324   */\n      not\n        /* \"#utility.yul\":22310:22315   */\n      dup5\n        /* \"#utility.yul\":22307:22308   */\n      0x08\n        /* \"#utility.yul\":22303:22316   */\n      mul\n        /* \"#utility.yul\":22274:22325   */\n      tag_252\n      jump\t// in\n    tag_484:\n        /* \"#utility.yul\":22270:22326   */\n      not\n        /* \"#utility.yul\":22355:22359   */\n      dup1\n        /* \"#utility.yul\":22349:22353   */\n      dup4\n        /* \"#utility.yul\":22345:22360   */\n      and\n        /* \"#utility.yul\":22335:22360   */\n      swap2\n      pop\n        /* \"#utility.yul\":22248:22366   */\n      pop\n        /* \"#utility.yul\":22197:22366   */\n      swap3\n      swap2\n      pop\n      pop\n      jump\t// out\n        /* \"#utility.yul\":22371:22666   */\n    tag_254:\n        /* \"#utility.yul\":22447:22451   */\n      0x00\n        /* \"#utility.yul\":22593:22622   */\n      tag_486\n        /* \"#utility.yul\":22618:22621   */\n      dup4\n        /* \"#utility.yul\":22612:22616   */\n      dup4\n        /* \"#utility.yul\":22593:22622   */\n      tag_253\n      jump\t// in\n    tag_486:\n        /* \"#utility.yul\":22585:22622   */\n      swap2\n      pop\n        /* \"#utility.yul\":22655:22658   */\n      dup3\n        /* \"#utility.yul\":22652:22653   */\n      0x02\n        /* \"#utility.yul\":22648:22659   */\n      mul\n        /* \"#utility.yul\":22642:22646   */\n      dup3\n        /* \"#utility.yul\":22639:22660   */\n      or\n        /* \"#utility.yul\":22631:22660   */\n      swap1\n      pop\n        /* \"#utility.yul\":22371:22666   */\n      swap3\n      swap2\n      pop\n      pop\n      jump\t// out\n        /* \"#utility.yul\":22671:24066   */\n    tag_177:\n        /* \"#utility.yul\":22788:22825   */\n      tag_488\n        /* \"#utility.yul\":22821:22824   */\n      dup3\n        /* \"#utility.yul\":22788:22825   */\n      tag_216\n      jump\t// in\n    tag_488:\n        /* \"#utility.yul\":22890:22908   */\n      0xffffffffffffffff\n        /* \"#utility.yul\":22882:22888   */\n      dup2\n        /* \"#utility.yul\":22879:22909   */\n      gt\n        /* \"#utility.yul\":22876:22932   */\n      iszero\n      tag_489\n      jumpi\n        /* \"#utility.yul\":22912:22930   */\n      tag_490\n      tag_105\n      jump\t// in\n    tag_490:\n        /* \"#utility.yul\":22876:22932   */\n    tag_489:\n        /* \"#utility.yul\":22956:22994   */\n      tag_491\n        /* \"#utility.yul\":22988:22992   */\n      dup3\n        /* \"#utility.yul\":22982:22993   */\n      sload\n        /* \"#utility.yul\":22956:22994   */\n      tag_89\n      jump\t// in\n    tag_491:\n        /* \"#utility.yul\":23041:23108   */\n      tag_492\n        /* \"#utility.yul\":23101:23107   */\n      dup3\n        /* \"#utility.yul\":23093:23099   */\n      dup3\n        /* \"#utility.yul\":23087:23091   */\n      dup6\n        /* \"#utility.yul\":23041:23108   */\n      tag_251\n      jump\t// in\n    tag_492:\n        /* \"#utility.yul\":23135:23136   */\n      0x00\n        /* \"#utility.yul\":23159:23163   */\n      0x20\n        /* \"#utility.yul\":23146:23163   */\n      swap1\n      pop\n        /* \"#utility.yul\":23191:23193   */\n      0x1f\n        /* \"#utility.yul\":23183:23189   */\n      dup4\n        /* \"#utility.yul\":23180:23194   */\n      gt\n        /* \"#utility.yul\":23208:23209   */\n      0x01\n        /* \"#utility.yul\":23203:23821   */\n      dup2\n      eq\n      tag_494\n      jumpi\n        /* \"#utility.yul\":23865:23866   */\n      0x00\n        /* \"#utility.yul\":23882:23888   */\n      dup5\n        /* \"#utility.yul\":23879:23956   */\n      iszero\n      tag_495\n      jumpi\n        /* \"#utility.yul\":23931:23940   */\n      dup3\n        /* \"#utility.yul\":23926:23929   */\n      dup8\n        /* \"#utility.yul\":23922:23941   */\n      add\n        /* \"#utility.yul\":23916:23942   */\n      mload\n        /* \"#utility.yul\":23907:23942   */\n      swap1\n      pop\n        /* \"#utility.yul\":23879:23956   */\n    tag_495:\n        /* \"#utility.yul\":23982:24049   */\n      tag_496\n        /* \"#utility.yul\":24042:24048   */\n      dup6\n        /* \"#utility.yul\":24035:24040   */\n      dup3\n        /* \"#utility.yul\":23982:24049   */\n      tag_254\n      jump\t// in\n    tag_496:\n        /* \"#utility.yul\":23976:23980   */\n      dup7\n        /* \"#utility.yul\":23969:24050   */\n      sstore\n        /* \"#utility.yul\":23838:24060   */\n      pop\n        /* \"#utility.yul\":23173:24060   */\n      jump(tag_493)\n        /* \"#utility.yul\":23203:23821   */\n    tag_494:\n        /* \"#utility.yul\":23255:23259   */\n      0x1f\n        /* \"#utility.yul\":23251:23260   */\n      not\n        /* \"#utility.yul\":23243:23249   */\n      dup5\n        /* \"#utility.yul\":23239:23261   */\n      and\n        /* \"#utility.yul\":23289:23326   */\n      tag_497\n        /* \"#utility.yul\":23321:23325   */\n      dup7\n        /* \"#utility.yul\":23289:23326   */\n      tag_240\n      jump\t// in\n    tag_497:\n        /* \"#utility.yul\":23348:23349   */\n      0x00\n        /* \"#utility.yul\":23362:23570   */\n    tag_498:\n        /* \"#utility.yul\":23376:23383   */\n      dup3\n        /* \"#utility.yul\":23373:23374   */\n      dup2\n        /* \"#utility.yul\":23370:23384   */\n      lt\n        /* \"#utility.yul\":23362:23570   */\n      iszero\n      tag_500\n      jumpi\n        /* \"#utility.yul\":23455:23464   */\n      dup5\n        /* \"#utility.yul\":23450:23453   */\n      dup10\n        /* \"#utility.yul\":23446:23465   */\n      add\n        /* \"#utility.yul\":23440:23466   */\n      mload\n        /* \"#utility.yul\":23432:23438   */\n      dup3\n        /* \"#utility.yul\":23425:23467   */\n      sstore\n        /* \"#utility.yul\":23506:23507   */\n      0x01\n        /* \"#utility.yul\":23498:23504   */\n      dup3\n        /* \"#utility.yul\":23494:23508   */\n      add\n        /* \"#utility.yul\":23484:23508   */\n      swap2\n      pop\n        /* \"#utility.yul\":23553:23555   */\n      0x20\n        /* \"#utility.yul\":23542:23551   */\n      dup6\n        /* \"#utility.yul\":23538:23556   */\n      add\n        /* \"#utility.yul\":23525:23556   */\n      swap5\n      pop\n        /* \"#utility.yul\":23399:23403   */\n      0x20\n        /* \"#utility.yul\":23396:23397   */\n      dup2\n        /* \"#utility.yul\":23392:23404   */\n      add\n        /* \"#utility.yul\":23387:23404   */\n      swap1\n      pop\n        /* \"#utility.yul\":23362:23570   */\n      jump(tag_498)\n    tag_500:\n        /* \"#utility.yul\":23598:23604   */\n      dup7\n        /* \"#utility.yul\":23589:23596   */\n      dup4\n        /* \"#utility.yul\":23586:23605   */\n      lt\n        /* \"#utility.yul\":23583:23762   */\n      iszero\n      tag_501\n      jumpi\n        /* \"#utility.yul\":23656:23665   */\n      dup5\n        /* \"#utility.yul\":23651:23654   */\n      dup10\n        /* \"#utility.yul\":23647:23666   */\n      add\n        /* \"#utility.yul\":23641:23667   */\n      mload\n        /* \"#utility.yul\":23699:23747   */\n      tag_502\n        /* \"#utility.yul\":23741:23745   */\n      0x1f\n        /* \"#utility.yul\":23733:23739   */\n      dup10\n        /* \"#utility.yul\":23729:23746   */\n      and\n        /* \"#utility.yul\":23718:23727   */\n      dup3\n        /* \"#utility.yul\":23699:23747   */\n      tag_253\n      jump\t// in\n    tag_502:\n        /* \"#utility.yul\":23691:23697   */\n      dup4\n        /* \"#utility.yul\":23684:23748   */\n      sstore\n        /* \"#utility.yul\":23606:23762   */\n      pop\n        /* \"#utility.yul\":23583:23762   */\n    tag_501:\n        /* \"#utility.yul\":23808:23809   */\n      0x01\n        /* \"#utility.yul\":23804:23805   */\n      0x02\n        /* \"#utility.yul\":23796:23802   */\n      dup9\n        /* \"#utility.yul\":23792:23806   */\n      mul\n        /* \"#utility.yul\":23788:23810   */\n      add\n        /* \"#utility.yul\":23782:23786   */\n      dup9\n        /* \"#utility.yul\":23775:23811   */\n      sstore\n        /* \"#utility.yul\":23210:23821   */\n      pop\n      pop\n      pop\n        /* \"#utility.yul\":23173:24060   */\n    tag_493:\n      pop\n        /* \"#utility.yul\":22763:24066   */\n      pop\n      pop\n      pop\n        /* \"#utility.yul\":22671:24066   */\n      pop\n      pop\n      jump\t// out\n        /* \"#utility.yul\":24072:24495   */\n    tag_180:\n        /* \"#utility.yul\":24213:24217   */\n      0x00\n        /* \"#utility.yul\":24251:24253   */\n      0x40\n        /* \"#utility.yul\":24240:24249   */\n      dup3\n        /* \"#utility.yul\":24236:24254   */\n      add\n        /* \"#utility.yul\":24228:24254   */\n      swap1\n      pop\n        /* \"#utility.yul\":24300:24309   */\n      dup2\n        /* \"#utility.yul\":24294:24298   */\n      dup2\n        /* \"#utility.yul\":24290:24310   */\n      sub\n        /* \"#utility.yul\":24286:24287   */\n      0x00\n        /* \"#utility.yul\":24275:24284   */\n      dup4\n        /* \"#utility.yul\":24271:24288   */\n      add\n        /* \"#utility.yul\":24264:24311   */\n      mstore\n        /* \"#utility.yul\":24328:24406   */\n      tag_504\n        /* \"#utility.yul\":24401:24405   */\n      dup2\n        /* \"#utility.yul\":24392:24398   */\n      dup6\n        /* \"#utility.yul\":24328:24406   */\n      tag_219\n      jump\t// in\n    tag_504:\n        /* \"#utility.yul\":24320:24406   */\n      swap1\n      pop\n        /* \"#utility.yul\":24416:24488   */\n      tag_505\n        /* \"#utility.yul\":24484:24486   */\n      0x20\n        /* \"#utility.yul\":24473:24482   */\n      dup4\n        /* \"#utility.yul\":24469:24487   */\n      add\n        /* \"#utility.yul\":24460:24466   */\n      dup5\n        /* \"#utility.yul\":24416:24488   */\n      tag_215\n      jump\t// in\n    tag_505:\n        /* \"#utility.yul\":24072:24495   */\n      swap4\n      swap3\n      pop\n      pop\n      pop\n      jump\t// out\n        /* \"#utility.yul\":24501:24682   */\n    tag_255:\n        /* \"#utility.yul\":24641:24674   */\n      0x4d65737361676520636f6e74656e742063616e6e6f7420626520656d70747900\n        /* \"#utility.yul\":24637:24638   */\n      0x00\n        /* \"#utility.yul\":24629:24635   */\n      dup3\n        /* \"#utility.yul\":24625:24639   */\n      add\n        /* \"#utility.yul\":24618:24675   */\n      mstore\n        /* \"#utility.yul\":24501:24682   */\n      pop\n      jump\t// out\n        /* \"#utility.yul\":24688:25054   */\n    tag_256:\n        /* \"#utility.yul\":24830:24833   */\n      0x00\n        /* \"#utility.yul\":24851:24918   */\n      tag_508\n        /* \"#utility.yul\":24915:24917   */\n      0x1f\n        /* \"#utility.yul\":24910:24913   */\n      dup4\n        /* \"#utility.yul\":24851:24918   */\n      tag_217\n      jump\t// in\n    tag_508:\n        /* \"#utility.yul\":24844:24918   */\n      swap2\n      pop\n        /* \"#utility.yul\":24927:25020   */\n      tag_509\n        /* \"#utility.yul\":25016:25019   */\n      dup3\n        /* \"#utility.yul\":24927:25020   */\n      tag_255\n      jump\t// in\n    tag_509:\n        /* \"#utility.yul\":25045:25047   */\n      0x20\n        /* \"#utility.yul\":25040:25043   */\n      dup3\n        /* \"#utility.yul\":25036:25048   */\n      add\n        /* \"#utility.yul\":25029:25048   */\n      swap1\n      pop\n        /* \"#utility.yul\":24688:25054   */\n      swap2\n      swap1\n      pop\n      jump\t// out\n        /* \"#utility.yul\":25060:25479   */\n    tag_189:\n        /* \"#utility.yul\":25226:25230   */\n      0x00\n        /* \"#utility.yul\":25264:25266   */\n      0x20\n        /* \"#utility.yul\":25253:25262   */\n      dup3\n        /* \"#utility.yul\":25249:25267   */\n      add\n        /* \"#utility.yul\":25241:25267   */\n      swap1\n      pop\n        /* \"#utility.yul\":25313:25322   */\n      dup2\n        /* \"#utility.yul\":25307:25311   */\n      dup2\n        /* \"#utility.yul\":25303:25323   */\n      sub\n        /* \"#utility.yul\":25299:25300   */\n      0x00\n        /* \"#utility.yul\":25288:25297   */\n      dup4\n        /* \"#utility.yul\":25284:25301   */\n      add\n        /* \"#utility.yul\":25277:25324   */\n      mstore\n        /* \"#utility.yul\":25341:25472   */\n      tag_511\n        /* \"#utility.yul\":25467:25471   */\n      dup2\n        /* \"#utility.yul\":25341:25472   */\n      tag_256\n      jump\t// in\n    tag_511:\n        /* \"#utility.yul\":25333:25472   */\n      swap1\n      pop\n        /* \"#utility.yul\":25060:25479   */\n      swap2\n      swap1\n      pop\n      jump\t// out\n\n    auxdata: 0xa26469706673582212203decbed852fa3aa9310ea5db0ff0534010607b5254a0a38f8ae9ed6eb468991064736f6c634300081a0033\n}\n",
				"bytecode": {
					"linkReferences": {},
					"object": "6080604052600160055560016006553480156018575f80fd5b506120ab806100265f395ff3fe608060405234801561000f575f80fd5b50600436106100e8575f3560e01c8063af22bf941161008a578063d3e148bd11610064578063d3e148bd14610280578063e8d857b01461029c578063fad8b32a146102cf578063fb46d4c5146102eb576100e8565b8063af22bf9414610204578063c48d6d5e14610234578063c8e5c8a214610250576100e8565b80634dbf27cc116100c65780634dbf27cc1461016c5780634dc0a687146101885780639139cda5146101b8578063959b8c3f146101e8576100e8565b80632637588e146100ec5780632b0afc6f1461011c5780633befea0914610138575b5f80fd5b61010660048036038101906101019190611409565b610307565b6040516101139190611461565b60405180910390f35b610136600480360381019061013191906115b6565b610331565b005b610152600480360381019061014d9190611643565b61033f565b6040516101639594939291906116ff565b60405180910390f35b61018660048036038101906101819190611757565b61044f565b005b6101a2600480360381019061019d9190611782565b610547565b6040516101af919061192e565b60405180910390f35b6101d260048036038101906101cd9190611643565b610770565b6040516101df919061194e565b60405180910390f35b61020260048036038101906101fd9190611757565b6107b8565b005b61021e60048036038101906102199190611643565b6108a5565b60405161022b9190611967565b60405180910390f35b61024e60048036038101906102499190611980565b6108d0565b005b61026a60048036038101906102659190611643565b6108df565b604051610277919061192e565b60405180910390f35b61029a600480360381019061029591906119da565b610b8b565b005b6102b660048036038101906102b19190611782565b610b9b565b6040516102c69493929190611a46565b60405180910390f35b6102e960048036038101906102e49190611757565b610c6b565b005b61030560048036038101906103009190611a90565b610d57565b005b6003602052815f5260405f20602052805f5260405f205f915091509054906101000a900460ff1681565b61033b8282610d64565b5050565b6002602052815f5260405f208181548110610358575f80fd5b905f5260205f2090600502015f9150915050805f01549080600101805461037e90611b04565b80601f01602080910402602001604051908101604052809291908181526020018280546103aa90611b04565b80156103f55780601f106103cc576101008083540402835291602001916103f5565b820191905f5260205f20905b8154815290600101906020018083116103d857829003601f168201915b505050505090806002015f9054906101000a900473ffffffffffffffffffffffffffffffffffffffff1690806003015f9054906101000a900473ffffffffffffffffffffffffffffffffffffffff16908060040154905085565b60045f3373ffffffffffffffffffffffffffffffffffffffff1673ffffffffffffffffffffffffffffffffffffffff1681526020019081526020015f2081908060018154018082558091505060019003905f5260205f20015f9091909190916101000a81548173ffffffffffffffffffffffffffffffffffffffff021916908373ffffffffffffffffffffffffffffffffffffffff1602179055508073ffffffffffffffffffffffffffffffffffffffff163373ffffffffffffffffffffffffffffffffffffffff167f6178e95c138f06036cdc07a49ed6a3d23008969fa143baeceb037ebae22e8d1460405160405180910390a350565b60605f82118015610566575060016005546105629190611b61565b8211155b6105a5576040517f08c379a000000000000000000000000000000000000000000000000000000000815260040161059c90611bde565b60405180910390fd5b5f8267ffffffffffffffff8111156105c0576105bf611492565b5b6040519080825280602002602001820160405280156105f957816020015b6105e6611363565b8152602001906001900390816105de5790505b5090505f808460055461060c9190611b61565b90505b600554811015610765575f808281526020019081526020015f206040518060800160405290815f8201548152602001600182015f9054906101000a900473ffffffffffffffffffffffffffffffffffffffff1673ffffffffffffffffffffffffffffffffffffffff1673ffffffffffffffffffffffffffffffffffffffff1681526020016002820180546106a290611b04565b80601f01602080910402602001604051908101604052809291908181526020018280546106ce90611b04565b80156107195780601f106106f057610100808354040283529160200191610719565b820191905f5260205f20905b8154815290600101906020018083116106fc57829003601f168201915b5050505050815260200160038201548152505083838151811061073f5761073e611bfc565b5b6020026020010181905250818061075590611c29565b925050808060010191505061060f565b508192505050919050565b6004602052815f5260405f208181548110610789575f80fd5b905f5260205f20015f915091509054906101000a900473ffffffffffffffffffffffffffffffffffffffff1681565b600160035f3373ffffffffffffffffffffffffffffffffffffffff1673ffffffffffffffffffffffffffffffffffffffff1681526020019081526020015f205f8373ffffffffffffffffffffffffffffffffffffffff1673ffffffffffffffffffffffffffffffffffffffff1681526020019081526020015f205f6101000a81548160ff0219169083151502179055508073ffffffffffffffffffffffffffffffffffffffff163373ffffffffffffffffffffffffffffffffffffffff167f4d8c877a9def059a7322c328d7394f8640d101d29c811e10268b9b6125e9025360405160405180910390a350565b6001602052815f5260405f2081815481106108be575f80fd5b905f5260205f20015f91509150505481565b6108db338284611030565b5050565b60605f60015f8573ffffffffffffffffffffffffffffffffffffffff1673ffffffffffffffffffffffffffffffffffffffff1681526020019081526020015f208054905090505f831180156109345750808311155b610973576040517f08c379a000000000000000000000000000000000000000000000000000000000815260040161096a90611bde565b60405180910390fd5b5f8367ffffffffffffffff81111561098e5761098d611492565b5b6040519080825280602002602001820160405280156109c757816020015b6109b4611363565b8152602001906001900390816109ac5790505b5090505f5b84811015610b7f575f8060015f8973ffffffffffffffffffffffffffffffffffffffff1673ffffffffffffffffffffffffffffffffffffffff1681526020019081526020015f20838887610a209190611b61565b610a2a9190611c70565b81548110610a3b57610a3a611bfc565b5b905f5260205f20015481526020019081526020015f206040518060800160405290815f8201548152602001600182015f9054906101000a900473ffffffffffffffffffffffffffffffffffffffff1673ffffffffffffffffffffffffffffffffffffffff1673ffffffffffffffffffffffffffffffffffffffff168152602001600282018054610aca90611b04565b80601f0160208091040260200160405190810160405280929190818152602001828054610af690611b04565b8015610b415780601f10610b1857610100808354040283529160200191610b41565b820191905f5260205f20905b815481529060010190602001808311610b2457829003601f168201915b50505050508152602001600382015481525050828281518110610b6757610b66611bfc565b5b602002602001018190525080806001019150506109cc565b50809250505092915050565b610b96838383611030565b505050565b5f602052805f5260405f205f91509050805f015490806001015f9054906101000a900473ffffffffffffffffffffffffffffffffffffffff1690806002018054610be490611b04565b80601f0160208091040260200160405190810160405280929190818152602001828054610c1090611b04565b8015610c5b5780601f10610c3257610100808354040283529160200191610c5b565b820191905f5260205f20905b815481529060010190602001808311610c3e57829003601f168201915b5050505050908060030154905084565b5f60035f3373ffffffffffffffffffffffffffffffffffffffff1673ffffffffffffffffffffffffffffffffffffffff1681526020019081526020015f205f8373ffffffffffffffffffffffffffffffffffffffff1673ffffffffffffffffffffffffffffffffffffffff1681526020019081526020015f205f6101000a81548160ff0219169083151502179055508073ffffffffffffffffffffffffffffffffffffffff163373ffffffffffffffffffffffffffffffffffffffff167fa8082fae8d1bd57faeb4dde45721b46afb72c45e72e5deb2a355bd997f6251a960405160405180910390a350565b610d613382610d64565b50565b813373ffffffffffffffffffffffffffffffffffffffff168173ffffffffffffffffffffffffffffffffffffffff161480610e20575060035f8273ffffffffffffffffffffffffffffffffffffffff1673ffffffffffffffffffffffffffffffffffffffff1681526020019081526020015f205f3373ffffffffffffffffffffffffffffffffffffffff1673ffffffffffffffffffffffffffffffffffffffff1681526020019081526020015f205f9054906101000a900460ff165b610e5f576040517f08c379a0000000000000000000000000000000000000000000000000000000008152600401610e5690611ced565b60405180910390fd5b5f825111610ea2576040517f08c379a0000000000000000000000000000000000000000000000000000000008152600401610e9990611d55565b60405180910390fd5b604051806080016040528060055481526020018473ffffffffffffffffffffffffffffffffffffffff168152602001838152602001428152505f8060055481526020019081526020015f205f820151815f01556020820151816001015f6101000a81548173ffffffffffffffffffffffffffffffffffffffff021916908373ffffffffffffffffffffffffffffffffffffffff1602179055506040820151816002019081610f509190611f10565b506060820151816003015590505060015f8473ffffffffffffffffffffffffffffffffffffffff1673ffffffffffffffffffffffffffffffffffffffff1681526020019081526020015f20600554908060018154018082558091505060019003905f5260205f20015f90919091909150558273ffffffffffffffffffffffffffffffffffffffff166005547f16fd3c13e9d46923e0a8bce11c7b473ec508a72e6c96cd2404b29ce972afc29e844260405161100c929190611fdf565b60405180910390a360055f81548092919061102690611c29565b9190505550505050565b823373ffffffffffffffffffffffffffffffffffffffff168173ffffffffffffffffffffffffffffffffffffffff1614806110ec575060035f8273ffffffffffffffffffffffffffffffffffffffff1673ffffffffffffffffffffffffffffffffffffffff1681526020019081526020015f205f3373ffffffffffffffffffffffffffffffffffffffff1673ffffffffffffffffffffffffffffffffffffffff1681526020019081526020015f205f9054906101000a900460ff165b61112b576040517f08c379a000000000000000000000000000000000000000000000000000000000815260040161112290611ced565b60405180910390fd5b5f82511161116e576040517f08c379a000000000000000000000000000000000000000000000000000000000815260040161116590612057565b60405180910390fd5b60025f8573ffffffffffffffffffffffffffffffffffffffff1673ffffffffffffffffffffffffffffffffffffffff1681526020019081526020015f206040518060a0016040528060065481526020018481526020018673ffffffffffffffffffffffffffffffffffffffff1681526020018573ffffffffffffffffffffffffffffffffffffffff16815260200142815250908060018154018082558091505060019003905f5260205f2090600502015f909190919091505f820151815f015560208201518160010190816112439190611f10565b506040820151816002015f6101000a81548173ffffffffffffffffffffffffffffffffffffffff021916908373ffffffffffffffffffffffffffffffffffffffff1602179055506060820151816003015f6101000a81548173ffffffffffffffffffffffffffffffffffffffff021916908373ffffffffffffffffffffffffffffffffffffffff1602179055506080820151816004015550508273ffffffffffffffffffffffffffffffffffffffff168473ffffffffffffffffffffffffffffffffffffffff166006547f94d6e4822f4adcde26d85197d96befa68dced8d7db67685000cfc97783260da4854260405161133e929190611fdf565b60405180910390a460065f81548092919061135890611c29565b919050555050505050565b60405180608001604052805f81526020015f73ffffffffffffffffffffffffffffffffffffffff168152602001606081526020015f81525090565b5f604051905090565b5f80fd5b5f80fd5b5f73ffffffffffffffffffffffffffffffffffffffff82169050919050565b5f6113d8826113af565b9050919050565b6113e8816113ce565b81146113f2575f80fd5b50565b5f81359050611403816113df565b92915050565b5f806040838503121561141f5761141e6113a7565b5b5f61142c858286016113f5565b925050602061143d858286016113f5565b9150509250929050565b5f8115159050919050565b61145b81611447565b82525050565b5f6020820190506114745f830184611452565b92915050565b5f80fd5b5f80fd5b5f601f19601f8301169050919050565b7f4e487b71000000000000000000000000000000000000000000000000000000005f52604160045260245ffd5b6114c882611482565b810181811067ffffffffffffffff821117156114e7576114e6611492565b5b80604052505050565b5f6114f961139e565b905061150582826114bf565b919050565b5f67ffffffffffffffff82111561152457611523611492565b5b61152d82611482565b9050602081019050919050565b828183375f83830152505050565b5f61155a6115558461150a565b6114f0565b9050828152602081018484840111156115765761157561147e565b5b61158184828561153a565b509392505050565b5f82601f83011261159d5761159c61147a565b5b81356115ad848260208601611548565b91505092915050565b5f80604083850312156115cc576115cb6113a7565b5b5f6115d9858286016113f5565b925050602083013567ffffffffffffffff8111156115fa576115f96113ab565b5b61160685828601611589565b9150509250929050565b5f819050919050565b61162281611610565b811461162c575f80fd5b50565b5f8135905061163d81611619565b92915050565b5f8060408385031215611659576116586113a7565b5b5f611666858286016113f5565b92505060206116778582860161162f565b9150509250929050565b61168a81611610565b82525050565b5f81519050919050565b5f82825260208201905092915050565b8281835e5f83830152505050565b5f6116c282611690565b6116cc818561169a565b93506116dc8185602086016116aa565b6116e581611482565b840191505092915050565b6116f9816113ce565b82525050565b5f60a0820190506117125f830188611681565b818103602083015261172481876116b8565b905061173360408301866116f0565b61174060608301856116f0565b61174d6080830184611681565b9695505050505050565b5f6020828403121561176c5761176b6113a7565b5b5f611779848285016113f5565b91505092915050565b5f60208284031215611797576117966113a7565b5b5f6117a48482850161162f565b91505092915050565b5f81519050919050565b5f82825260208201905092915050565b5f819050602082019050919050565b6117df81611610565b82525050565b6117ee816113ce565b82525050565b5f82825260208201905092915050565b5f61180e82611690565b61181881856117f4565b93506118288185602086016116aa565b61183181611482565b840191505092915050565b5f608083015f8301516118515f8601826117d6565b50602083015161186460208601826117e5565b506040830151848203604086015261187c8282611804565b915050606083015161189160608601826117d6565b508091505092915050565b5f6118a7838361183c565b905092915050565b5f602082019050919050565b5f6118c5826117ad565b6118cf81856117b7565b9350836020820285016118e1856117c7565b805f5b8581101561191c57848403895281516118fd858261189c565b9450611908836118af565b925060208a019950506001810190506118e4565b50829750879550505050505092915050565b5f6020820190508181035f83015261194681846118bb565b905092915050565b5f6020820190506119615f8301846116f0565b92915050565b5f60208201905061197a5f830184611681565b92915050565b5f8060408385031215611996576119956113a7565b5b5f83013567ffffffffffffffff8111156119b3576119b26113ab565b5b6119bf85828601611589565b92505060206119d0858286016113f5565b9150509250929050565b5f805f606084860312156119f1576119f06113a7565b5b5f6119fe868287016113f5565b9350506020611a0f868287016113f5565b925050604084013567ffffffffffffffff811115611a3057611a2f6113ab565b5b611a3c86828701611589565b9150509250925092565b5f608082019050611a595f830187611681565b611a6660208301866116f0565b8181036040830152611a7881856116b8565b9050611a876060830184611681565b95945050505050565b5f60208284031215611aa557611aa46113a7565b5b5f82013567ffffffffffffffff811115611ac257611ac16113ab565b5b611ace84828501611589565b91505092915050565b7f4e487b71000000000000000000000000000000000000000000000000000000005f52602260045260245ffd5b5f6002820490506001821680611b1b57607f821691505b602082108103611b2e57611b2d611ad7565b5b50919050565b7f4e487b71000000000000000000000000000000000000000000000000000000005f52601160045260245ffd5b5f611b6b82611610565b9150611b7683611610565b9250828203905081811115611b8e57611b8d611b34565b5b92915050565b7f496e76616c696420636f756e74000000000000000000000000000000000000005f82015250565b5f611bc8600d8361169a565b9150611bd382611b94565b602082019050919050565b5f6020820190508181035f830152611bf581611bbc565b9050919050565b7f4e487b71000000000000000000000000000000000000000000000000000000005f52603260045260245ffd5b5f611c3382611610565b91507fffffffffffffffffffffffffffffffffffffffffffffffffffffffffffffffff8203611c6557611c64611b34565b5b600182019050919050565b5f611c7a82611610565b9150611c8583611610565b9250828201905080821115611c9d57611c9c611b34565b5b92915050565b7f596f7520617265206e6f7420617574686f72697a6564000000000000000000005f82015250565b5f611cd760168361169a565b9150611ce282611ca3565b602082019050919050565b5f6020820190508181035f830152611d0481611ccb565b9050919050565b7f547765657420636f6e74656e742063616e6e6f7420626520656d7074790000005f82015250565b5f611d3f601d8361169a565b9150611d4a82611d0b565b602082019050919050565b5f6020820190508181035f830152611d6c81611d33565b9050919050565b5f819050815f5260205f209050919050565b5f6020601f8301049050919050565b5f82821b905092915050565b5f60088302611dcf7fffffffffffffffffffffffffffffffffffffffffffffffffffffffffffffffff82611d94565b611dd98683611d94565b95508019841693508086168417925050509392505050565b5f819050919050565b5f611e14611e0f611e0a84611610565b611df1565b611610565b9050919050565b5f819050919050565b611e2d83611dfa565b611e41611e3982611e1b565b848454611da0565b825550505050565b5f90565b611e55611e49565b611e60818484611e24565b505050565b5b81811015611e8357611e785f82611e4d565b600181019050611e66565b5050565b601f821115611ec857611e9981611d73565b611ea284611d85565b81016020851015611eb1578190505b611ec5611ebd85611d85565b830182611e65565b50505b505050565b5f82821c905092915050565b5f611ee85f1984600802611ecd565b1980831691505092915050565b5f611f008383611ed9565b9150826002028217905092915050565b611f1982611690565b67ffffffffffffffff811115611f3257611f31611492565b5b611f3c8254611b04565b611f47828285611e87565b5f60209050601f831160018114611f78575f8415611f66578287015190505b611f708582611ef5565b865550611fd7565b601f198416611f8686611d73565b5f5b82811015611fad57848901518255600182019150602085019450602081019050611f88565b86831015611fca5784890151611fc6601f891682611ed9565b8355505b6001600288020188555050505b505050505050565b5f6040820190508181035f830152611ff781856116b8565b90506120066020830184611681565b9392505050565b7f4d65737361676520636f6e74656e742063616e6e6f7420626520656d707479005f82015250565b5f612041601f8361169a565b915061204c8261200d565b602082019050919050565b5f6020820190508181035f83015261206e81612035565b905091905056fea26469706673582212203decbed852fa3aa9310ea5db0ff0534010607b5254a0a38f8ae9ed6eb468991064736f6c634300081a0033",
					"opcodes": "PUSH1 0x80 PUSH1 0x40 MSTORE PUSH1 0x1 PUSH1 0x5 SSTORE PUSH1 0x1 PUSH1 0x6 SSTORE CALLVALUE DUP1 ISZERO PUSH1 0x18 JUMPI PUSH0 DUP1 REVERT JUMPDEST POP PUSH2 0x20AB DUP1 PUSH2 0x26 PUSH0 CODECOPY PUSH0 RETURN INVALID PUSH1 0x80 PUSH1 0x40 MSTORE CALLVALUE DUP1 ISZERO PUSH2 0xF JUMPI PUSH0 DUP1 REVERT JUMPDEST POP PUSH1 0x4 CALLDATASIZE LT PUSH2 0xE8 JUMPI PUSH0 CALLDATALOAD PUSH1 0xE0 SHR DUP1 PUSH4 0xAF22BF94 GT PUSH2 0x8A JUMPI DUP1 PUSH4 0xD3E148BD GT PUSH2 0x64 JUMPI DUP1 PUSH4 0xD3E148BD EQ PUSH2 0x280 JUMPI DUP1 PUSH4 0xE8D857B0 EQ PUSH2 0x29C JUMPI DUP1 PUSH4 0xFAD8B32A EQ PUSH2 0x2CF JUMPI DUP1 PUSH4 0xFB46D4C5 EQ PUSH2 0x2EB JUMPI PUSH2 0xE8 JUMP JUMPDEST DUP1 PUSH4 0xAF22BF94 EQ PUSH2 0x204 JUMPI DUP1 PUSH4 0xC48D6D5E EQ PUSH2 0x234 JUMPI DUP1 PUSH4 0xC8E5C8A2 EQ PUSH2 0x250 JUMPI PUSH2 0xE8 JUMP JUMPDEST DUP1 PUSH4 0x4DBF27CC GT PUSH2 0xC6 JUMPI DUP1 PUSH4 0x4DBF27CC EQ PUSH2 0x16C JUMPI DUP1 PUSH4 0x4DC0A687 EQ PUSH2 0x188 JUMPI DUP1 PUSH4 0x9139CDA5 EQ PUSH2 0x1B8 JUMPI DUP1 PUSH4 0x959B8C3F EQ PUSH2 0x1E8 JUMPI PUSH2 0xE8 JUMP JUMPDEST DUP1 PUSH4 0x2637588E EQ PUSH2 0xEC JUMPI DUP1 PUSH4 0x2B0AFC6F EQ PUSH2 0x11C JUMPI DUP1 PUSH4 0x3BEFEA09 EQ PUSH2 0x138 JUMPI JUMPDEST PUSH0 DUP1 REVERT JUMPDEST PUSH2 0x106 PUSH1 0x4 DUP1 CALLDATASIZE SUB DUP2 ADD SWAP1 PUSH2 0x101 SWAP2 SWAP1 PUSH2 0x1409 JUMP JUMPDEST PUSH2 0x307 JUMP JUMPDEST PUSH1 0x40 MLOAD PUSH2 0x113 SWAP2 SWAP1 PUSH2 0x1461 JUMP JUMPDEST PUSH1 0x40 MLOAD DUP1 SWAP2 SUB SWAP1 RETURN JUMPDEST PUSH2 0x136 PUSH1 0x4 DUP1 CALLDATASIZE SUB DUP2 ADD SWAP1 PUSH2 0x131 SWAP2 SWAP1 PUSH2 0x15B6 JUMP JUMPDEST PUSH2 0x331 JUMP JUMPDEST STOP JUMPDEST PUSH2 0x152 PUSH1 0x4 DUP1 CALLDATASIZE SUB DUP2 ADD SWAP1 PUSH2 0x14D SWAP2 SWAP1 PUSH2 0x1643 JUMP JUMPDEST PUSH2 0x33F JUMP JUMPDEST PUSH1 0x40 MLOAD PUSH2 0x163 SWAP6 SWAP5 SWAP4 SWAP3 SWAP2 SWAP1 PUSH2 0x16FF JUMP JUMPDEST PUSH1 0x40 MLOAD DUP1 SWAP2 SUB SWAP1 RETURN JUMPDEST PUSH2 0x186 PUSH1 0x4 DUP1 CALLDATASIZE SUB DUP2 ADD SWAP1 PUSH2 0x181 SWAP2 SWAP1 PUSH2 0x1757 JUMP JUMPDEST PUSH2 0x44F JUMP JUMPDEST STOP JUMPDEST PUSH2 0x1A2 PUSH1 0x4 DUP1 CALLDATASIZE SUB DUP2 ADD SWAP1 PUSH2 0x19D SWAP2 SWAP1 PUSH2 0x1782 JUMP JUMPDEST PUSH2 0x547 JUMP JUMPDEST PUSH1 0x40 MLOAD PUSH2 0x1AF SWAP2 SWAP1 PUSH2 0x192E JUMP JUMPDEST PUSH1 0x40 MLOAD DUP1 SWAP2 SUB SWAP1 RETURN JUMPDEST PUSH2 0x1D2 PUSH1 0x4 DUP1 CALLDATASIZE SUB DUP2 ADD SWAP1 PUSH2 0x1CD SWAP2 SWAP1 PUSH2 0x1643 JUMP JUMPDEST PUSH2 0x770 JUMP JUMPDEST PUSH1 0x40 MLOAD PUSH2 0x1DF SWAP2 SWAP1 PUSH2 0x194E JUMP JUMPDEST PUSH1 0x40 MLOAD DUP1 SWAP2 SUB SWAP1 RETURN JUMPDEST PUSH2 0x202 PUSH1 0x4 DUP1 CALLDATASIZE SUB DUP2 ADD SWAP1 PUSH2 0x1FD SWAP2 SWAP1 PUSH2 0x1757 JUMP JUMPDEST PUSH2 0x7B8 JUMP JUMPDEST STOP JUMPDEST PUSH2 0x21E PUSH1 0x4 DUP1 CALLDATASIZE SUB DUP2 ADD SWAP1 PUSH2 0x219 SWAP2 SWAP1 PUSH2 0x1643 JUMP JUMPDEST PUSH2 0x8A5 JUMP JUMPDEST PUSH1 0x40 MLOAD PUSH2 0x22B SWAP2 SWAP1 PUSH2 0x1967 JUMP JUMPDEST PUSH1 0x40 MLOAD DUP1 SWAP2 SUB SWAP1 RETURN JUMPDEST PUSH2 0x24E PUSH1 0x4 DUP1 CALLDATASIZE SUB DUP2 ADD SWAP1 PUSH2 0x249 SWAP2 SWAP1 PUSH2 0x1980 JUMP JUMPDEST PUSH2 0x8D0 JUMP JUMPDEST STOP JUMPDEST PUSH2 0x26A PUSH1 0x4 DUP1 CALLDATASIZE SUB DUP2 ADD SWAP1 PUSH2 0x265 SWAP2 SWAP1 PUSH2 0x1643 JUMP JUMPDEST PUSH2 0x8DF JUMP JUMPDEST PUSH1 0x40 MLOAD PUSH2 0x277 SWAP2 SWAP1 PUSH2 0x192E JUMP JUMPDEST PUSH1 0x40 MLOAD DUP1 SWAP2 SUB SWAP1 RETURN JUMPDEST PUSH2 0x29A PUSH1 0x4 DUP1 CALLDATASIZE SUB DUP2 ADD SWAP1 PUSH2 0x295 SWAP2 SWAP1 PUSH2 0x19DA JUMP JUMPDEST PUSH2 0xB8B JUMP JUMPDEST STOP JUMPDEST PUSH2 0x2B6 PUSH1 0x4 DUP1 CALLDATASIZE SUB DUP2 ADD SWAP1 PUSH2 0x2B1 SWAP2 SWAP1 PUSH2 0x1782 JUMP JUMPDEST PUSH2 0xB9B JUMP JUMPDEST PUSH1 0x40 MLOAD PUSH2 0x2C6 SWAP5 SWAP4 SWAP3 SWAP2 SWAP1 PUSH2 0x1A46 JUMP JUMPDEST PUSH1 0x40 MLOAD DUP1 SWAP2 SUB SWAP1 RETURN JUMPDEST PUSH2 0x2E9 PUSH1 0x4 DUP1 CALLDATASIZE SUB DUP2 ADD SWAP1 PUSH2 0x2E4 SWAP2 SWAP1 PUSH2 0x1757 JUMP JUMPDEST PUSH2 0xC6B JUMP JUMPDEST STOP JUMPDEST PUSH2 0x305 PUSH1 0x4 DUP1 CALLDATASIZE SUB DUP2 ADD SWAP1 PUSH2 0x300 SWAP2 SWAP1 PUSH2 0x1A90 JUMP JUMPDEST PUSH2 0xD57 JUMP JUMPDEST STOP JUMPDEST PUSH1 0x3 PUSH1 0x20 MSTORE DUP2 PUSH0 MSTORE PUSH1 0x40 PUSH0 KECCAK256 PUSH1 0x20 MSTORE DUP1 PUSH0 MSTORE PUSH1 0x40 PUSH0 KECCAK256 PUSH0 SWAP2 POP SWAP2 POP SWAP1 SLOAD SWAP1 PUSH2 0x100 EXP SWAP1 DIV PUSH1 0xFF AND DUP2 JUMP JUMPDEST PUSH2 0x33B DUP3 DUP3 PUSH2 0xD64 JUMP JUMPDEST POP POP JUMP JUMPDEST PUSH1 0x2 PUSH1 0x20 MSTORE DUP2 PUSH0 MSTORE PUSH1 0x40 PUSH0 KECCAK256 DUP2 DUP2 SLOAD DUP2 LT PUSH2 0x358 JUMPI PUSH0 DUP1 REVERT JUMPDEST SWAP1 PUSH0 MSTORE PUSH1 0x20 PUSH0 KECCAK256 SWAP1 PUSH1 0x5 MUL ADD PUSH0 SWAP2 POP SWAP2 POP POP DUP1 PUSH0 ADD SLOAD SWAP1 DUP1 PUSH1 0x1 ADD DUP1 SLOAD PUSH2 0x37E SWAP1 PUSH2 0x1B04 JUMP JUMPDEST DUP1 PUSH1 0x1F ADD PUSH1 0x20 DUP1 SWAP2 DIV MUL PUSH1 0x20 ADD PUSH1 0x40 MLOAD SWAP1 DUP2 ADD PUSH1 0x40 MSTORE DUP1 SWAP3 SWAP2 SWAP1 DUP2 DUP2 MSTORE PUSH1 0x20 ADD DUP3 DUP1 SLOAD PUSH2 0x3AA SWAP1 PUSH2 0x1B04 JUMP JUMPDEST DUP1 ISZERO PUSH2 0x3F5 JUMPI DUP1 PUSH1 0x1F LT PUSH2 0x3CC JUMPI PUSH2 0x100 DUP1 DUP4 SLOAD DIV MUL DUP4 MSTORE SWAP2 PUSH1 0x20 ADD SWAP2 PUSH2 0x3F5 JUMP JUMPDEST DUP3 ADD SWAP2 SWAP1 PUSH0 MSTORE PUSH1 0x20 PUSH0 KECCAK256 SWAP1 JUMPDEST DUP2 SLOAD DUP2 MSTORE SWAP1 PUSH1 0x1 ADD SWAP1 PUSH1 0x20 ADD DUP1 DUP4 GT PUSH2 0x3D8 JUMPI DUP3 SWAP1 SUB PUSH1 0x1F AND DUP3 ADD SWAP2 JUMPDEST POP POP POP POP POP SWAP1 DUP1 PUSH1 0x2 ADD PUSH0 SWAP1 SLOAD SWAP1 PUSH2 0x100 EXP SWAP1 DIV PUSH20 0xFFFFFFFFFFFFFFFFFFFFFFFFFFFFFFFFFFFFFFFF AND SWAP1 DUP1 PUSH1 0x3 ADD PUSH0 SWAP1 SLOAD SWAP1 PUSH2 0x100 EXP SWAP1 DIV PUSH20 0xFFFFFFFFFFFFFFFFFFFFFFFFFFFFFFFFFFFFFFFF AND SWAP1 DUP1 PUSH1 0x4 ADD SLOAD SWAP1 POP DUP6 JUMP JUMPDEST PUSH1 0x4 PUSH0 CALLER PUSH20 0xFFFFFFFFFFFFFFFFFFFFFFFFFFFFFFFFFFFFFFFF AND PUSH20 0xFFFFFFFFFFFFFFFFFFFFFFFFFFFFFFFFFFFFFFFF AND DUP2 MSTORE PUSH1 0x20 ADD SWAP1 DUP2 MSTORE PUSH1 0x20 ADD PUSH0 KECCAK256 DUP2 SWAP1 DUP1 PUSH1 0x1 DUP2 SLOAD ADD DUP1 DUP3 SSTORE DUP1 SWAP2 POP POP PUSH1 0x1 SWAP1 SUB SWAP1 PUSH0 MSTORE PUSH1 0x20 PUSH0 KECCAK256 ADD PUSH0 SWAP1 SWAP2 SWAP1 SWAP2 SWAP1 SWAP2 PUSH2 0x100 EXP DUP2 SLOAD DUP2 PUSH20 0xFFFFFFFFFFFFFFFFFFFFFFFFFFFFFFFFFFFFFFFF MUL NOT AND SWAP1 DUP4 PUSH20 0xFFFFFFFFFFFFFFFFFFFFFFFFFFFFFFFFFFFFFFFF AND MUL OR SWAP1 SSTORE POP DUP1 PUSH20 0xFFFFFFFFFFFFFFFFFFFFFFFFFFFFFFFFFFFFFFFF AND CALLER PUSH20 0xFFFFFFFFFFFFFFFFFFFFFFFFFFFFFFFFFFFFFFFF AND PUSH32 0x6178E95C138F06036CDC07A49ED6A3D23008969FA143BAECEB037EBAE22E8D14 PUSH1 0x40 MLOAD PUSH1 0x40 MLOAD DUP1 SWAP2 SUB SWAP1 LOG3 POP JUMP JUMPDEST PUSH1 0x60 PUSH0 DUP3 GT DUP1 ISZERO PUSH2 0x566 JUMPI POP PUSH1 0x1 PUSH1 0x5 SLOAD PUSH2 0x562 SWAP2 SWAP1 PUSH2 0x1B61 JUMP JUMPDEST DUP3 GT ISZERO JUMPDEST PUSH2 0x5A5 JUMPI PUSH1 0x40 MLOAD PUSH32 0x8C379A000000000000000000000000000000000000000000000000000000000 DUP2 MSTORE PUSH1 0x4 ADD PUSH2 0x59C SWAP1 PUSH2 0x1BDE JUMP JUMPDEST PUSH1 0x40 MLOAD DUP1 SWAP2 SUB SWAP1 REVERT JUMPDEST PUSH0 DUP3 PUSH8 0xFFFFFFFFFFFFFFFF DUP2 GT ISZERO PUSH2 0x5C0 JUMPI PUSH2 0x5BF PUSH2 0x1492 JUMP JUMPDEST JUMPDEST PUSH1 0x40 MLOAD SWAP1 DUP1 DUP3 MSTORE DUP1 PUSH1 0x20 MUL PUSH1 0x20 ADD DUP3 ADD PUSH1 0x40 MSTORE DUP1 ISZERO PUSH2 0x5F9 JUMPI DUP2 PUSH1 0x20 ADD JUMPDEST PUSH2 0x5E6 PUSH2 0x1363 JUMP JUMPDEST DUP2 MSTORE PUSH1 0x20 ADD SWAP1 PUSH1 0x1 SWAP1 SUB SWAP1 DUP2 PUSH2 0x5DE JUMPI SWAP1 POP JUMPDEST POP SWAP1 POP PUSH0 DUP1 DUP5 PUSH1 0x5 SLOAD PUSH2 0x60C SWAP2 SWAP1 PUSH2 0x1B61 JUMP JUMPDEST SWAP1 POP JUMPDEST PUSH1 0x5 SLOAD DUP2 LT ISZERO PUSH2 0x765 JUMPI PUSH0 DUP1 DUP3 DUP2 MSTORE PUSH1 0x20 ADD SWAP1 DUP2 MSTORE PUSH1 0x20 ADD PUSH0 KECCAK256 PUSH1 0x40 MLOAD DUP1 PUSH1 0x80 ADD PUSH1 0x40 MSTORE SWAP1 DUP2 PUSH0 DUP3 ADD SLOAD DUP2 MSTORE PUSH1 0x20 ADD PUSH1 0x1 DUP3 ADD PUSH0 SWAP1 SLOAD SWAP1 PUSH2 0x100 EXP SWAP1 DIV PUSH20 0xFFFFFFFFFFFFFFFFFFFFFFFFFFFFFFFFFFFFFFFF AND PUSH20 0xFFFFFFFFFFFFFFFFFFFFFFFFFFFFFFFFFFFFFFFF AND PUSH20 0xFFFFFFFFFFFFFFFFFFFFFFFFFFFFFFFFFFFFFFFF AND DUP2 MSTORE PUSH1 0x20 ADD PUSH1 0x2 DUP3 ADD DUP1 SLOAD PUSH2 0x6A2 SWAP1 PUSH2 0x1B04 JUMP JUMPDEST DUP1 PUSH1 0x1F ADD PUSH1 0x20 DUP1 SWAP2 DIV MUL PUSH1 0x20 ADD PUSH1 0x40 MLOAD SWAP1 DUP2 ADD PUSH1 0x40 MSTORE DUP1 SWAP3 SWAP2 SWAP1 DUP2 DUP2 MSTORE PUSH1 0x20 ADD DUP3 DUP1 SLOAD PUSH2 0x6CE SWAP1 PUSH2 0x1B04 JUMP JUMPDEST DUP1 ISZERO PUSH2 0x719 JUMPI DUP1 PUSH1 0x1F LT PUSH2 0x6F0 JUMPI PUSH2 0x100 DUP1 DUP4 SLOAD DIV MUL DUP4 MSTORE SWAP2 PUSH1 0x20 ADD SWAP2 PUSH2 0x719 JUMP JUMPDEST DUP3 ADD SWAP2 SWAP1 PUSH0 MSTORE PUSH1 0x20 PUSH0 KECCAK256 SWAP1 JUMPDEST DUP2 SLOAD DUP2 MSTORE SWAP1 PUSH1 0x1 ADD SWAP1 PUSH1 0x20 ADD DUP1 DUP4 GT PUSH2 0x6FC JUMPI DUP3 SWAP1 SUB PUSH1 0x1F AND DUP3 ADD SWAP2 JUMPDEST POP POP POP POP POP DUP2 MSTORE PUSH1 0x20 ADD PUSH1 0x3 DUP3 ADD SLOAD DUP2 MSTORE POP POP DUP4 DUP4 DUP2 MLOAD DUP2 LT PUSH2 0x73F JUMPI PUSH2 0x73E PUSH2 0x1BFC JUMP JUMPDEST JUMPDEST PUSH1 0x20 MUL PUSH1 0x20 ADD ADD DUP2 SWAP1 MSTORE POP DUP2 DUP1 PUSH2 0x755 SWAP1 PUSH2 0x1C29 JUMP JUMPDEST SWAP3 POP POP DUP1 DUP1 PUSH1 0x1 ADD SWAP2 POP POP PUSH2 0x60F JUMP JUMPDEST POP DUP2 SWAP3 POP POP POP SWAP2 SWAP1 POP JUMP JUMPDEST PUSH1 0x4 PUSH1 0x20 MSTORE DUP2 PUSH0 MSTORE PUSH1 0x40 PUSH0 KECCAK256 DUP2 DUP2 SLOAD DUP2 LT PUSH2 0x789 JUMPI PUSH0 DUP1 REVERT JUMPDEST SWAP1 PUSH0 MSTORE PUSH1 0x20 PUSH0 KECCAK256 ADD PUSH0 SWAP2 POP SWAP2 POP SWAP1 SLOAD SWAP1 PUSH2 0x100 EXP SWAP1 DIV PUSH20 0xFFFFFFFFFFFFFFFFFFFFFFFFFFFFFFFFFFFFFFFF AND DUP2 JUMP JUMPDEST PUSH1 0x1 PUSH1 0x3 PUSH0 CALLER PUSH20 0xFFFFFFFFFFFFFFFFFFFFFFFFFFFFFFFFFFFFFFFF AND PUSH20 0xFFFFFFFFFFFFFFFFFFFFFFFFFFFFFFFFFFFFFFFF AND DUP2 MSTORE PUSH1 0x20 ADD SWAP1 DUP2 MSTORE PUSH1 0x20 ADD PUSH0 KECCAK256 PUSH0 DUP4 PUSH20 0xFFFFFFFFFFFFFFFFFFFFFFFFFFFFFFFFFFFFFFFF AND PUSH20 0xFFFFFFFFFFFFFFFFFFFFFFFFFFFFFFFFFFFFFFFF AND DUP2 MSTORE PUSH1 0x20 ADD SWAP1 DUP2 MSTORE PUSH1 0x20 ADD PUSH0 KECCAK256 PUSH0 PUSH2 0x100 EXP DUP2 SLOAD DUP2 PUSH1 0xFF MUL NOT AND SWAP1 DUP4 ISZERO ISZERO MUL OR SWAP1 SSTORE POP DUP1 PUSH20 0xFFFFFFFFFFFFFFFFFFFFFFFFFFFFFFFFFFFFFFFF AND CALLER PUSH20 0xFFFFFFFFFFFFFFFFFFFFFFFFFFFFFFFFFFFFFFFF AND PUSH32 0x4D8C877A9DEF059A7322C328D7394F8640D101D29C811E10268B9B6125E90253 PUSH1 0x40 MLOAD PUSH1 0x40 MLOAD DUP1 SWAP2 SUB SWAP1 LOG3 POP JUMP JUMPDEST PUSH1 0x1 PUSH1 0x20 MSTORE DUP2 PUSH0 MSTORE PUSH1 0x40 PUSH0 KECCAK256 DUP2 DUP2 SLOAD DUP2 LT PUSH2 0x8BE JUMPI PUSH0 DUP1 REVERT JUMPDEST SWAP1 PUSH0 MSTORE PUSH1 0x20 PUSH0 KECCAK256 ADD PUSH0 SWAP2 POP SWAP2 POP POP SLOAD DUP2 JUMP JUMPDEST PUSH2 0x8DB CALLER DUP3 DUP5 PUSH2 0x1030 JUMP JUMPDEST POP POP JUMP JUMPDEST PUSH1 0x60 PUSH0 PUSH1 0x1 PUSH0 DUP6 PUSH20 0xFFFFFFFFFFFFFFFFFFFFFFFFFFFFFFFFFFFFFFFF AND PUSH20 0xFFFFFFFFFFFFFFFFFFFFFFFFFFFFFFFFFFFFFFFF AND DUP2 MSTORE PUSH1 0x20 ADD SWAP1 DUP2 MSTORE PUSH1 0x20 ADD PUSH0 KECCAK256 DUP1 SLOAD SWAP1 POP SWAP1 POP PUSH0 DUP4 GT DUP1 ISZERO PUSH2 0x934 JUMPI POP DUP1 DUP4 GT ISZERO JUMPDEST PUSH2 0x973 JUMPI PUSH1 0x40 MLOAD PUSH32 0x8C379A000000000000000000000000000000000000000000000000000000000 DUP2 MSTORE PUSH1 0x4 ADD PUSH2 0x96A SWAP1 PUSH2 0x1BDE JUMP JUMPDEST PUSH1 0x40 MLOAD DUP1 SWAP2 SUB SWAP1 REVERT JUMPDEST PUSH0 DUP4 PUSH8 0xFFFFFFFFFFFFFFFF DUP2 GT ISZERO PUSH2 0x98E JUMPI PUSH2 0x98D PUSH2 0x1492 JUMP JUMPDEST JUMPDEST PUSH1 0x40 MLOAD SWAP1 DUP1 DUP3 MSTORE DUP1 PUSH1 0x20 MUL PUSH1 0x20 ADD DUP3 ADD PUSH1 0x40 MSTORE DUP1 ISZERO PUSH2 0x9C7 JUMPI DUP2 PUSH1 0x20 ADD JUMPDEST PUSH2 0x9B4 PUSH2 0x1363 JUMP JUMPDEST DUP2 MSTORE PUSH1 0x20 ADD SWAP1 PUSH1 0x1 SWAP1 SUB SWAP1 DUP2 PUSH2 0x9AC JUMPI SWAP1 POP JUMPDEST POP SWAP1 POP PUSH0 JUMPDEST DUP5 DUP2 LT ISZERO PUSH2 0xB7F JUMPI PUSH0 DUP1 PUSH1 0x1 PUSH0 DUP10 PUSH20 0xFFFFFFFFFFFFFFFFFFFFFFFFFFFFFFFFFFFFFFFF AND PUSH20 0xFFFFFFFFFFFFFFFFFFFFFFFFFFFFFFFFFFFFFFFF AND DUP2 MSTORE PUSH1 0x20 ADD SWAP1 DUP2 MSTORE PUSH1 0x20 ADD PUSH0 KECCAK256 DUP4 DUP9 DUP8 PUSH2 0xA20 SWAP2 SWAP1 PUSH2 0x1B61 JUMP JUMPDEST PUSH2 0xA2A SWAP2 SWAP1 PUSH2 0x1C70 JUMP JUMPDEST DUP2 SLOAD DUP2 LT PUSH2 0xA3B JUMPI PUSH2 0xA3A PUSH2 0x1BFC JUMP JUMPDEST JUMPDEST SWAP1 PUSH0 MSTORE PUSH1 0x20 PUSH0 KECCAK256 ADD SLOAD DUP2 MSTORE PUSH1 0x20 ADD SWAP1 DUP2 MSTORE PUSH1 0x20 ADD PUSH0 KECCAK256 PUSH1 0x40 MLOAD DUP1 PUSH1 0x80 ADD PUSH1 0x40 MSTORE SWAP1 DUP2 PUSH0 DUP3 ADD SLOAD DUP2 MSTORE PUSH1 0x20 ADD PUSH1 0x1 DUP3 ADD PUSH0 SWAP1 SLOAD SWAP1 PUSH2 0x100 EXP SWAP1 DIV PUSH20 0xFFFFFFFFFFFFFFFFFFFFFFFFFFFFFFFFFFFFFFFF AND PUSH20 0xFFFFFFFFFFFFFFFFFFFFFFFFFFFFFFFFFFFFFFFF AND PUSH20 0xFFFFFFFFFFFFFFFFFFFFFFFFFFFFFFFFFFFFFFFF AND DUP2 MSTORE PUSH1 0x20 ADD PUSH1 0x2 DUP3 ADD DUP1 SLOAD PUSH2 0xACA SWAP1 PUSH2 0x1B04 JUMP JUMPDEST DUP1 PUSH1 0x1F ADD PUSH1 0x20 DUP1 SWAP2 DIV MUL PUSH1 0x20 ADD PUSH1 0x40 MLOAD SWAP1 DUP2 ADD PUSH1 0x40 MSTORE DUP1 SWAP3 SWAP2 SWAP1 DUP2 DUP2 MSTORE PUSH1 0x20 ADD DUP3 DUP1 SLOAD PUSH2 0xAF6 SWAP1 PUSH2 0x1B04 JUMP JUMPDEST DUP1 ISZERO PUSH2 0xB41 JUMPI DUP1 PUSH1 0x1F LT PUSH2 0xB18 JUMPI PUSH2 0x100 DUP1 DUP4 SLOAD DIV MUL DUP4 MSTORE SWAP2 PUSH1 0x20 ADD SWAP2 PUSH2 0xB41 JUMP JUMPDEST DUP3 ADD SWAP2 SWAP1 PUSH0 MSTORE PUSH1 0x20 PUSH0 KECCAK256 SWAP1 JUMPDEST DUP2 SLOAD DUP2 MSTORE SWAP1 PUSH1 0x1 ADD SWAP1 PUSH1 0x20 ADD DUP1 DUP4 GT PUSH2 0xB24 JUMPI DUP3 SWAP1 SUB PUSH1 0x1F AND DUP3 ADD SWAP2 JUMPDEST POP POP POP POP POP DUP2 MSTORE PUSH1 0x20 ADD PUSH1 0x3 DUP3 ADD SLOAD DUP2 MSTORE POP POP DUP3 DUP3 DUP2 MLOAD DUP2 LT PUSH2 0xB67 JUMPI PUSH2 0xB66 PUSH2 0x1BFC JUMP JUMPDEST JUMPDEST PUSH1 0x20 MUL PUSH1 0x20 ADD ADD DUP2 SWAP1 MSTORE POP DUP1 DUP1 PUSH1 0x1 ADD SWAP2 POP POP PUSH2 0x9CC JUMP JUMPDEST POP DUP1 SWAP3 POP POP POP SWAP3 SWAP2 POP POP JUMP JUMPDEST PUSH2 0xB96 DUP4 DUP4 DUP4 PUSH2 0x1030 JUMP JUMPDEST POP POP POP JUMP JUMPDEST PUSH0 PUSH1 0x20 MSTORE DUP1 PUSH0 MSTORE PUSH1 0x40 PUSH0 KECCAK256 PUSH0 SWAP2 POP SWAP1 POP DUP1 PUSH0 ADD SLOAD SWAP1 DUP1 PUSH1 0x1 ADD PUSH0 SWAP1 SLOAD SWAP1 PUSH2 0x100 EXP SWAP1 DIV PUSH20 0xFFFFFFFFFFFFFFFFFFFFFFFFFFFFFFFFFFFFFFFF AND SWAP1 DUP1 PUSH1 0x2 ADD DUP1 SLOAD PUSH2 0xBE4 SWAP1 PUSH2 0x1B04 JUMP JUMPDEST DUP1 PUSH1 0x1F ADD PUSH1 0x20 DUP1 SWAP2 DIV MUL PUSH1 0x20 ADD PUSH1 0x40 MLOAD SWAP1 DUP2 ADD PUSH1 0x40 MSTORE DUP1 SWAP3 SWAP2 SWAP1 DUP2 DUP2 MSTORE PUSH1 0x20 ADD DUP3 DUP1 SLOAD PUSH2 0xC10 SWAP1 PUSH2 0x1B04 JUMP JUMPDEST DUP1 ISZERO PUSH2 0xC5B JUMPI DUP1 PUSH1 0x1F LT PUSH2 0xC32 JUMPI PUSH2 0x100 DUP1 DUP4 SLOAD DIV MUL DUP4 MSTORE SWAP2 PUSH1 0x20 ADD SWAP2 PUSH2 0xC5B JUMP JUMPDEST DUP3 ADD SWAP2 SWAP1 PUSH0 MSTORE PUSH1 0x20 PUSH0 KECCAK256 SWAP1 JUMPDEST DUP2 SLOAD DUP2 MSTORE SWAP1 PUSH1 0x1 ADD SWAP1 PUSH1 0x20 ADD DUP1 DUP4 GT PUSH2 0xC3E JUMPI DUP3 SWAP1 SUB PUSH1 0x1F AND DUP3 ADD SWAP2 JUMPDEST POP POP POP POP POP SWAP1 DUP1 PUSH1 0x3 ADD SLOAD SWAP1 POP DUP5 JUMP JUMPDEST PUSH0 PUSH1 0x3 PUSH0 CALLER PUSH20 0xFFFFFFFFFFFFFFFFFFFFFFFFFFFFFFFFFFFFFFFF AND PUSH20 0xFFFFFFFFFFFFFFFFFFFFFFFFFFFFFFFFFFFFFFFF AND DUP2 MSTORE PUSH1 0x20 ADD SWAP1 DUP2 MSTORE PUSH1 0x20 ADD PUSH0 KECCAK256 PUSH0 DUP4 PUSH20 0xFFFFFFFFFFFFFFFFFFFFFFFFFFFFFFFFFFFFFFFF AND PUSH20 0xFFFFFFFFFFFFFFFFFFFFFFFFFFFFFFFFFFFFFFFF AND DUP2 MSTORE PUSH1 0x20 ADD SWAP1 DUP2 MSTORE PUSH1 0x20 ADD PUSH0 KECCAK256 PUSH0 PUSH2 0x100 EXP DUP2 SLOAD DUP2 PUSH1 0xFF MUL NOT AND SWAP1 DUP4 ISZERO ISZERO MUL OR SWAP1 SSTORE POP DUP1 PUSH20 0xFFFFFFFFFFFFFFFFFFFFFFFFFFFFFFFFFFFFFFFF AND CALLER PUSH20 0xFFFFFFFFFFFFFFFFFFFFFFFFFFFFFFFFFFFFFFFF AND PUSH32 0xA8082FAE8D1BD57FAEB4DDE45721B46AFB72C45E72E5DEB2A355BD997F6251A9 PUSH1 0x40 MLOAD PUSH1 0x40 MLOAD DUP1 SWAP2 SUB SWAP1 LOG3 POP JUMP JUMPDEST PUSH2 0xD61 CALLER DUP3 PUSH2 0xD64 JUMP JUMPDEST POP JUMP JUMPDEST DUP2 CALLER PUSH20 0xFFFFFFFFFFFFFFFFFFFFFFFFFFFFFFFFFFFFFFFF AND DUP2 PUSH20 0xFFFFFFFFFFFFFFFFFFFFFFFFFFFFFFFFFFFFFFFF AND EQ DUP1 PUSH2 0xE20 JUMPI POP PUSH1 0x3 PUSH0 DUP3 PUSH20 0xFFFFFFFFFFFFFFFFFFFFFFFFFFFFFFFFFFFFFFFF AND PUSH20 0xFFFFFFFFFFFFFFFFFFFFFFFFFFFFFFFFFFFFFFFF AND DUP2 MSTORE PUSH1 0x20 ADD SWAP1 DUP2 MSTORE PUSH1 0x20 ADD PUSH0 KECCAK256 PUSH0 CALLER PUSH20 0xFFFFFFFFFFFFFFFFFFFFFFFFFFFFFFFFFFFFFFFF AND PUSH20 0xFFFFFFFFFFFFFFFFFFFFFFFFFFFFFFFFFFFFFFFF AND DUP2 MSTORE PUSH1 0x20 ADD SWAP1 DUP2 MSTORE PUSH1 0x20 ADD PUSH0 KECCAK256 PUSH0 SWAP1 SLOAD SWAP1 PUSH2 0x100 EXP SWAP1 DIV PUSH1 0xFF AND JUMPDEST PUSH2 0xE5F JUMPI PUSH1 0x40 MLOAD PUSH32 0x8C379A000000000000000000000000000000000000000000000000000000000 DUP2 MSTORE PUSH1 0x4 ADD PUSH2 0xE56 SWAP1 PUSH2 0x1CED JUMP JUMPDEST PUSH1 0x40 MLOAD DUP1 SWAP2 SUB SWAP1 REVERT JUMPDEST PUSH0 DUP3 MLOAD GT PUSH2 0xEA2 JUMPI PUSH1 0x40 MLOAD PUSH32 0x8C379A000000000000000000000000000000000000000000000000000000000 DUP2 MSTORE PUSH1 0x4 ADD PUSH2 0xE99 SWAP1 PUSH2 0x1D55 JUMP JUMPDEST PUSH1 0x40 MLOAD DUP1 SWAP2 SUB SWAP1 REVERT JUMPDEST PUSH1 0x40 MLOAD DUP1 PUSH1 0x80 ADD PUSH1 0x40 MSTORE DUP1 PUSH1 0x5 SLOAD DUP2 MSTORE PUSH1 0x20 ADD DUP5 PUSH20 0xFFFFFFFFFFFFFFFFFFFFFFFFFFFFFFFFFFFFFFFF AND DUP2 MSTORE PUSH1 0x20 ADD DUP4 DUP2 MSTORE PUSH1 0x20 ADD TIMESTAMP DUP2 MSTORE POP PUSH0 DUP1 PUSH1 0x5 SLOAD DUP2 MSTORE PUSH1 0x20 ADD SWAP1 DUP2 MSTORE PUSH1 0x20 ADD PUSH0 KECCAK256 PUSH0 DUP3 ADD MLOAD DUP2 PUSH0 ADD SSTORE PUSH1 0x20 DUP3 ADD MLOAD DUP2 PUSH1 0x1 ADD PUSH0 PUSH2 0x100 EXP DUP2 SLOAD DUP2 PUSH20 0xFFFFFFFFFFFFFFFFFFFFFFFFFFFFFFFFFFFFFFFF MUL NOT AND SWAP1 DUP4 PUSH20 0xFFFFFFFFFFFFFFFFFFFFFFFFFFFFFFFFFFFFFFFF AND MUL OR SWAP1 SSTORE POP PUSH1 0x40 DUP3 ADD MLOAD DUP2 PUSH1 0x2 ADD SWAP1 DUP2 PUSH2 0xF50 SWAP2 SWAP1 PUSH2 0x1F10 JUMP JUMPDEST POP PUSH1 0x60 DUP3 ADD MLOAD DUP2 PUSH1 0x3 ADD SSTORE SWAP1 POP POP PUSH1 0x1 PUSH0 DUP5 PUSH20 0xFFFFFFFFFFFFFFFFFFFFFFFFFFFFFFFFFFFFFFFF AND PUSH20 0xFFFFFFFFFFFFFFFFFFFFFFFFFFFFFFFFFFFFFFFF AND DUP2 MSTORE PUSH1 0x20 ADD SWAP1 DUP2 MSTORE PUSH1 0x20 ADD PUSH0 KECCAK256 PUSH1 0x5 SLOAD SWAP1 DUP1 PUSH1 0x1 DUP2 SLOAD ADD DUP1 DUP3 SSTORE DUP1 SWAP2 POP POP PUSH1 0x1 SWAP1 SUB SWAP1 PUSH0 MSTORE PUSH1 0x20 PUSH0 KECCAK256 ADD PUSH0 SWAP1 SWAP2 SWAP1 SWAP2 SWAP1 SWAP2 POP SSTORE DUP3 PUSH20 0xFFFFFFFFFFFFFFFFFFFFFFFFFFFFFFFFFFFFFFFF AND PUSH1 0x5 SLOAD PUSH32 0x16FD3C13E9D46923E0A8BCE11C7B473EC508A72E6C96CD2404B29CE972AFC29E DUP5 TIMESTAMP PUSH1 0x40 MLOAD PUSH2 0x100C SWAP3 SWAP2 SWAP1 PUSH2 0x1FDF JUMP JUMPDEST PUSH1 0x40 MLOAD DUP1 SWAP2 SUB SWAP1 LOG3 PUSH1 0x5 PUSH0 DUP2 SLOAD DUP1 SWAP3 SWAP2 SWAP1 PUSH2 0x1026 SWAP1 PUSH2 0x1C29 JUMP JUMPDEST SWAP2 SWAP1 POP SSTORE POP POP POP POP JUMP JUMPDEST DUP3 CALLER PUSH20 0xFFFFFFFFFFFFFFFFFFFFFFFFFFFFFFFFFFFFFFFF AND DUP2 PUSH20 0xFFFFFFFFFFFFFFFFFFFFFFFFFFFFFFFFFFFFFFFF AND EQ DUP1 PUSH2 0x10EC JUMPI POP PUSH1 0x3 PUSH0 DUP3 PUSH20 0xFFFFFFFFFFFFFFFFFFFFFFFFFFFFFFFFFFFFFFFF AND PUSH20 0xFFFFFFFFFFFFFFFFFFFFFFFFFFFFFFFFFFFFFFFF AND DUP2 MSTORE PUSH1 0x20 ADD SWAP1 DUP2 MSTORE PUSH1 0x20 ADD PUSH0 KECCAK256 PUSH0 CALLER PUSH20 0xFFFFFFFFFFFFFFFFFFFFFFFFFFFFFFFFFFFFFFFF AND PUSH20 0xFFFFFFFFFFFFFFFFFFFFFFFFFFFFFFFFFFFFFFFF AND DUP2 MSTORE PUSH1 0x20 ADD SWAP1 DUP2 MSTORE PUSH1 0x20 ADD PUSH0 KECCAK256 PUSH0 SWAP1 SLOAD SWAP1 PUSH2 0x100 EXP SWAP1 DIV PUSH1 0xFF AND JUMPDEST PUSH2 0x112B JUMPI PUSH1 0x40 MLOAD PUSH32 0x8C379A000000000000000000000000000000000000000000000000000000000 DUP2 MSTORE PUSH1 0x4 ADD PUSH2 0x1122 SWAP1 PUSH2 0x1CED JUMP JUMPDEST PUSH1 0x40 MLOAD DUP1 SWAP2 SUB SWAP1 REVERT JUMPDEST PUSH0 DUP3 MLOAD GT PUSH2 0x116E JUMPI PUSH1 0x40 MLOAD PUSH32 0x8C379A000000000000000000000000000000000000000000000000000000000 DUP2 MSTORE PUSH1 0x4 ADD PUSH2 0x1165 SWAP1 PUSH2 0x2057 JUMP JUMPDEST PUSH1 0x40 MLOAD DUP1 SWAP2 SUB SWAP1 REVERT JUMPDEST PUSH1 0x2 PUSH0 DUP6 PUSH20 0xFFFFFFFFFFFFFFFFFFFFFFFFFFFFFFFFFFFFFFFF AND PUSH20 0xFFFFFFFFFFFFFFFFFFFFFFFFFFFFFFFFFFFFFFFF AND DUP2 MSTORE PUSH1 0x20 ADD SWAP1 DUP2 MSTORE PUSH1 0x20 ADD PUSH0 KECCAK256 PUSH1 0x40 MLOAD DUP1 PUSH1 0xA0 ADD PUSH1 0x40 MSTORE DUP1 PUSH1 0x6 SLOAD DUP2 MSTORE PUSH1 0x20 ADD DUP5 DUP2 MSTORE PUSH1 0x20 ADD DUP7 PUSH20 0xFFFFFFFFFFFFFFFFFFFFFFFFFFFFFFFFFFFFFFFF AND DUP2 MSTORE PUSH1 0x20 ADD DUP6 PUSH20 0xFFFFFFFFFFFFFFFFFFFFFFFFFFFFFFFFFFFFFFFF AND DUP2 MSTORE PUSH1 0x20 ADD TIMESTAMP DUP2 MSTORE POP SWAP1 DUP1 PUSH1 0x1 DUP2 SLOAD ADD DUP1 DUP3 SSTORE DUP1 SWAP2 POP POP PUSH1 0x1 SWAP1 SUB SWAP1 PUSH0 MSTORE PUSH1 0x20 PUSH0 KECCAK256 SWAP1 PUSH1 0x5 MUL ADD PUSH0 SWAP1 SWAP2 SWAP1 SWAP2 SWAP1 SWAP2 POP PUSH0 DUP3 ADD MLOAD DUP2 PUSH0 ADD SSTORE PUSH1 0x20 DUP3 ADD MLOAD DUP2 PUSH1 0x1 ADD SWAP1 DUP2 PUSH2 0x1243 SWAP2 SWAP1 PUSH2 0x1F10 JUMP JUMPDEST POP PUSH1 0x40 DUP3 ADD MLOAD DUP2 PUSH1 0x2 ADD PUSH0 PUSH2 0x100 EXP DUP2 SLOAD DUP2 PUSH20 0xFFFFFFFFFFFFFFFFFFFFFFFFFFFFFFFFFFFFFFFF MUL NOT AND SWAP1 DUP4 PUSH20 0xFFFFFFFFFFFFFFFFFFFFFFFFFFFFFFFFFFFFFFFF AND MUL OR SWAP1 SSTORE POP PUSH1 0x60 DUP3 ADD MLOAD DUP2 PUSH1 0x3 ADD PUSH0 PUSH2 0x100 EXP DUP2 SLOAD DUP2 PUSH20 0xFFFFFFFFFFFFFFFFFFFFFFFFFFFFFFFFFFFFFFFF MUL NOT AND SWAP1 DUP4 PUSH20 0xFFFFFFFFFFFFFFFFFFFFFFFFFFFFFFFFFFFFFFFF AND MUL OR SWAP1 SSTORE POP PUSH1 0x80 DUP3 ADD MLOAD DUP2 PUSH1 0x4 ADD SSTORE POP POP DUP3 PUSH20 0xFFFFFFFFFFFFFFFFFFFFFFFFFFFFFFFFFFFFFFFF AND DUP5 PUSH20 0xFFFFFFFFFFFFFFFFFFFFFFFFFFFFFFFFFFFFFFFF AND PUSH1 0x6 SLOAD PUSH32 0x94D6E4822F4ADCDE26D85197D96BEFA68DCED8D7DB67685000CFC97783260DA4 DUP6 TIMESTAMP PUSH1 0x40 MLOAD PUSH2 0x133E SWAP3 SWAP2 SWAP1 PUSH2 0x1FDF JUMP JUMPDEST PUSH1 0x40 MLOAD DUP1 SWAP2 SUB SWAP1 LOG4 PUSH1 0x6 PUSH0 DUP2 SLOAD DUP1 SWAP3 SWAP2 SWAP1 PUSH2 0x1358 SWAP1 PUSH2 0x1C29 JUMP JUMPDEST SWAP2 SWAP1 POP SSTORE POP POP POP POP POP JUMP JUMPDEST PUSH1 0x40 MLOAD DUP1 PUSH1 0x80 ADD PUSH1 0x40 MSTORE DUP1 PUSH0 DUP2 MSTORE PUSH1 0x20 ADD PUSH0 PUSH20 0xFFFFFFFFFFFFFFFFFFFFFFFFFFFFFFFFFFFFFFFF AND DUP2 MSTORE PUSH1 0x20 ADD PUSH1 0x60 DUP2 MSTORE PUSH1 0x20 ADD PUSH0 DUP2 MSTORE POP SWAP1 JUMP JUMPDEST PUSH0 PUSH1 0x40 MLOAD SWAP1 POP SWAP1 JUMP JUMPDEST PUSH0 DUP1 REVERT JUMPDEST PUSH0 DUP1 REVERT JUMPDEST PUSH0 PUSH20 0xFFFFFFFFFFFFFFFFFFFFFFFFFFFFFFFFFFFFFFFF DUP3 AND SWAP1 POP SWAP2 SWAP1 POP JUMP JUMPDEST PUSH0 PUSH2 0x13D8 DUP3 PUSH2 0x13AF JUMP JUMPDEST SWAP1 POP SWAP2 SWAP1 POP JUMP JUMPDEST PUSH2 0x13E8 DUP2 PUSH2 0x13CE JUMP JUMPDEST DUP2 EQ PUSH2 0x13F2 JUMPI PUSH0 DUP1 REVERT JUMPDEST POP JUMP JUMPDEST PUSH0 DUP2 CALLDATALOAD SWAP1 POP PUSH2 0x1403 DUP2 PUSH2 0x13DF JUMP JUMPDEST SWAP3 SWAP2 POP POP JUMP JUMPDEST PUSH0 DUP1 PUSH1 0x40 DUP4 DUP6 SUB SLT ISZERO PUSH2 0x141F JUMPI PUSH2 0x141E PUSH2 0x13A7 JUMP JUMPDEST JUMPDEST PUSH0 PUSH2 0x142C DUP6 DUP3 DUP7 ADD PUSH2 0x13F5 JUMP JUMPDEST SWAP3 POP POP PUSH1 0x20 PUSH2 0x143D DUP6 DUP3 DUP7 ADD PUSH2 0x13F5 JUMP JUMPDEST SWAP2 POP POP SWAP3 POP SWAP3 SWAP1 POP JUMP JUMPDEST PUSH0 DUP2 ISZERO ISZERO SWAP1 POP SWAP2 SWAP1 POP JUMP JUMPDEST PUSH2 0x145B DUP2 PUSH2 0x1447 JUMP JUMPDEST DUP3 MSTORE POP POP JUMP JUMPDEST PUSH0 PUSH1 0x20 DUP3 ADD SWAP1 POP PUSH2 0x1474 PUSH0 DUP4 ADD DUP5 PUSH2 0x1452 JUMP JUMPDEST SWAP3 SWAP2 POP POP JUMP JUMPDEST PUSH0 DUP1 REVERT JUMPDEST PUSH0 DUP1 REVERT JUMPDEST PUSH0 PUSH1 0x1F NOT PUSH1 0x1F DUP4 ADD AND SWAP1 POP SWAP2 SWAP1 POP JUMP JUMPDEST PUSH32 0x4E487B7100000000000000000000000000000000000000000000000000000000 PUSH0 MSTORE PUSH1 0x41 PUSH1 0x4 MSTORE PUSH1 0x24 PUSH0 REVERT JUMPDEST PUSH2 0x14C8 DUP3 PUSH2 0x1482 JUMP JUMPDEST DUP2 ADD DUP2 DUP2 LT PUSH8 0xFFFFFFFFFFFFFFFF DUP3 GT OR ISZERO PUSH2 0x14E7 JUMPI PUSH2 0x14E6 PUSH2 0x1492 JUMP JUMPDEST JUMPDEST DUP1 PUSH1 0x40 MSTORE POP POP POP JUMP JUMPDEST PUSH0 PUSH2 0x14F9 PUSH2 0x139E JUMP JUMPDEST SWAP1 POP PUSH2 0x1505 DUP3 DUP3 PUSH2 0x14BF JUMP JUMPDEST SWAP2 SWAP1 POP JUMP JUMPDEST PUSH0 PUSH8 0xFFFFFFFFFFFFFFFF DUP3 GT ISZERO PUSH2 0x1524 JUMPI PUSH2 0x1523 PUSH2 0x1492 JUMP JUMPDEST JUMPDEST PUSH2 0x152D DUP3 PUSH2 0x1482 JUMP JUMPDEST SWAP1 POP PUSH1 0x20 DUP2 ADD SWAP1 POP SWAP2 SWAP1 POP JUMP JUMPDEST DUP3 DUP2 DUP4 CALLDATACOPY PUSH0 DUP4 DUP4 ADD MSTORE POP POP POP JUMP JUMPDEST PUSH0 PUSH2 0x155A PUSH2 0x1555 DUP5 PUSH2 0x150A JUMP JUMPDEST PUSH2 0x14F0 JUMP JUMPDEST SWAP1 POP DUP3 DUP2 MSTORE PUSH1 0x20 DUP2 ADD DUP5 DUP5 DUP5 ADD GT ISZERO PUSH2 0x1576 JUMPI PUSH2 0x1575 PUSH2 0x147E JUMP JUMPDEST JUMPDEST PUSH2 0x1581 DUP5 DUP3 DUP6 PUSH2 0x153A JUMP JUMPDEST POP SWAP4 SWAP3 POP POP POP JUMP JUMPDEST PUSH0 DUP3 PUSH1 0x1F DUP4 ADD SLT PUSH2 0x159D JUMPI PUSH2 0x159C PUSH2 0x147A JUMP JUMPDEST JUMPDEST DUP2 CALLDATALOAD PUSH2 0x15AD DUP5 DUP3 PUSH1 0x20 DUP7 ADD PUSH2 0x1548 JUMP JUMPDEST SWAP2 POP POP SWAP3 SWAP2 POP POP JUMP JUMPDEST PUSH0 DUP1 PUSH1 0x40 DUP4 DUP6 SUB SLT ISZERO PUSH2 0x15CC JUMPI PUSH2 0x15CB PUSH2 0x13A7 JUMP JUMPDEST JUMPDEST PUSH0 PUSH2 0x15D9 DUP6 DUP3 DUP7 ADD PUSH2 0x13F5 JUMP JUMPDEST SWAP3 POP POP PUSH1 0x20 DUP4 ADD CALLDATALOAD PUSH8 0xFFFFFFFFFFFFFFFF DUP2 GT ISZERO PUSH2 0x15FA JUMPI PUSH2 0x15F9 PUSH2 0x13AB JUMP JUMPDEST JUMPDEST PUSH2 0x1606 DUP6 DUP3 DUP7 ADD PUSH2 0x1589 JUMP JUMPDEST SWAP2 POP POP SWAP3 POP SWAP3 SWAP1 POP JUMP JUMPDEST PUSH0 DUP2 SWAP1 POP SWAP2 SWAP1 POP JUMP JUMPDEST PUSH2 0x1622 DUP2 PUSH2 0x1610 JUMP JUMPDEST DUP2 EQ PUSH2 0x162C JUMPI PUSH0 DUP1 REVERT JUMPDEST POP JUMP JUMPDEST PUSH0 DUP2 CALLDATALOAD SWAP1 POP PUSH2 0x163D DUP2 PUSH2 0x1619 JUMP JUMPDEST SWAP3 SWAP2 POP POP JUMP JUMPDEST PUSH0 DUP1 PUSH1 0x40 DUP4 DUP6 SUB SLT ISZERO PUSH2 0x1659 JUMPI PUSH2 0x1658 PUSH2 0x13A7 JUMP JUMPDEST JUMPDEST PUSH0 PUSH2 0x1666 DUP6 DUP3 DUP7 ADD PUSH2 0x13F5 JUMP JUMPDEST SWAP3 POP POP PUSH1 0x20 PUSH2 0x1677 DUP6 DUP3 DUP7 ADD PUSH2 0x162F JUMP JUMPDEST SWAP2 POP POP SWAP3 POP SWAP3 SWAP1 POP JUMP JUMPDEST PUSH2 0x168A DUP2 PUSH2 0x1610 JUMP JUMPDEST DUP3 MSTORE POP POP JUMP JUMPDEST PUSH0 DUP2 MLOAD SWAP1 POP SWAP2 SWAP1 POP JUMP JUMPDEST PUSH0 DUP3 DUP3 MSTORE PUSH1 0x20 DUP3 ADD SWAP1 POP SWAP3 SWAP2 POP POP JUMP JUMPDEST DUP3 DUP2 DUP4 MCOPY PUSH0 DUP4 DUP4 ADD MSTORE POP POP POP JUMP JUMPDEST PUSH0 PUSH2 0x16C2 DUP3 PUSH2 0x1690 JUMP JUMPDEST PUSH2 0x16CC DUP2 DUP6 PUSH2 0x169A JUMP JUMPDEST SWAP4 POP PUSH2 0x16DC DUP2 DUP6 PUSH1 0x20 DUP7 ADD PUSH2 0x16AA JUMP JUMPDEST PUSH2 0x16E5 DUP2 PUSH2 0x1482 JUMP JUMPDEST DUP5 ADD SWAP2 POP POP SWAP3 SWAP2 POP POP JUMP JUMPDEST PUSH2 0x16F9 DUP2 PUSH2 0x13CE JUMP JUMPDEST DUP3 MSTORE POP POP JUMP JUMPDEST PUSH0 PUSH1 0xA0 DUP3 ADD SWAP1 POP PUSH2 0x1712 PUSH0 DUP4 ADD DUP9 PUSH2 0x1681 JUMP JUMPDEST DUP2 DUP2 SUB PUSH1 0x20 DUP4 ADD MSTORE PUSH2 0x1724 DUP2 DUP8 PUSH2 0x16B8 JUMP JUMPDEST SWAP1 POP PUSH2 0x1733 PUSH1 0x40 DUP4 ADD DUP7 PUSH2 0x16F0 JUMP JUMPDEST PUSH2 0x1740 PUSH1 0x60 DUP4 ADD DUP6 PUSH2 0x16F0 JUMP JUMPDEST PUSH2 0x174D PUSH1 0x80 DUP4 ADD DUP5 PUSH2 0x1681 JUMP JUMPDEST SWAP7 SWAP6 POP POP POP POP POP POP JUMP JUMPDEST PUSH0 PUSH1 0x20 DUP3 DUP5 SUB SLT ISZERO PUSH2 0x176C JUMPI PUSH2 0x176B PUSH2 0x13A7 JUMP JUMPDEST JUMPDEST PUSH0 PUSH2 0x1779 DUP5 DUP3 DUP6 ADD PUSH2 0x13F5 JUMP JUMPDEST SWAP2 POP POP SWAP3 SWAP2 POP POP JUMP JUMPDEST PUSH0 PUSH1 0x20 DUP3 DUP5 SUB SLT ISZERO PUSH2 0x1797 JUMPI PUSH2 0x1796 PUSH2 0x13A7 JUMP JUMPDEST JUMPDEST PUSH0 PUSH2 0x17A4 DUP5 DUP3 DUP6 ADD PUSH2 0x162F JUMP JUMPDEST SWAP2 POP POP SWAP3 SWAP2 POP POP JUMP JUMPDEST PUSH0 DUP2 MLOAD SWAP1 POP SWAP2 SWAP1 POP JUMP JUMPDEST PUSH0 DUP3 DUP3 MSTORE PUSH1 0x20 DUP3 ADD SWAP1 POP SWAP3 SWAP2 POP POP JUMP JUMPDEST PUSH0 DUP2 SWAP1 POP PUSH1 0x20 DUP3 ADD SWAP1 POP SWAP2 SWAP1 POP JUMP JUMPDEST PUSH2 0x17DF DUP2 PUSH2 0x1610 JUMP JUMPDEST DUP3 MSTORE POP POP JUMP JUMPDEST PUSH2 0x17EE DUP2 PUSH2 0x13CE JUMP JUMPDEST DUP3 MSTORE POP POP JUMP JUMPDEST PUSH0 DUP3 DUP3 MSTORE PUSH1 0x20 DUP3 ADD SWAP1 POP SWAP3 SWAP2 POP POP JUMP JUMPDEST PUSH0 PUSH2 0x180E DUP3 PUSH2 0x1690 JUMP JUMPDEST PUSH2 0x1818 DUP2 DUP6 PUSH2 0x17F4 JUMP JUMPDEST SWAP4 POP PUSH2 0x1828 DUP2 DUP6 PUSH1 0x20 DUP7 ADD PUSH2 0x16AA JUMP JUMPDEST PUSH2 0x1831 DUP2 PUSH2 0x1482 JUMP JUMPDEST DUP5 ADD SWAP2 POP POP SWAP3 SWAP2 POP POP JUMP JUMPDEST PUSH0 PUSH1 0x80 DUP4 ADD PUSH0 DUP4 ADD MLOAD PUSH2 0x1851 PUSH0 DUP7 ADD DUP3 PUSH2 0x17D6 JUMP JUMPDEST POP PUSH1 0x20 DUP4 ADD MLOAD PUSH2 0x1864 PUSH1 0x20 DUP7 ADD DUP3 PUSH2 0x17E5 JUMP JUMPDEST POP PUSH1 0x40 DUP4 ADD MLOAD DUP5 DUP3 SUB PUSH1 0x40 DUP7 ADD MSTORE PUSH2 0x187C DUP3 DUP3 PUSH2 0x1804 JUMP JUMPDEST SWAP2 POP POP PUSH1 0x60 DUP4 ADD MLOAD PUSH2 0x1891 PUSH1 0x60 DUP7 ADD DUP3 PUSH2 0x17D6 JUMP JUMPDEST POP DUP1 SWAP2 POP POP SWAP3 SWAP2 POP POP JUMP JUMPDEST PUSH0 PUSH2 0x18A7 DUP4 DUP4 PUSH2 0x183C JUMP JUMPDEST SWAP1 POP SWAP3 SWAP2 POP POP JUMP JUMPDEST PUSH0 PUSH1 0x20 DUP3 ADD SWAP1 POP SWAP2 SWAP1 POP JUMP JUMPDEST PUSH0 PUSH2 0x18C5 DUP3 PUSH2 0x17AD JUMP JUMPDEST PUSH2 0x18CF DUP2 DUP6 PUSH2 0x17B7 JUMP JUMPDEST SWAP4 POP DUP4 PUSH1 0x20 DUP3 MUL DUP6 ADD PUSH2 0x18E1 DUP6 PUSH2 0x17C7 JUMP JUMPDEST DUP1 PUSH0 JUMPDEST DUP6 DUP2 LT ISZERO PUSH2 0x191C JUMPI DUP5 DUP5 SUB DUP10 MSTORE DUP2 MLOAD PUSH2 0x18FD DUP6 DUP3 PUSH2 0x189C JUMP JUMPDEST SWAP5 POP PUSH2 0x1908 DUP4 PUSH2 0x18AF JUMP JUMPDEST SWAP3 POP PUSH1 0x20 DUP11 ADD SWAP10 POP POP PUSH1 0x1 DUP2 ADD SWAP1 POP PUSH2 0x18E4 JUMP JUMPDEST POP DUP3 SWAP8 POP DUP8 SWAP6 POP POP POP POP POP POP SWAP3 SWAP2 POP POP JUMP JUMPDEST PUSH0 PUSH1 0x20 DUP3 ADD SWAP1 POP DUP2 DUP2 SUB PUSH0 DUP4 ADD MSTORE PUSH2 0x1946 DUP2 DUP5 PUSH2 0x18BB JUMP JUMPDEST SWAP1 POP SWAP3 SWAP2 POP POP JUMP JUMPDEST PUSH0 PUSH1 0x20 DUP3 ADD SWAP1 POP PUSH2 0x1961 PUSH0 DUP4 ADD DUP5 PUSH2 0x16F0 JUMP JUMPDEST SWAP3 SWAP2 POP POP JUMP JUMPDEST PUSH0 PUSH1 0x20 DUP3 ADD SWAP1 POP PUSH2 0x197A PUSH0 DUP4 ADD DUP5 PUSH2 0x1681 JUMP JUMPDEST SWAP3 SWAP2 POP POP JUMP JUMPDEST PUSH0 DUP1 PUSH1 0x40 DUP4 DUP6 SUB SLT ISZERO PUSH2 0x1996 JUMPI PUSH2 0x1995 PUSH2 0x13A7 JUMP JUMPDEST JUMPDEST PUSH0 DUP4 ADD CALLDATALOAD PUSH8 0xFFFFFFFFFFFFFFFF DUP2 GT ISZERO PUSH2 0x19B3 JUMPI PUSH2 0x19B2 PUSH2 0x13AB JUMP JUMPDEST JUMPDEST PUSH2 0x19BF DUP6 DUP3 DUP7 ADD PUSH2 0x1589 JUMP JUMPDEST SWAP3 POP POP PUSH1 0x20 PUSH2 0x19D0 DUP6 DUP3 DUP7 ADD PUSH2 0x13F5 JUMP JUMPDEST SWAP2 POP POP SWAP3 POP SWAP3 SWAP1 POP JUMP JUMPDEST PUSH0 DUP1 PUSH0 PUSH1 0x60 DUP5 DUP7 SUB SLT ISZERO PUSH2 0x19F1 JUMPI PUSH2 0x19F0 PUSH2 0x13A7 JUMP JUMPDEST JUMPDEST PUSH0 PUSH2 0x19FE DUP7 DUP3 DUP8 ADD PUSH2 0x13F5 JUMP JUMPDEST SWAP4 POP POP PUSH1 0x20 PUSH2 0x1A0F DUP7 DUP3 DUP8 ADD PUSH2 0x13F5 JUMP JUMPDEST SWAP3 POP POP PUSH1 0x40 DUP5 ADD CALLDATALOAD PUSH8 0xFFFFFFFFFFFFFFFF DUP2 GT ISZERO PUSH2 0x1A30 JUMPI PUSH2 0x1A2F PUSH2 0x13AB JUMP JUMPDEST JUMPDEST PUSH2 0x1A3C DUP7 DUP3 DUP8 ADD PUSH2 0x1589 JUMP JUMPDEST SWAP2 POP POP SWAP3 POP SWAP3 POP SWAP3 JUMP JUMPDEST PUSH0 PUSH1 0x80 DUP3 ADD SWAP1 POP PUSH2 0x1A59 PUSH0 DUP4 ADD DUP8 PUSH2 0x1681 JUMP JUMPDEST PUSH2 0x1A66 PUSH1 0x20 DUP4 ADD DUP7 PUSH2 0x16F0 JUMP JUMPDEST DUP2 DUP2 SUB PUSH1 0x40 DUP4 ADD MSTORE PUSH2 0x1A78 DUP2 DUP6 PUSH2 0x16B8 JUMP JUMPDEST SWAP1 POP PUSH2 0x1A87 PUSH1 0x60 DUP4 ADD DUP5 PUSH2 0x1681 JUMP JUMPDEST SWAP6 SWAP5 POP POP POP POP POP JUMP JUMPDEST PUSH0 PUSH1 0x20 DUP3 DUP5 SUB SLT ISZERO PUSH2 0x1AA5 JUMPI PUSH2 0x1AA4 PUSH2 0x13A7 JUMP JUMPDEST JUMPDEST PUSH0 DUP3 ADD CALLDATALOAD PUSH8 0xFFFFFFFFFFFFFFFF DUP2 GT ISZERO PUSH2 0x1AC2 JUMPI PUSH2 0x1AC1 PUSH2 0x13AB JUMP JUMPDEST JUMPDEST PUSH2 0x1ACE DUP5 DUP3 DUP6 ADD PUSH2 0x1589 JUMP JUMPDEST SWAP2 POP POP SWAP3 SWAP2 POP POP JUMP JUMPDEST PUSH32 0x4E487B7100000000000000000000000000000000000000000000000000000000 PUSH0 MSTORE PUSH1 0x22 PUSH1 0x4 MSTORE PUSH1 0x24 PUSH0 REVERT JUMPDEST PUSH0 PUSH1 0x2 DUP3 DIV SWAP1 POP PUSH1 0x1 DUP3 AND DUP1 PUSH2 0x1B1B JUMPI PUSH1 0x7F DUP3 AND SWAP2 POP JUMPDEST PUSH1 0x20 DUP3 LT DUP2 SUB PUSH2 0x1B2E JUMPI PUSH2 0x1B2D PUSH2 0x1AD7 JUMP JUMPDEST JUMPDEST POP SWAP2 SWAP1 POP JUMP JUMPDEST PUSH32 0x4E487B7100000000000000000000000000000000000000000000000000000000 PUSH0 MSTORE PUSH1 0x11 PUSH1 0x4 MSTORE PUSH1 0x24 PUSH0 REVERT JUMPDEST PUSH0 PUSH2 0x1B6B DUP3 PUSH2 0x1610 JUMP JUMPDEST SWAP2 POP PUSH2 0x1B76 DUP4 PUSH2 0x1610 JUMP JUMPDEST SWAP3 POP DUP3 DUP3 SUB SWAP1 POP DUP2 DUP2 GT ISZERO PUSH2 0x1B8E JUMPI PUSH2 0x1B8D PUSH2 0x1B34 JUMP JUMPDEST JUMPDEST SWAP3 SWAP2 POP POP JUMP JUMPDEST PUSH32 0x496E76616C696420636F756E7400000000000000000000000000000000000000 PUSH0 DUP3 ADD MSTORE POP JUMP JUMPDEST PUSH0 PUSH2 0x1BC8 PUSH1 0xD DUP4 PUSH2 0x169A JUMP JUMPDEST SWAP2 POP PUSH2 0x1BD3 DUP3 PUSH2 0x1B94 JUMP JUMPDEST PUSH1 0x20 DUP3 ADD SWAP1 POP SWAP2 SWAP1 POP JUMP JUMPDEST PUSH0 PUSH1 0x20 DUP3 ADD SWAP1 POP DUP2 DUP2 SUB PUSH0 DUP4 ADD MSTORE PUSH2 0x1BF5 DUP2 PUSH2 0x1BBC JUMP JUMPDEST SWAP1 POP SWAP2 SWAP1 POP JUMP JUMPDEST PUSH32 0x4E487B7100000000000000000000000000000000000000000000000000000000 PUSH0 MSTORE PUSH1 0x32 PUSH1 0x4 MSTORE PUSH1 0x24 PUSH0 REVERT JUMPDEST PUSH0 PUSH2 0x1C33 DUP3 PUSH2 0x1610 JUMP JUMPDEST SWAP2 POP PUSH32 0xFFFFFFFFFFFFFFFFFFFFFFFFFFFFFFFFFFFFFFFFFFFFFFFFFFFFFFFFFFFFFFFF DUP3 SUB PUSH2 0x1C65 JUMPI PUSH2 0x1C64 PUSH2 0x1B34 JUMP JUMPDEST JUMPDEST PUSH1 0x1 DUP3 ADD SWAP1 POP SWAP2 SWAP1 POP JUMP JUMPDEST PUSH0 PUSH2 0x1C7A DUP3 PUSH2 0x1610 JUMP JUMPDEST SWAP2 POP PUSH2 0x1C85 DUP4 PUSH2 0x1610 JUMP JUMPDEST SWAP3 POP DUP3 DUP3 ADD SWAP1 POP DUP1 DUP3 GT ISZERO PUSH2 0x1C9D JUMPI PUSH2 0x1C9C PUSH2 0x1B34 JUMP JUMPDEST JUMPDEST SWAP3 SWAP2 POP POP JUMP JUMPDEST PUSH32 0x596F7520617265206E6F7420617574686F72697A656400000000000000000000 PUSH0 DUP3 ADD MSTORE POP JUMP JUMPDEST PUSH0 PUSH2 0x1CD7 PUSH1 0x16 DUP4 PUSH2 0x169A JUMP JUMPDEST SWAP2 POP PUSH2 0x1CE2 DUP3 PUSH2 0x1CA3 JUMP JUMPDEST PUSH1 0x20 DUP3 ADD SWAP1 POP SWAP2 SWAP1 POP JUMP JUMPDEST PUSH0 PUSH1 0x20 DUP3 ADD SWAP1 POP DUP2 DUP2 SUB PUSH0 DUP4 ADD MSTORE PUSH2 0x1D04 DUP2 PUSH2 0x1CCB JUMP JUMPDEST SWAP1 POP SWAP2 SWAP1 POP JUMP JUMPDEST PUSH32 0x547765657420636F6E74656E742063616E6E6F7420626520656D707479000000 PUSH0 DUP3 ADD MSTORE POP JUMP JUMPDEST PUSH0 PUSH2 0x1D3F PUSH1 0x1D DUP4 PUSH2 0x169A JUMP JUMPDEST SWAP2 POP PUSH2 0x1D4A DUP3 PUSH2 0x1D0B JUMP JUMPDEST PUSH1 0x20 DUP3 ADD SWAP1 POP SWAP2 SWAP1 POP JUMP JUMPDEST PUSH0 PUSH1 0x20 DUP3 ADD SWAP1 POP DUP2 DUP2 SUB PUSH0 DUP4 ADD MSTORE PUSH2 0x1D6C DUP2 PUSH2 0x1D33 JUMP JUMPDEST SWAP1 POP SWAP2 SWAP1 POP JUMP JUMPDEST PUSH0 DUP2 SWAP1 POP DUP2 PUSH0 MSTORE PUSH1 0x20 PUSH0 KECCAK256 SWAP1 POP SWAP2 SWAP1 POP JUMP JUMPDEST PUSH0 PUSH1 0x20 PUSH1 0x1F DUP4 ADD DIV SWAP1 POP SWAP2 SWAP1 POP JUMP JUMPDEST PUSH0 DUP3 DUP3 SHL SWAP1 POP SWAP3 SWAP2 POP POP JUMP JUMPDEST PUSH0 PUSH1 0x8 DUP4 MUL PUSH2 0x1DCF PUSH32 0xFFFFFFFFFFFFFFFFFFFFFFFFFFFFFFFFFFFFFFFFFFFFFFFFFFFFFFFFFFFFFFFF DUP3 PUSH2 0x1D94 JUMP JUMPDEST PUSH2 0x1DD9 DUP7 DUP4 PUSH2 0x1D94 JUMP JUMPDEST SWAP6 POP DUP1 NOT DUP5 AND SWAP4 POP DUP1 DUP7 AND DUP5 OR SWAP3 POP POP POP SWAP4 SWAP3 POP POP POP JUMP JUMPDEST PUSH0 DUP2 SWAP1 POP SWAP2 SWAP1 POP JUMP JUMPDEST PUSH0 PUSH2 0x1E14 PUSH2 0x1E0F PUSH2 0x1E0A DUP5 PUSH2 0x1610 JUMP JUMPDEST PUSH2 0x1DF1 JUMP JUMPDEST PUSH2 0x1610 JUMP JUMPDEST SWAP1 POP SWAP2 SWAP1 POP JUMP JUMPDEST PUSH0 DUP2 SWAP1 POP SWAP2 SWAP1 POP JUMP JUMPDEST PUSH2 0x1E2D DUP4 PUSH2 0x1DFA JUMP JUMPDEST PUSH2 0x1E41 PUSH2 0x1E39 DUP3 PUSH2 0x1E1B JUMP JUMPDEST DUP5 DUP5 SLOAD PUSH2 0x1DA0 JUMP JUMPDEST DUP3 SSTORE POP POP POP POP JUMP JUMPDEST PUSH0 SWAP1 JUMP JUMPDEST PUSH2 0x1E55 PUSH2 0x1E49 JUMP JUMPDEST PUSH2 0x1E60 DUP2 DUP5 DUP5 PUSH2 0x1E24 JUMP JUMPDEST POP POP POP JUMP JUMPDEST JUMPDEST DUP2 DUP2 LT ISZERO PUSH2 0x1E83 JUMPI PUSH2 0x1E78 PUSH0 DUP3 PUSH2 0x1E4D JUMP JUMPDEST PUSH1 0x1 DUP2 ADD SWAP1 POP PUSH2 0x1E66 JUMP JUMPDEST POP POP JUMP JUMPDEST PUSH1 0x1F DUP3 GT ISZERO PUSH2 0x1EC8 JUMPI PUSH2 0x1E99 DUP2 PUSH2 0x1D73 JUMP JUMPDEST PUSH2 0x1EA2 DUP5 PUSH2 0x1D85 JUMP JUMPDEST DUP2 ADD PUSH1 0x20 DUP6 LT ISZERO PUSH2 0x1EB1 JUMPI DUP2 SWAP1 POP JUMPDEST PUSH2 0x1EC5 PUSH2 0x1EBD DUP6 PUSH2 0x1D85 JUMP JUMPDEST DUP4 ADD DUP3 PUSH2 0x1E65 JUMP JUMPDEST POP POP JUMPDEST POP POP POP JUMP JUMPDEST PUSH0 DUP3 DUP3 SHR SWAP1 POP SWAP3 SWAP2 POP POP JUMP JUMPDEST PUSH0 PUSH2 0x1EE8 PUSH0 NOT DUP5 PUSH1 0x8 MUL PUSH2 0x1ECD JUMP JUMPDEST NOT DUP1 DUP4 AND SWAP2 POP POP SWAP3 SWAP2 POP POP JUMP JUMPDEST PUSH0 PUSH2 0x1F00 DUP4 DUP4 PUSH2 0x1ED9 JUMP JUMPDEST SWAP2 POP DUP3 PUSH1 0x2 MUL DUP3 OR SWAP1 POP SWAP3 SWAP2 POP POP JUMP JUMPDEST PUSH2 0x1F19 DUP3 PUSH2 0x1690 JUMP JUMPDEST PUSH8 0xFFFFFFFFFFFFFFFF DUP2 GT ISZERO PUSH2 0x1F32 JUMPI PUSH2 0x1F31 PUSH2 0x1492 JUMP JUMPDEST JUMPDEST PUSH2 0x1F3C DUP3 SLOAD PUSH2 0x1B04 JUMP JUMPDEST PUSH2 0x1F47 DUP3 DUP3 DUP6 PUSH2 0x1E87 JUMP JUMPDEST PUSH0 PUSH1 0x20 SWAP1 POP PUSH1 0x1F DUP4 GT PUSH1 0x1 DUP2 EQ PUSH2 0x1F78 JUMPI PUSH0 DUP5 ISZERO PUSH2 0x1F66 JUMPI DUP3 DUP8 ADD MLOAD SWAP1 POP JUMPDEST PUSH2 0x1F70 DUP6 DUP3 PUSH2 0x1EF5 JUMP JUMPDEST DUP7 SSTORE POP PUSH2 0x1FD7 JUMP JUMPDEST PUSH1 0x1F NOT DUP5 AND PUSH2 0x1F86 DUP7 PUSH2 0x1D73 JUMP JUMPDEST PUSH0 JUMPDEST DUP3 DUP2 LT ISZERO PUSH2 0x1FAD JUMPI DUP5 DUP10 ADD MLOAD DUP3 SSTORE PUSH1 0x1 DUP3 ADD SWAP2 POP PUSH1 0x20 DUP6 ADD SWAP5 POP PUSH1 0x20 DUP2 ADD SWAP1 POP PUSH2 0x1F88 JUMP JUMPDEST DUP7 DUP4 LT ISZERO PUSH2 0x1FCA JUMPI DUP5 DUP10 ADD MLOAD PUSH2 0x1FC6 PUSH1 0x1F DUP10 AND DUP3 PUSH2 0x1ED9 JUMP JUMPDEST DUP4 SSTORE POP JUMPDEST PUSH1 0x1 PUSH1 0x2 DUP9 MUL ADD DUP9 SSTORE POP POP POP JUMPDEST POP POP POP POP POP POP JUMP JUMPDEST PUSH0 PUSH1 0x40 DUP3 ADD SWAP1 POP DUP2 DUP2 SUB PUSH0 DUP4 ADD MSTORE PUSH2 0x1FF7 DUP2 DUP6 PUSH2 0x16B8 JUMP JUMPDEST SWAP1 POP PUSH2 0x2006 PUSH1 0x20 DUP4 ADD DUP5 PUSH2 0x1681 JUMP JUMPDEST SWAP4 SWAP3 POP POP POP JUMP JUMPDEST PUSH32 0x4D65737361676520636F6E74656E742063616E6E6F7420626520656D70747900 PUSH0 DUP3 ADD MSTORE POP JUMP JUMPDEST PUSH0 PUSH2 0x2041 PUSH1 0x1F DUP4 PUSH2 0x169A JUMP JUMPDEST SWAP2 POP PUSH2 0x204C DUP3 PUSH2 0x200D JUMP JUMPDEST PUSH1 0x20 DUP3 ADD SWAP1 POP SWAP2 SWAP1 POP JUMP JUMPDEST PUSH0 PUSH1 0x20 DUP3 ADD SWAP1 POP DUP2 DUP2 SUB PUSH0 DUP4 ADD MSTORE PUSH2 0x206E DUP2 PUSH2 0x2035 JUMP JUMPDEST SWAP1 POP SWAP2 SWAP1 POP JUMP INVALID LOG2 PUSH5 0x6970667358 0x22 SLT KECCAK256 RETURNDATASIZE 0xEC 0xBE 0xD8 MSTORE STATICCALL GASPRICE 0xA9 BALANCE 0xE 0xA5 0xDB 0xF CREATE MSTORE8 BLOCKHASH LT PUSH1 0x7B MSTORE SLOAD LOG0 LOG3 DUP16 DUP11 0xE9 0xED PUSH15 0xB468991064736F6C634300081A0033 "
				},
				"gasEstimates": {
					"creation": {
						"codeDepositCost": "1672600",
						"executionCost": "45967",
						"totalCost": "1718567"
					},
					"external": {
						"authorizeOperator(address)": "26523",
						"conversations(address,uint256)": "infinite",
						"follow(address)": "50679",
						"following(address,uint256)": "infinite",
						"getLatestTweets(uint256)": "infinite",
						"getLatestTweetsOf(address,uint256)": "infinite",
						"operators(address,address)": "infinite",
						"revokeOperator(address)": "26499",
						"sendMessage(string,address)": "infinite",
						"sendMessageAsOperator(address,address,string)": "infinite",
						"tweet(string)": "infinite",
						"tweetAsOperator(address,string)": "infinite",
						"tweets(uint256)": "infinite",
						"tweetsOf(address,uint256)": "infinite"
					},
					"internal": {
						"_sendMessage(address,address,string memory)": "infinite",
						"_tweet(address,string memory)": "infinite"
					}
				},
				"methodIdentifiers": {
					"authorizeOperator(address)": "959b8c3f",
					"conversations(address,uint256)": "3befea09",
					"follow(address)": "4dbf27cc",
					"following(address,uint256)": "9139cda5",
					"getLatestTweets(uint256)": "4dc0a687",
					"getLatestTweetsOf(address,uint256)": "c8e5c8a2",
					"operators(address,address)": "2637588e",
					"revokeOperator(address)": "fad8b32a",
					"sendMessage(string,address)": "c48d6d5e",
					"sendMessageAsOperator(address,address,string)": "d3e148bd",
					"tweet(string)": "fb46d4c5",
					"tweetAsOperator(address,string)": "2b0afc6f",
					"tweets(uint256)": "e8d857b0",
					"tweetsOf(address,uint256)": "af22bf94"
				}
			},
			"storageLayout": {
				"storage": [
					{
						"astId": 26,
						"contract": "twitter project/twitter.sol:Demo",
						"label": "tweets",
						"offset": 0,
						"slot": "0",
						"type": "t_mapping(t_uint256,t_struct(Tweet)10_storage)"
					},
					{
						"astId": 31,
						"contract": "twitter project/twitter.sol:Demo",
						"label": "tweetsOf",
						"offset": 0,
						"slot": "1",
						"type": "t_mapping(t_address,t_array(t_uint256)dyn_storage)"
					},
					{
						"astId": 37,
						"contract": "twitter project/twitter.sol:Demo",
						"label": "conversations",
						"offset": 0,
						"slot": "2",
						"type": "t_mapping(t_address,t_array(t_struct(Message)21_storage)dyn_storage)"
					},
					{
						"astId": 43,
						"contract": "twitter project/twitter.sol:Demo",
						"label": "operators",
						"offset": 0,
						"slot": "3",
						"type": "t_mapping(t_address,t_mapping(t_address,t_bool))"
					},
					{
						"astId": 48,
						"contract": "twitter project/twitter.sol:Demo",
						"label": "following",
						"offset": 0,
						"slot": "4",
						"type": "t_mapping(t_address,t_array(t_address)dyn_storage)"
					},
					{
						"astId": 51,
						"contract": "twitter project/twitter.sol:Demo",
						"label": "nextTweetId",
						"offset": 0,
						"slot": "5",
						"type": "t_uint256"
					},
					{
						"astId": 54,
						"contract": "twitter project/twitter.sol:Demo",
						"label": "nextMessageId",
						"offset": 0,
						"slot": "6",
						"type": "t_uint256"
					}
				],
				"types": {
					"t_address": {
						"encoding": "inplace",
						"label": "address",
						"numberOfBytes": "20"
					},
					"t_array(t_address)dyn_storage": {
						"base": "t_address",
						"encoding": "dynamic_array",
						"label": "address[]",
						"numberOfBytes": "32"
					},
					"t_array(t_struct(Message)21_storage)dyn_storage": {
						"base": "t_struct(Message)21_storage",
						"encoding": "dynamic_array",
						"label": "struct Demo.Message[]",
						"numberOfBytes": "32"
					},
					"t_array(t_uint256)dyn_storage": {
						"base": "t_uint256",
						"encoding": "dynamic_array",
						"label": "uint256[]",
						"numberOfBytes": "32"
					},
					"t_bool": {
						"encoding": "inplace",
						"label": "bool",
						"numberOfBytes": "1"
					},
					"t_mapping(t_address,t_array(t_address)dyn_storage)": {
						"encoding": "mapping",
						"key": "t_address",
						"label": "mapping(address => address[])",
						"numberOfBytes": "32",
						"value": "t_array(t_address)dyn_storage"
					},
					"t_mapping(t_address,t_array(t_struct(Message)21_storage)dyn_storage)": {
						"encoding": "mapping",
						"key": "t_address",
						"label": "mapping(address => struct Demo.Message[])",
						"numberOfBytes": "32",
						"value": "t_array(t_struct(Message)21_storage)dyn_storage"
					},
					"t_mapping(t_address,t_array(t_uint256)dyn_storage)": {
						"encoding": "mapping",
						"key": "t_address",
						"label": "mapping(address => uint256[])",
						"numberOfBytes": "32",
						"value": "t_array(t_uint256)dyn_storage"
					},
					"t_mapping(t_address,t_bool)": {
						"encoding": "mapping",
						"key": "t_address",
						"label": "mapping(address => bool)",
						"numberOfBytes": "32",
						"value": "t_bool"
					},
					"t_mapping(t_address,t_mapping(t_address,t_bool))": {
						"encoding": "mapping",
						"key": "t_address",
						"label": "mapping(address => mapping(address => bool))",
						"numberOfBytes": "32",
						"value": "t_mapping(t_address,t_bool)"
					},
					"t_mapping(t_uint256,t_struct(Tweet)10_storage)": {
						"encoding": "mapping",
						"key": "t_uint256",
						"label": "mapping(uint256 => struct Demo.Tweet)",
						"numberOfBytes": "32",
						"value": "t_struct(Tweet)10_storage"
					},
					"t_string_storage": {
						"encoding": "bytes",
						"label": "string",
						"numberOfBytes": "32"
					},
					"t_struct(Message)21_storage": {
						"encoding": "inplace",
						"label": "struct Demo.Message",
						"members": [
							{
								"astId": 12,
								"contract": "twitter project/twitter.sol:Demo",
								"label": "id",
								"offset": 0,
								"slot": "0",
								"type": "t_uint256"
							},
							{
								"astId": 14,
								"contract": "twitter project/twitter.sol:Demo",
								"label": "content",
								"offset": 0,
								"slot": "1",
								"type": "t_string_storage"
							},
							{
								"astId": 16,
								"contract": "twitter project/twitter.sol:Demo",
								"label": "sender",
								"offset": 0,
								"slot": "2",
								"type": "t_address"
							},
							{
								"astId": 18,
								"contract": "twitter project/twitter.sol:Demo",
								"label": "receiver",
								"offset": 0,
								"slot": "3",
								"type": "t_address"
							},
							{
								"astId": 20,
								"contract": "twitter project/twitter.sol:Demo",
								"label": "creationTime",
								"offset": 0,
								"slot": "4",
								"type": "t_uint256"
							}
						],
						"numberOfBytes": "160"
					},
					"t_struct(Tweet)10_storage": {
						"encoding": "inplace",
						"label": "struct Demo.Tweet",
						"members": [
							{
								"astId": 3,
								"contract": "twitter project/twitter.sol:Demo",
								"label": "id",
								"offset": 0,
								"slot": "0",
								"type": "t_uint256"
							},
							{
								"astId": 5,
								"contract": "twitter project/twitter.sol:Demo",
								"label": "author",
								"offset": 0,
								"slot": "1",
								"type": "t_address"
							},
							{
								"astId": 7,
								"contract": "twitter project/twitter.sol:Demo",
								"label": "content",
								"offset": 0,
								"slot": "2",
								"type": "t_string_storage"
							},
							{
								"astId": 9,
								"contract": "twitter project/twitter.sol:Demo",
								"label": "creationTime",
								"offset": 0,
								"slot": "3",
								"type": "t_uint256"
							}
						],
						"numberOfBytes": "128"
					},
					"t_uint256": {
						"encoding": "inplace",
						"label": "uint256",
						"numberOfBytes": "32"
					}
				}
			},
			"userdoc": {
				"kind": "user",
				"methods": {},
				"version": 1
			}
		}
	}
}